{
	"Contrat_de_Stacking.sol": {
		"GenericStaking": {
			"abi": [
				{
					"inputs": [
						{
							"internalType": "address",
							"name": "tokenAddress",
							"type": "address"
						}
					],
					"stateMutability": "nonpayable",
					"type": "constructor"
				},
				{
					"inputs": [
						{
							"internalType": "address",
							"name": "owner",
							"type": "address"
						}
					],
					"name": "OwnableInvalidOwner",
					"type": "error"
				},
				{
					"inputs": [
						{
							"internalType": "address",
							"name": "account",
							"type": "address"
						}
					],
					"name": "OwnableUnauthorizedAccount",
					"type": "error"
				},
				{
					"anonymous": false,
					"inputs": [
						{
							"indexed": true,
							"internalType": "address",
							"name": "previousOwner",
							"type": "address"
						},
						{
							"indexed": true,
							"internalType": "address",
							"name": "newOwner",
							"type": "address"
						}
					],
					"name": "OwnershipTransferred",
					"type": "event"
				},
				{
					"anonymous": false,
					"inputs": [
						{
							"indexed": true,
							"internalType": "address",
							"name": "user",
							"type": "address"
						},
						{
							"indexed": false,
							"internalType": "uint256",
							"name": "amount",
							"type": "uint256"
						}
					],
					"name": "Staked",
					"type": "event"
				},
				{
					"anonymous": false,
					"inputs": [
						{
							"indexed": true,
							"internalType": "address",
							"name": "user",
							"type": "address"
						},
						{
							"indexed": false,
							"internalType": "uint256",
							"name": "amount",
							"type": "uint256"
						}
					],
					"name": "Unstaked",
					"type": "event"
				},
				{
					"inputs": [
						{
							"internalType": "address",
							"name": "user",
							"type": "address"
						}
					],
					"name": "getStakeDetails",
					"outputs": [
						{
							"internalType": "uint256",
							"name": "amount",
							"type": "uint256"
						},
						{
							"internalType": "uint256",
							"name": "timestamp",
							"type": "uint256"
						}
					],
					"stateMutability": "view",
					"type": "function"
				},
				{
					"inputs": [],
					"name": "owner",
					"outputs": [
						{
							"internalType": "address",
							"name": "",
							"type": "address"
						}
					],
					"stateMutability": "view",
					"type": "function"
				},
				{
					"inputs": [],
					"name": "renounceOwnership",
					"outputs": [],
					"stateMutability": "nonpayable",
					"type": "function"
				},
				{
					"inputs": [
						{
							"internalType": "uint256",
							"name": "amount",
							"type": "uint256"
						}
					],
					"name": "stake",
					"outputs": [],
					"stateMutability": "nonpayable",
					"type": "function"
				},
				{
					"inputs": [
						{
							"internalType": "address",
							"name": "",
							"type": "address"
						}
					],
					"name": "stakes",
					"outputs": [
						{
							"internalType": "uint256",
							"name": "amount",
							"type": "uint256"
						},
						{
							"internalType": "uint256",
							"name": "timestamp",
							"type": "uint256"
						}
					],
					"stateMutability": "view",
					"type": "function"
				},
				{
					"inputs": [],
					"name": "stakingToken",
					"outputs": [
						{
							"internalType": "contract IERC20",
							"name": "",
							"type": "address"
						}
					],
					"stateMutability": "view",
					"type": "function"
				},
				{
					"inputs": [
						{
							"internalType": "address",
							"name": "newOwner",
							"type": "address"
						}
					],
					"name": "transferOwnership",
					"outputs": [],
					"stateMutability": "nonpayable",
					"type": "function"
				},
				{
					"inputs": [],
					"name": "unstake",
					"outputs": [],
					"stateMutability": "nonpayable",
					"type": "function"
				}
			],
			"devdoc": {
				"errors": {
					"OwnableInvalidOwner(address)": [
						{
							"details": "The owner is not a valid owner account. (eg. `address(0)`)"
						}
					],
					"OwnableUnauthorizedAccount(address)": [
						{
							"details": "The caller account is not authorized to perform an operation."
						}
					]
				},
				"kind": "dev",
				"methods": {
					"constructor": {
						"params": {
							"tokenAddress": "The address of the ERC20 token contract"
						}
					},
					"getStakeDetails(address)": {
						"params": {
							"user": "The address of the user"
						},
						"returns": {
							"amount": "The amount of tokens staked",
							"timestamp": "The timestamp when the stake started"
						}
					},
					"owner()": {
						"details": "Returns the address of the current owner."
					},
					"renounceOwnership()": {
						"details": "Leaves the contract without owner. It will not be possible to call `onlyOwner` functions. Can only be called by the current owner. NOTE: Renouncing ownership will leave the contract without an owner, thereby disabling any functionality that is only available to the owner."
					},
					"stake(uint256)": {
						"params": {
							"amount": "The amount of tokens to stake"
						}
					},
					"transferOwnership(address)": {
						"details": "Transfers ownership of the contract to a new account (`newOwner`). Can only be called by the current owner."
					}
				},
				"version": 1
			},
			"evm": {
				"assembly": "    /* \"Contrat_de_Stacking.sol\":175:2604  contract GenericStaking is Ownable(address(this)) {... */\n  mstore(0x40, 0x80)\n    /* \"Contrat_de_Stacking.sol\":706:872  constructor(address tokenAddress) {... */\n  callvalue\n  dup1\n  iszero\n  tag_1\n  jumpi\n  0x00\n  dup1\n  revert\ntag_1:\n  pop\n  mload(0x40)\n  sub(codesize, bytecodeSize)\n  dup1\n  bytecodeSize\n  dup4\n  codecopy\n  dup2\n  dup2\n  add\n  0x40\n  mstore\n  dup2\n  add\n  swap1\n  tag_2\n  swap2\n  swap1\n  tag_3\n  jump\t// in\ntag_2:\n    /* \"Contrat_de_Stacking.sol\":218:222  this */\n  address\n    /* \"@openzeppelin/contracts/access/Ownable.sol\":1297:1298  0 */\n  0x00\n    /* \"@openzeppelin/contracts/access/Ownable.sol\":1273:1299  initialOwner == address(0) */\n  0xffffffffffffffffffffffffffffffffffffffff\n  and\n    /* \"@openzeppelin/contracts/access/Ownable.sol\":1273:1285  initialOwner */\n  dup2\n    /* \"@openzeppelin/contracts/access/Ownable.sol\":1273:1299  initialOwner == address(0) */\n  0xffffffffffffffffffffffffffffffffffffffff\n  and\n  sub\n    /* \"@openzeppelin/contracts/access/Ownable.sol\":1269:1364  if (initialOwner == address(0)) {... */\n  tag_7\n  jumpi\n    /* \"@openzeppelin/contracts/access/Ownable.sol\":1350:1351  0 */\n  0x00\n    /* \"@openzeppelin/contracts/access/Ownable.sol\":1322:1353  OwnableInvalidOwner(address(0)) */\n  mload(0x40)\n  0x1e4fbdf700000000000000000000000000000000000000000000000000000000\n  dup2\n  mstore\n  0x04\n  add\n  tag_8\n  swap2\n  swap1\n  tag_9\n  jump\t// in\ntag_8:\n  mload(0x40)\n  dup1\n  swap2\n  sub\n  swap1\n  revert\n    /* \"@openzeppelin/contracts/access/Ownable.sol\":1269:1364  if (initialOwner == address(0)) {... */\ntag_7:\n    /* \"@openzeppelin/contracts/access/Ownable.sol\":1373:1405  _transferOwnership(initialOwner) */\n  tag_10\n    /* \"@openzeppelin/contracts/access/Ownable.sol\":1392:1404  initialOwner */\n  dup2\n    /* \"@openzeppelin/contracts/access/Ownable.sol\":1373:1391  _transferOwnership */\n  shl(0x20, tag_11)\n    /* \"@openzeppelin/contracts/access/Ownable.sol\":1373:1405  _transferOwnership(initialOwner) */\n  0x20\n  shr\n  jump\t// in\ntag_10:\n    /* \"@openzeppelin/contracts/access/Ownable.sol\":1225:1412  constructor(address initialOwner) {... */\n  pop\n    /* \"Contrat_de_Stacking.sol\":783:784  0 */\n  0x00\n    /* \"Contrat_de_Stacking.sol\":759:785  tokenAddress != address(0) */\n  0xffffffffffffffffffffffffffffffffffffffff\n  and\n    /* \"Contrat_de_Stacking.sol\":759:771  tokenAddress */\n  dup2\n    /* \"Contrat_de_Stacking.sol\":759:785  tokenAddress != address(0) */\n  0xffffffffffffffffffffffffffffffffffffffff\n  and\n  sub\n    /* \"Contrat_de_Stacking.sol\":751:818  require(tokenAddress != address(0), \"Token address cannot be zero\") */\n  tag_13\n  jumpi\n  mload(0x40)\n  0x08c379a000000000000000000000000000000000000000000000000000000000\n  dup2\n  mstore\n  0x04\n  add\n  tag_14\n  swap1\n  tag_15\n  jump\t// in\ntag_14:\n  mload(0x40)\n  dup1\n  swap2\n  sub\n  swap1\n  revert\ntag_13:\n    /* \"Contrat_de_Stacking.sol\":851:863  tokenAddress */\n  dup1\n    /* \"Contrat_de_Stacking.sol\":829:841  stakingToken */\n  0x01\n  0x00\n    /* \"Contrat_de_Stacking.sol\":829:864  stakingToken = IERC20(tokenAddress) */\n  0x0100\n  exp\n  dup2\n  sload\n  dup2\n  0xffffffffffffffffffffffffffffffffffffffff\n  mul\n  not\n  and\n  swap1\n  dup4\n  0xffffffffffffffffffffffffffffffffffffffff\n  and\n  mul\n  or\n  swap1\n  sstore\n  pop\n    /* \"Contrat_de_Stacking.sol\":706:872  constructor(address tokenAddress) {... */\n  pop\n    /* \"Contrat_de_Stacking.sol\":175:2604  contract GenericStaking is Ownable(address(this)) {... */\n  jump(tag_16)\n    /* \"@openzeppelin/contracts/access/Ownable.sol\":2912:3099  function _transferOwnership(address newOwner) internal virtual {... */\ntag_11:\n    /* \"@openzeppelin/contracts/access/Ownable.sol\":2985:3001  address oldOwner */\n  0x00\n    /* \"@openzeppelin/contracts/access/Ownable.sol\":3004:3010  _owner */\n  dup1\n  0x00\n  swap1\n  sload\n  swap1\n  0x0100\n  exp\n  swap1\n  div\n  0xffffffffffffffffffffffffffffffffffffffff\n  and\n    /* \"@openzeppelin/contracts/access/Ownable.sol\":2985:3010  address oldOwner = _owner */\n  swap1\n  pop\n    /* \"@openzeppelin/contracts/access/Ownable.sol\":3029:3037  newOwner */\n  dup2\n    /* \"@openzeppelin/contracts/access/Ownable.sol\":3020:3026  _owner */\n  0x00\n  dup1\n    /* \"@openzeppelin/contracts/access/Ownable.sol\":3020:3037  _owner = newOwner */\n  0x0100\n  exp\n  dup2\n  sload\n  dup2\n  0xffffffffffffffffffffffffffffffffffffffff\n  mul\n  not\n  and\n  swap1\n  dup4\n  0xffffffffffffffffffffffffffffffffffffffff\n  and\n  mul\n  or\n  swap1\n  sstore\n  pop\n    /* \"@openzeppelin/contracts/access/Ownable.sol\":3083:3091  newOwner */\n  dup2\n    /* \"@openzeppelin/contracts/access/Ownable.sol\":3052:3092  OwnershipTransferred(oldOwner, newOwner) */\n  0xffffffffffffffffffffffffffffffffffffffff\n  and\n    /* \"@openzeppelin/contracts/access/Ownable.sol\":3073:3081  oldOwner */\n  dup2\n    /* \"@openzeppelin/contracts/access/Ownable.sol\":3052:3092  OwnershipTransferred(oldOwner, newOwner) */\n  0xffffffffffffffffffffffffffffffffffffffff\n  and\n  0x8be0079c531659141344cd1fd0a4f28419497f9722a3daafe3b4186f6b6457e0\n  mload(0x40)\n  mload(0x40)\n  dup1\n  swap2\n  sub\n  swap1\n  log3\n    /* \"@openzeppelin/contracts/access/Ownable.sol\":2975:3099  {... */\n  pop\n    /* \"@openzeppelin/contracts/access/Ownable.sol\":2912:3099  function _transferOwnership(address newOwner) internal virtual {... */\n  pop\n  jump\t// out\n    /* \"#utility.yul\":88:205   */\ntag_19:\n    /* \"#utility.yul\":197:198   */\n  0x00\n    /* \"#utility.yul\":194:195   */\n  dup1\n    /* \"#utility.yul\":187:199   */\n  revert\n    /* \"#utility.yul\":334:460   */\ntag_21:\n    /* \"#utility.yul\":371:378   */\n  0x00\n    /* \"#utility.yul\":411:453   */\n  0xffffffffffffffffffffffffffffffffffffffff\n    /* \"#utility.yul\":404:409   */\n  dup3\n    /* \"#utility.yul\":400:454   */\n  and\n    /* \"#utility.yul\":389:454   */\n  swap1\n  pop\n    /* \"#utility.yul\":334:460   */\n  swap2\n  swap1\n  pop\n  jump\t// out\n    /* \"#utility.yul\":466:562   */\ntag_22:\n    /* \"#utility.yul\":503:510   */\n  0x00\n    /* \"#utility.yul\":532:556   */\n  tag_35\n    /* \"#utility.yul\":550:555   */\n  dup3\n    /* \"#utility.yul\":532:556   */\n  tag_21\n  jump\t// in\ntag_35:\n    /* \"#utility.yul\":521:556   */\n  swap1\n  pop\n    /* \"#utility.yul\":466:562   */\n  swap2\n  swap1\n  pop\n  jump\t// out\n    /* \"#utility.yul\":568:690   */\ntag_23:\n    /* \"#utility.yul\":641:665   */\n  tag_37\n    /* \"#utility.yul\":659:664   */\n  dup2\n    /* \"#utility.yul\":641:665   */\n  tag_22\n  jump\t// in\ntag_37:\n    /* \"#utility.yul\":634:639   */\n  dup2\n    /* \"#utility.yul\":631:666   */\n  eq\n    /* \"#utility.yul\":621:684   */\n  tag_38\n  jumpi\n    /* \"#utility.yul\":680:681   */\n  0x00\n    /* \"#utility.yul\":677:678   */\n  dup1\n    /* \"#utility.yul\":670:682   */\n  revert\n    /* \"#utility.yul\":621:684   */\ntag_38:\n    /* \"#utility.yul\":568:690   */\n  pop\n  jump\t// out\n    /* \"#utility.yul\":696:839   */\ntag_24:\n    /* \"#utility.yul\":753:758   */\n  0x00\n    /* \"#utility.yul\":784:790   */\n  dup2\n    /* \"#utility.yul\":778:791   */\n  mload\n    /* \"#utility.yul\":769:791   */\n  swap1\n  pop\n    /* \"#utility.yul\":800:833   */\n  tag_40\n    /* \"#utility.yul\":827:832   */\n  dup2\n    /* \"#utility.yul\":800:833   */\n  tag_23\n  jump\t// in\ntag_40:\n    /* \"#utility.yul\":696:839   */\n  swap3\n  swap2\n  pop\n  pop\n  jump\t// out\n    /* \"#utility.yul\":845:1196   */\ntag_3:\n    /* \"#utility.yul\":915:921   */\n  0x00\n    /* \"#utility.yul\":964:966   */\n  0x20\n    /* \"#utility.yul\":952:961   */\n  dup3\n    /* \"#utility.yul\":943:950   */\n  dup5\n    /* \"#utility.yul\":939:962   */\n  sub\n    /* \"#utility.yul\":935:967   */\n  slt\n    /* \"#utility.yul\":932:1051   */\n  iszero\n  tag_42\n  jumpi\n    /* \"#utility.yul\":970:1049   */\n  tag_43\n  tag_19\n  jump\t// in\ntag_43:\n    /* \"#utility.yul\":932:1051   */\ntag_42:\n    /* \"#utility.yul\":1090:1091   */\n  0x00\n    /* \"#utility.yul\":1115:1179   */\n  tag_44\n    /* \"#utility.yul\":1171:1178   */\n  dup5\n    /* \"#utility.yul\":1162:1168   */\n  dup3\n    /* \"#utility.yul\":1151:1160   */\n  dup6\n    /* \"#utility.yul\":1147:1169   */\n  add\n    /* \"#utility.yul\":1115:1179   */\n  tag_24\n  jump\t// in\ntag_44:\n    /* \"#utility.yul\":1105:1179   */\n  swap2\n  pop\n    /* \"#utility.yul\":1061:1189   */\n  pop\n    /* \"#utility.yul\":845:1196   */\n  swap3\n  swap2\n  pop\n  pop\n  jump\t// out\n    /* \"#utility.yul\":1202:1320   */\ntag_25:\n    /* \"#utility.yul\":1289:1313   */\n  tag_46\n    /* \"#utility.yul\":1307:1312   */\n  dup2\n    /* \"#utility.yul\":1289:1313   */\n  tag_22\n  jump\t// in\ntag_46:\n    /* \"#utility.yul\":1284:1287   */\n  dup3\n    /* \"#utility.yul\":1277:1314   */\n  mstore\n    /* \"#utility.yul\":1202:1320   */\n  pop\n  pop\n  jump\t// out\n    /* \"#utility.yul\":1326:1548   */\ntag_9:\n    /* \"#utility.yul\":1419:1423   */\n  0x00\n    /* \"#utility.yul\":1457:1459   */\n  0x20\n    /* \"#utility.yul\":1446:1455   */\n  dup3\n    /* \"#utility.yul\":1442:1460   */\n  add\n    /* \"#utility.yul\":1434:1460   */\n  swap1\n  pop\n    /* \"#utility.yul\":1470:1541   */\n  tag_48\n    /* \"#utility.yul\":1538:1539   */\n  0x00\n    /* \"#utility.yul\":1527:1536   */\n  dup4\n    /* \"#utility.yul\":1523:1540   */\n  add\n    /* \"#utility.yul\":1514:1520   */\n  dup5\n    /* \"#utility.yul\":1470:1541   */\n  tag_25\n  jump\t// in\ntag_48:\n    /* \"#utility.yul\":1326:1548   */\n  swap3\n  swap2\n  pop\n  pop\n  jump\t// out\n    /* \"#utility.yul\":1554:1723   */\ntag_26:\n    /* \"#utility.yul\":1638:1649   */\n  0x00\n    /* \"#utility.yul\":1672:1678   */\n  dup3\n    /* \"#utility.yul\":1667:1670   */\n  dup3\n    /* \"#utility.yul\":1660:1679   */\n  mstore\n    /* \"#utility.yul\":1712:1716   */\n  0x20\n    /* \"#utility.yul\":1707:1710   */\n  dup3\n    /* \"#utility.yul\":1703:1717   */\n  add\n    /* \"#utility.yul\":1688:1717   */\n  swap1\n  pop\n    /* \"#utility.yul\":1554:1723   */\n  swap3\n  swap2\n  pop\n  pop\n  jump\t// out\n    /* \"#utility.yul\":1729:1907   */\ntag_27:\n    /* \"#utility.yul\":1869:1899   */\n  0x546f6b656e20616464726573732063616e6e6f74206265207a65726f00000000\n    /* \"#utility.yul\":1865:1866   */\n  0x00\n    /* \"#utility.yul\":1857:1863   */\n  dup3\n    /* \"#utility.yul\":1853:1867   */\n  add\n    /* \"#utility.yul\":1846:1900   */\n  mstore\n    /* \"#utility.yul\":1729:1907   */\n  pop\n  jump\t// out\n    /* \"#utility.yul\":1913:2279   */\ntag_28:\n    /* \"#utility.yul\":2055:2058   */\n  0x00\n    /* \"#utility.yul\":2076:2143   */\n  tag_52\n    /* \"#utility.yul\":2140:2142   */\n  0x1c\n    /* \"#utility.yul\":2135:2138   */\n  dup4\n    /* \"#utility.yul\":2076:2143   */\n  tag_26\n  jump\t// in\ntag_52:\n    /* \"#utility.yul\":2069:2143   */\n  swap2\n  pop\n    /* \"#utility.yul\":2152:2245   */\n  tag_53\n    /* \"#utility.yul\":2241:2244   */\n  dup3\n    /* \"#utility.yul\":2152:2245   */\n  tag_27\n  jump\t// in\ntag_53:\n    /* \"#utility.yul\":2270:2272   */\n  0x20\n    /* \"#utility.yul\":2265:2268   */\n  dup3\n    /* \"#utility.yul\":2261:2273   */\n  add\n    /* \"#utility.yul\":2254:2273   */\n  swap1\n  pop\n    /* \"#utility.yul\":1913:2279   */\n  swap2\n  swap1\n  pop\n  jump\t// out\n    /* \"#utility.yul\":2285:2704   */\ntag_15:\n    /* \"#utility.yul\":2451:2455   */\n  0x00\n    /* \"#utility.yul\":2489:2491   */\n  0x20\n    /* \"#utility.yul\":2478:2487   */\n  dup3\n    /* \"#utility.yul\":2474:2492   */\n  add\n    /* \"#utility.yul\":2466:2492   */\n  swap1\n  pop\n    /* \"#utility.yul\":2538:2547   */\n  dup2\n    /* \"#utility.yul\":2532:2536   */\n  dup2\n    /* \"#utility.yul\":2528:2548   */\n  sub\n    /* \"#utility.yul\":2524:2525   */\n  0x00\n    /* \"#utility.yul\":2513:2522   */\n  dup4\n    /* \"#utility.yul\":2509:2526   */\n  add\n    /* \"#utility.yul\":2502:2549   */\n  mstore\n    /* \"#utility.yul\":2566:2697   */\n  tag_55\n    /* \"#utility.yul\":2692:2696   */\n  dup2\n    /* \"#utility.yul\":2566:2697   */\n  tag_28\n  jump\t// in\ntag_55:\n    /* \"#utility.yul\":2558:2697   */\n  swap1\n  pop\n    /* \"#utility.yul\":2285:2704   */\n  swap2\n  swap1\n  pop\n  jump\t// out\n    /* \"Contrat_de_Stacking.sol\":175:2604  contract GenericStaking is Ownable(address(this)) {... */\ntag_16:\n  dataSize(sub_0)\n  dup1\n  dataOffset(sub_0)\n  0x00\n  codecopy\n  0x00\n  return\nstop\n\nsub_0: assembly {\n        /* \"Contrat_de_Stacking.sol\":175:2604  contract GenericStaking is Ownable(address(this)) {... */\n      mstore(0x40, 0x80)\n      callvalue\n      dup1\n      iszero\n      tag_1\n      jumpi\n      0x00\n      dup1\n      revert\n    tag_1:\n      pop\n      jumpi(tag_2, lt(calldatasize, 0x04))\n      shr(0xe0, calldataload(0x00))\n      dup1\n      0x8da5cb5b\n      gt\n      tag_11\n      jumpi\n      dup1\n      0x8da5cb5b\n      eq\n      tag_7\n      jumpi\n      dup1\n      0xa694fc3a\n      eq\n      tag_8\n      jumpi\n      dup1\n      0xf2fde38b\n      eq\n      tag_9\n      jumpi\n      dup1\n      0xf41322ac\n      eq\n      tag_10\n      jumpi\n      jump(tag_2)\n    tag_11:\n      dup1\n      0x16934fc4\n      eq\n      tag_3\n      jumpi\n      dup1\n      0x2def6620\n      eq\n      tag_4\n      jumpi\n      dup1\n      0x715018a6\n      eq\n      tag_5\n      jumpi\n      dup1\n      0x72f702f3\n      eq\n      tag_6\n      jumpi\n    tag_2:\n      0x00\n      dup1\n      revert\n        /* \"Contrat_de_Stacking.sol\":417:456  mapping(address => Stake) public stakes */\n    tag_3:\n      tag_12\n      0x04\n      dup1\n      calldatasize\n      sub\n      dup2\n      add\n      swap1\n      tag_13\n      swap2\n      swap1\n      tag_14\n      jump\t// in\n    tag_13:\n      tag_15\n      jump\t// in\n    tag_12:\n      mload(0x40)\n      tag_16\n      swap3\n      swap2\n      swap1\n      tag_17\n      jump\t// in\n    tag_16:\n      mload(0x40)\n      dup1\n      swap2\n      sub\n      swap1\n      return\n        /* \"Contrat_de_Stacking.sol\":1572:2140  function unstake() external {... */\n    tag_4:\n      tag_18\n      tag_19\n      jump\t// in\n    tag_18:\n      stop\n        /* \"@openzeppelin/contracts/access/Ownable.sol\":2293:2394  function renounceOwnership() public virtual onlyOwner {... */\n    tag_5:\n      tag_20\n      tag_21\n      jump\t// in\n    tag_20:\n      stop\n        /* \"Contrat_de_Stacking.sol\":232:258  IERC20 public stakingToken */\n    tag_6:\n      tag_22\n      tag_23\n      jump\t// in\n    tag_22:\n      mload(0x40)\n      tag_24\n      swap2\n      swap1\n      tag_25\n      jump\t// in\n    tag_24:\n      mload(0x40)\n      dup1\n      swap2\n      sub\n      swap1\n      return\n        /* \"@openzeppelin/contracts/access/Ownable.sol\":1638:1723  function owner() public view virtual returns (address) {... */\n    tag_7:\n      tag_26\n      tag_27\n      jump\t// in\n    tag_26:\n      mload(0x40)\n      tag_28\n      swap2\n      swap1\n      tag_29\n      jump\t// in\n    tag_28:\n      mload(0x40)\n      dup1\n      swap2\n      sub\n      swap1\n      return\n        /* \"Contrat_de_Stacking.sol\":984:1503  function stake(uint256 amount) external {... */\n    tag_8:\n      tag_30\n      0x04\n      dup1\n      calldatasize\n      sub\n      dup2\n      add\n      swap1\n      tag_31\n      swap2\n      swap1\n      tag_32\n      jump\t// in\n    tag_31:\n      tag_33\n      jump\t// in\n    tag_30:\n      stop\n        /* \"@openzeppelin/contracts/access/Ownable.sol\":2543:2758  function transferOwnership(address newOwner) public virtual onlyOwner {... */\n    tag_9:\n      tag_34\n      0x04\n      dup1\n      calldatasize\n      sub\n      dup2\n      add\n      swap1\n      tag_35\n      swap2\n      swap1\n      tag_14\n      jump\t// in\n    tag_35:\n      tag_36\n      jump\t// in\n    tag_34:\n      stop\n        /* \"Contrat_de_Stacking.sol\":2359:2601  function getStakeDetails(address user)... */\n    tag_10:\n      tag_37\n      0x04\n      dup1\n      calldatasize\n      sub\n      dup2\n      add\n      swap1\n      tag_38\n      swap2\n      swap1\n      tag_14\n      jump\t// in\n    tag_38:\n      tag_39\n      jump\t// in\n    tag_37:\n      mload(0x40)\n      tag_40\n      swap3\n      swap2\n      swap1\n      tag_17\n      jump\t// in\n    tag_40:\n      mload(0x40)\n      dup1\n      swap2\n      sub\n      swap1\n      return\n        /* \"Contrat_de_Stacking.sol\":417:456  mapping(address => Stake) public stakes */\n    tag_15:\n      mstore(0x20, 0x02)\n      dup1\n      0x00\n      mstore\n      keccak256(0x00, 0x40)\n      0x00\n      swap2\n      pop\n      swap1\n      pop\n      dup1\n      0x00\n      add\n      sload\n      swap1\n      dup1\n      0x01\n      add\n      sload\n      swap1\n      pop\n      dup3\n      jump\t// out\n        /* \"Contrat_de_Stacking.sol\":1572:2140  function unstake() external {... */\n    tag_19:\n        /* \"Contrat_de_Stacking.sol\":1611:1633  Stake memory userStake */\n      0x00\n        /* \"Contrat_de_Stacking.sol\":1636:1642  stakes */\n      0x02\n        /* \"Contrat_de_Stacking.sol\":1636:1654  stakes[msg.sender] */\n      0x00\n        /* \"Contrat_de_Stacking.sol\":1643:1653  msg.sender */\n      caller\n        /* \"Contrat_de_Stacking.sol\":1636:1654  stakes[msg.sender] */\n      0xffffffffffffffffffffffffffffffffffffffff\n      and\n      0xffffffffffffffffffffffffffffffffffffffff\n      and\n      dup2\n      mstore\n      0x20\n      add\n      swap1\n      dup2\n      mstore\n      0x20\n      add\n      0x00\n      keccak256\n        /* \"Contrat_de_Stacking.sol\":1611:1654  Stake memory userStake = stakes[msg.sender] */\n      mload(0x40)\n      dup1\n      0x40\n      add\n      0x40\n      mstore\n      swap1\n      dup2\n      0x00\n      dup3\n      add\n      sload\n      dup2\n      mstore\n      0x20\n      add\n      0x01\n      dup3\n      add\n      sload\n      dup2\n      mstore\n      pop\n      pop\n      swap1\n      pop\n        /* \"Contrat_de_Stacking.sol\":1692:1693  0 */\n      0x00\n        /* \"Contrat_de_Stacking.sol\":1673:1682  userStake */\n      dup2\n        /* \"Contrat_de_Stacking.sol\":1673:1689  userStake.amount */\n      0x00\n      add\n      mload\n        /* \"Contrat_de_Stacking.sol\":1673:1693  userStake.amount > 0 */\n      gt\n        /* \"Contrat_de_Stacking.sol\":1665:1718  require(userStake.amount > 0, \"No tokens to unstake\") */\n      tag_42\n      jumpi\n      mload(0x40)\n      0x08c379a000000000000000000000000000000000000000000000000000000000\n      dup2\n      mstore\n      0x04\n      add\n      tag_43\n      swap1\n      tag_44\n      jump\t// in\n    tag_43:\n      mload(0x40)\n      dup1\n      swap2\n      sub\n      swap1\n      revert\n    tag_42:\n        /* \"Contrat_de_Stacking.sol\":1731:1754  uint256 amountToUnstake */\n      0x00\n        /* \"Contrat_de_Stacking.sol\":1757:1766  userStake */\n      dup2\n        /* \"Contrat_de_Stacking.sol\":1757:1773  userStake.amount */\n      0x00\n      add\n      mload\n        /* \"Contrat_de_Stacking.sol\":1731:1773  uint256 amountToUnstake = userStake.amount */\n      swap1\n      pop\n        /* \"Contrat_de_Stacking.sol\":1854:1855  0 */\n      0x00\n        /* \"Contrat_de_Stacking.sol\":1826:1832  stakes */\n      0x02\n        /* \"Contrat_de_Stacking.sol\":1826:1844  stakes[msg.sender] */\n      0x00\n        /* \"Contrat_de_Stacking.sol\":1833:1843  msg.sender */\n      caller\n        /* \"Contrat_de_Stacking.sol\":1826:1844  stakes[msg.sender] */\n      0xffffffffffffffffffffffffffffffffffffffff\n      and\n      0xffffffffffffffffffffffffffffffffffffffff\n      and\n      dup2\n      mstore\n      0x20\n      add\n      swap1\n      dup2\n      mstore\n      0x20\n      add\n      0x00\n      keccak256\n        /* \"Contrat_de_Stacking.sol\":1826:1851  stakes[msg.sender].amount */\n      0x00\n      add\n        /* \"Contrat_de_Stacking.sol\":1826:1855  stakes[msg.sender].amount = 0 */\n      dup2\n      swap1\n      sstore\n      pop\n        /* \"Contrat_de_Stacking.sol\":1897:1898  0 */\n      0x00\n        /* \"Contrat_de_Stacking.sol\":1866:1872  stakes */\n      0x02\n        /* \"Contrat_de_Stacking.sol\":1866:1884  stakes[msg.sender] */\n      0x00\n        /* \"Contrat_de_Stacking.sol\":1873:1883  msg.sender */\n      caller\n        /* \"Contrat_de_Stacking.sol\":1866:1884  stakes[msg.sender] */\n      0xffffffffffffffffffffffffffffffffffffffff\n      and\n      0xffffffffffffffffffffffffffffffffffffffff\n      and\n      dup2\n      mstore\n      0x20\n      add\n      swap1\n      dup2\n      mstore\n      0x20\n      add\n      0x00\n      keccak256\n        /* \"Contrat_de_Stacking.sol\":1866:1894  stakes[msg.sender].timestamp */\n      0x01\n      add\n        /* \"Contrat_de_Stacking.sol\":1866:1898  stakes[msg.sender].timestamp = 0 */\n      dup2\n      swap1\n      sstore\n      pop\n        /* \"Contrat_de_Stacking.sol\":1978:1990  stakingToken */\n      0x01\n      0x00\n      swap1\n      sload\n      swap1\n      0x0100\n      exp\n      swap1\n      div\n      0xffffffffffffffffffffffffffffffffffffffff\n      and\n        /* \"Contrat_de_Stacking.sol\":1978:1999  stakingToken.transfer */\n      0xffffffffffffffffffffffffffffffffffffffff\n      and\n      0xa9059cbb\n        /* \"Contrat_de_Stacking.sol\":2000:2010  msg.sender */\n      caller\n        /* \"Contrat_de_Stacking.sol\":2012:2027  amountToUnstake */\n      dup4\n        /* \"Contrat_de_Stacking.sol\":1978:2028  stakingToken.transfer(msg.sender, amountToUnstake) */\n      mload(0x40)\n      dup4\n      0xffffffff\n      and\n      0xe0\n      shl\n      dup2\n      mstore\n      0x04\n      add\n      tag_45\n      swap3\n      swap2\n      swap1\n      tag_46\n      jump\t// in\n    tag_45:\n      0x20\n      mload(0x40)\n      dup1\n      dup4\n      sub\n      dup2\n      0x00\n      dup8\n      gas\n      call\n      iszero\n      dup1\n      iszero\n      tag_48\n      jumpi\n      returndatasize\n      0x00\n      dup1\n      returndatacopy\n      revert(0x00, returndatasize)\n    tag_48:\n      pop\n      pop\n      pop\n      pop\n      mload(0x40)\n      returndatasize\n      not(0x1f)\n      0x1f\n      dup3\n      add\n      and\n      dup3\n      add\n      dup1\n      0x40\n      mstore\n      pop\n      dup2\n      add\n      swap1\n      tag_49\n      swap2\n      swap1\n      tag_50\n      jump\t// in\n    tag_49:\n        /* \"Contrat_de_Stacking.sol\":1956:2077  require(... */\n      tag_51\n      jumpi\n      mload(0x40)\n      0x08c379a000000000000000000000000000000000000000000000000000000000\n      dup2\n      mstore\n      0x04\n      add\n      tag_52\n      swap1\n      tag_53\n      jump\t// in\n    tag_52:\n      mload(0x40)\n      dup1\n      swap2\n      sub\n      swap1\n      revert\n    tag_51:\n        /* \"Contrat_de_Stacking.sol\":2104:2114  msg.sender */\n      caller\n        /* \"Contrat_de_Stacking.sol\":2095:2132  Unstaked(msg.sender, amountToUnstake) */\n      0xffffffffffffffffffffffffffffffffffffffff\n      and\n      0x0f5bb82176feb1b5e747e28471aa92156a04d9f3ab9f45f28e2d704232b93f75\n        /* \"Contrat_de_Stacking.sol\":2116:2131  amountToUnstake */\n      dup3\n        /* \"Contrat_de_Stacking.sol\":2095:2132  Unstaked(msg.sender, amountToUnstake) */\n      mload(0x40)\n      tag_54\n      swap2\n      swap1\n      tag_55\n      jump\t// in\n    tag_54:\n      mload(0x40)\n      dup1\n      swap2\n      sub\n      swap1\n      log2\n        /* \"Contrat_de_Stacking.sol\":1600:2140  {... */\n      pop\n      pop\n        /* \"Contrat_de_Stacking.sol\":1572:2140  function unstake() external {... */\n      jump\t// out\n        /* \"@openzeppelin/contracts/access/Ownable.sol\":2293:2394  function renounceOwnership() public virtual onlyOwner {... */\n    tag_21:\n        /* \"@openzeppelin/contracts/access/Ownable.sol\":1531:1544  _checkOwner() */\n      tag_57\n        /* \"@openzeppelin/contracts/access/Ownable.sol\":1531:1542  _checkOwner */\n      tag_58\n        /* \"@openzeppelin/contracts/access/Ownable.sol\":1531:1544  _checkOwner() */\n      jump\t// in\n    tag_57:\n        /* \"@openzeppelin/contracts/access/Ownable.sol\":2357:2387  _transferOwnership(address(0)) */\n      tag_60\n        /* \"@openzeppelin/contracts/access/Ownable.sol\":2384:2385  0 */\n      0x00\n        /* \"@openzeppelin/contracts/access/Ownable.sol\":2357:2375  _transferOwnership */\n      tag_61\n        /* \"@openzeppelin/contracts/access/Ownable.sol\":2357:2387  _transferOwnership(address(0)) */\n      jump\t// in\n    tag_60:\n        /* \"@openzeppelin/contracts/access/Ownable.sol\":2293:2394  function renounceOwnership() public virtual onlyOwner {... */\n      jump\t// out\n        /* \"Contrat_de_Stacking.sol\":232:258  IERC20 public stakingToken */\n    tag_23:\n      0x01\n      0x00\n      swap1\n      sload\n      swap1\n      0x0100\n      exp\n      swap1\n      div\n      0xffffffffffffffffffffffffffffffffffffffff\n      and\n      dup2\n      jump\t// out\n        /* \"@openzeppelin/contracts/access/Ownable.sol\":1638:1723  function owner() public view virtual returns (address) {... */\n    tag_27:\n        /* \"@openzeppelin/contracts/access/Ownable.sol\":1684:1691  address */\n      0x00\n        /* \"@openzeppelin/contracts/access/Ownable.sol\":1710:1716  _owner */\n      dup1\n      0x00\n      swap1\n      sload\n      swap1\n      0x0100\n      exp\n      swap1\n      div\n      0xffffffffffffffffffffffffffffffffffffffff\n      and\n        /* \"@openzeppelin/contracts/access/Ownable.sol\":1703:1716  return _owner */\n      swap1\n      pop\n        /* \"@openzeppelin/contracts/access/Ownable.sol\":1638:1723  function owner() public view virtual returns (address) {... */\n      swap1\n      jump\t// out\n        /* \"Contrat_de_Stacking.sol\":984:1503  function stake(uint256 amount) external {... */\n    tag_33:\n        /* \"Contrat_de_Stacking.sol\":1052:1053  0 */\n      0x00\n        /* \"Contrat_de_Stacking.sol\":1043:1049  amount */\n      dup2\n        /* \"Contrat_de_Stacking.sol\":1043:1053  amount > 0 */\n      gt\n        /* \"Contrat_de_Stacking.sol\":1035:1087  require(amount > 0, \"Amount must be greater than 0\") */\n      tag_64\n      jumpi\n      mload(0x40)\n      0x08c379a000000000000000000000000000000000000000000000000000000000\n      dup2\n      mstore\n      0x04\n      add\n      tag_65\n      swap1\n      tag_66\n      jump\t// in\n    tag_65:\n      mload(0x40)\n      dup1\n      swap2\n      sub\n      swap1\n      revert\n    tag_64:\n        /* \"Contrat_de_Stacking.sol\":1190:1202  stakingToken */\n      0x01\n      0x00\n      swap1\n      sload\n      swap1\n      0x0100\n      exp\n      swap1\n      div\n      0xffffffffffffffffffffffffffffffffffffffff\n      and\n        /* \"Contrat_de_Stacking.sol\":1190:1215  stakingToken.transferFrom */\n      0xffffffffffffffffffffffffffffffffffffffff\n      and\n      0x23b872dd\n        /* \"Contrat_de_Stacking.sol\":1216:1226  msg.sender */\n      caller\n        /* \"Contrat_de_Stacking.sol\":1236:1240  this */\n      address\n        /* \"Contrat_de_Stacking.sol\":1243:1249  amount */\n      dup5\n        /* \"Contrat_de_Stacking.sol\":1190:1250  stakingToken.transferFrom(msg.sender, address(this), amount) */\n      mload(0x40)\n      dup5\n      0xffffffff\n      and\n      0xe0\n      shl\n      dup2\n      mstore\n      0x04\n      add\n      tag_67\n      swap4\n      swap3\n      swap2\n      swap1\n      tag_68\n      jump\t// in\n    tag_67:\n      0x20\n      mload(0x40)\n      dup1\n      dup4\n      sub\n      dup2\n      0x00\n      dup8\n      gas\n      call\n      iszero\n      dup1\n      iszero\n      tag_70\n      jumpi\n      returndatasize\n      0x00\n      dup1\n      returndatacopy\n      revert(0x00, returndatasize)\n    tag_70:\n      pop\n      pop\n      pop\n      pop\n      mload(0x40)\n      returndatasize\n      not(0x1f)\n      0x1f\n      dup3\n      add\n      and\n      dup3\n      add\n      dup1\n      0x40\n      mstore\n      pop\n      dup2\n      add\n      swap1\n      tag_71\n      swap2\n      swap1\n      tag_50\n      jump\t// in\n    tag_71:\n        /* \"Contrat_de_Stacking.sol\":1168:1299  require(... */\n      tag_72\n      jumpi\n      mload(0x40)\n      0x08c379a000000000000000000000000000000000000000000000000000000000\n      dup2\n      mstore\n      0x04\n      add\n      tag_73\n      swap1\n      tag_53\n      jump\t// in\n    tag_73:\n      mload(0x40)\n      dup1\n      swap2\n      sub\n      swap1\n      revert\n    tag_72:\n        /* \"Contrat_de_Stacking.sol\":1388:1394  amount */\n      dup1\n        /* \"Contrat_de_Stacking.sol\":1359:1365  stakes */\n      0x02\n        /* \"Contrat_de_Stacking.sol\":1359:1377  stakes[msg.sender] */\n      0x00\n        /* \"Contrat_de_Stacking.sol\":1366:1376  msg.sender */\n      caller\n        /* \"Contrat_de_Stacking.sol\":1359:1377  stakes[msg.sender] */\n      0xffffffffffffffffffffffffffffffffffffffff\n      and\n      0xffffffffffffffffffffffffffffffffffffffff\n      and\n      dup2\n      mstore\n      0x20\n      add\n      swap1\n      dup2\n      mstore\n      0x20\n      add\n      0x00\n      keccak256\n        /* \"Contrat_de_Stacking.sol\":1359:1384  stakes[msg.sender].amount */\n      0x00\n      add\n      0x00\n        /* \"Contrat_de_Stacking.sol\":1359:1394  stakes[msg.sender].amount += amount */\n      dup3\n      dup3\n      sload\n      tag_74\n      swap2\n      swap1\n      tag_75\n      jump\t// in\n    tag_74:\n      swap3\n      pop\n      pop\n      dup2\n      swap1\n      sstore\n      pop\n        /* \"Contrat_de_Stacking.sol\":1436:1451  block.timestamp */\n      timestamp\n        /* \"Contrat_de_Stacking.sol\":1405:1411  stakes */\n      0x02\n        /* \"Contrat_de_Stacking.sol\":1405:1423  stakes[msg.sender] */\n      0x00\n        /* \"Contrat_de_Stacking.sol\":1412:1422  msg.sender */\n      caller\n        /* \"Contrat_de_Stacking.sol\":1405:1423  stakes[msg.sender] */\n      0xffffffffffffffffffffffffffffffffffffffff\n      and\n      0xffffffffffffffffffffffffffffffffffffffff\n      and\n      dup2\n      mstore\n      0x20\n      add\n      swap1\n      dup2\n      mstore\n      0x20\n      add\n      0x00\n      keccak256\n        /* \"Contrat_de_Stacking.sol\":1405:1433  stakes[msg.sender].timestamp */\n      0x01\n      add\n        /* \"Contrat_de_Stacking.sol\":1405:1451  stakes[msg.sender].timestamp = block.timestamp */\n      dup2\n      swap1\n      sstore\n      pop\n        /* \"Contrat_de_Stacking.sol\":1476:1486  msg.sender */\n      caller\n        /* \"Contrat_de_Stacking.sol\":1469:1495  Staked(msg.sender, amount) */\n      0xffffffffffffffffffffffffffffffffffffffff\n      and\n      0x9e71bc8eea02a63969f509818f2dafb9254532904319f9dbda79b67bd34a5f3d\n        /* \"Contrat_de_Stacking.sol\":1488:1494  amount */\n      dup3\n        /* \"Contrat_de_Stacking.sol\":1469:1495  Staked(msg.sender, amount) */\n      mload(0x40)\n      tag_76\n      swap2\n      swap1\n      tag_55\n      jump\t// in\n    tag_76:\n      mload(0x40)\n      dup1\n      swap2\n      sub\n      swap1\n      log2\n        /* \"Contrat_de_Stacking.sol\":984:1503  function stake(uint256 amount) external {... */\n      pop\n      jump\t// out\n        /* \"@openzeppelin/contracts/access/Ownable.sol\":2543:2758  function transferOwnership(address newOwner) public virtual onlyOwner {... */\n    tag_36:\n        /* \"@openzeppelin/contracts/access/Ownable.sol\":1531:1544  _checkOwner() */\n      tag_78\n        /* \"@openzeppelin/contracts/access/Ownable.sol\":1531:1542  _checkOwner */\n      tag_58\n        /* \"@openzeppelin/contracts/access/Ownable.sol\":1531:1544  _checkOwner() */\n      jump\t// in\n    tag_78:\n        /* \"@openzeppelin/contracts/access/Ownable.sol\":2647:2648  0 */\n      0x00\n        /* \"@openzeppelin/contracts/access/Ownable.sol\":2627:2649  newOwner == address(0) */\n      0xffffffffffffffffffffffffffffffffffffffff\n      and\n        /* \"@openzeppelin/contracts/access/Ownable.sol\":2627:2635  newOwner */\n      dup2\n        /* \"@openzeppelin/contracts/access/Ownable.sol\":2627:2649  newOwner == address(0) */\n      0xffffffffffffffffffffffffffffffffffffffff\n      and\n      sub\n        /* \"@openzeppelin/contracts/access/Ownable.sol\":2623:2714  if (newOwner == address(0)) {... */\n      tag_80\n      jumpi\n        /* \"@openzeppelin/contracts/access/Ownable.sol\":2700:2701  0 */\n      0x00\n        /* \"@openzeppelin/contracts/access/Ownable.sol\":2672:2703  OwnableInvalidOwner(address(0)) */\n      mload(0x40)\n      0x1e4fbdf700000000000000000000000000000000000000000000000000000000\n      dup2\n      mstore\n      0x04\n      add\n      tag_81\n      swap2\n      swap1\n      tag_29\n      jump\t// in\n    tag_81:\n      mload(0x40)\n      dup1\n      swap2\n      sub\n      swap1\n      revert\n        /* \"@openzeppelin/contracts/access/Ownable.sol\":2623:2714  if (newOwner == address(0)) {... */\n    tag_80:\n        /* \"@openzeppelin/contracts/access/Ownable.sol\":2723:2751  _transferOwnership(newOwner) */\n      tag_82\n        /* \"@openzeppelin/contracts/access/Ownable.sol\":2742:2750  newOwner */\n      dup2\n        /* \"@openzeppelin/contracts/access/Ownable.sol\":2723:2741  _transferOwnership */\n      tag_61\n        /* \"@openzeppelin/contracts/access/Ownable.sol\":2723:2751  _transferOwnership(newOwner) */\n      jump\t// in\n    tag_82:\n        /* \"@openzeppelin/contracts/access/Ownable.sol\":2543:2758  function transferOwnership(address newOwner) public virtual onlyOwner {... */\n      pop\n      jump\t// out\n        /* \"Contrat_de_Stacking.sol\":2359:2601  function getStakeDetails(address user)... */\n    tag_39:\n        /* \"Contrat_de_Stacking.sol\":2448:2462  uint256 amount */\n      0x00\n        /* \"Contrat_de_Stacking.sol\":2464:2481  uint256 timestamp */\n      dup1\n        /* \"Contrat_de_Stacking.sol\":2499:2521  Stake memory userStake */\n      0x00\n        /* \"Contrat_de_Stacking.sol\":2524:2530  stakes */\n      0x02\n        /* \"Contrat_de_Stacking.sol\":2524:2536  stakes[user] */\n      0x00\n        /* \"Contrat_de_Stacking.sol\":2531:2535  user */\n      dup6\n        /* \"Contrat_de_Stacking.sol\":2524:2536  stakes[user] */\n      0xffffffffffffffffffffffffffffffffffffffff\n      and\n      0xffffffffffffffffffffffffffffffffffffffff\n      and\n      dup2\n      mstore\n      0x20\n      add\n      swap1\n      dup2\n      mstore\n      0x20\n      add\n      0x00\n      keccak256\n        /* \"Contrat_de_Stacking.sol\":2499:2536  Stake memory userStake = stakes[user] */\n      mload(0x40)\n      dup1\n      0x40\n      add\n      0x40\n      mstore\n      swap1\n      dup2\n      0x00\n      dup3\n      add\n      sload\n      dup2\n      mstore\n      0x20\n      add\n      0x01\n      dup3\n      add\n      sload\n      dup2\n      mstore\n      pop\n      pop\n      swap1\n      pop\n        /* \"Contrat_de_Stacking.sol\":2555:2564  userStake */\n      dup1\n        /* \"Contrat_de_Stacking.sol\":2555:2571  userStake.amount */\n      0x00\n      add\n      mload\n        /* \"Contrat_de_Stacking.sol\":2573:2582  userStake */\n      dup2\n        /* \"Contrat_de_Stacking.sol\":2573:2592  userStake.timestamp */\n      0x20\n      add\n      mload\n        /* \"Contrat_de_Stacking.sol\":2547:2593  return (userStake.amount, userStake.timestamp) */\n      swap3\n      pop\n      swap3\n      pop\n      pop\n        /* \"Contrat_de_Stacking.sol\":2359:2601  function getStakeDetails(address user)... */\n      swap2\n      pop\n      swap2\n      jump\t// out\n        /* \"@openzeppelin/contracts/access/Ownable.sol\":1796:1958  function _checkOwner() internal view virtual {... */\n    tag_58:\n        /* \"@openzeppelin/contracts/access/Ownable.sol\":1866:1878  _msgSender() */\n      tag_85\n        /* \"@openzeppelin/contracts/access/Ownable.sol\":1866:1876  _msgSender */\n      tag_86\n        /* \"@openzeppelin/contracts/access/Ownable.sol\":1866:1878  _msgSender() */\n      jump\t// in\n    tag_85:\n        /* \"@openzeppelin/contracts/access/Ownable.sol\":1855:1878  owner() != _msgSender() */\n      0xffffffffffffffffffffffffffffffffffffffff\n      and\n        /* \"@openzeppelin/contracts/access/Ownable.sol\":1855:1862  owner() */\n      tag_87\n        /* \"@openzeppelin/contracts/access/Ownable.sol\":1855:1860  owner */\n      tag_27\n        /* \"@openzeppelin/contracts/access/Ownable.sol\":1855:1862  owner() */\n      jump\t// in\n    tag_87:\n        /* \"@openzeppelin/contracts/access/Ownable.sol\":1855:1878  owner() != _msgSender() */\n      0xffffffffffffffffffffffffffffffffffffffff\n      and\n      eq\n        /* \"@openzeppelin/contracts/access/Ownable.sol\":1851:1952  if (owner() != _msgSender()) {... */\n      tag_88\n      jumpi\n        /* \"@openzeppelin/contracts/access/Ownable.sol\":1928:1940  _msgSender() */\n      tag_89\n        /* \"@openzeppelin/contracts/access/Ownable.sol\":1928:1938  _msgSender */\n      tag_86\n        /* \"@openzeppelin/contracts/access/Ownable.sol\":1928:1940  _msgSender() */\n      jump\t// in\n    tag_89:\n        /* \"@openzeppelin/contracts/access/Ownable.sol\":1901:1941  OwnableUnauthorizedAccount(_msgSender()) */\n      mload(0x40)\n      0x118cdaa700000000000000000000000000000000000000000000000000000000\n      dup2\n      mstore\n      0x04\n      add\n      tag_90\n      swap2\n      swap1\n      tag_29\n      jump\t// in\n    tag_90:\n      mload(0x40)\n      dup1\n      swap2\n      sub\n      swap1\n      revert\n        /* \"@openzeppelin/contracts/access/Ownable.sol\":1851:1952  if (owner() != _msgSender()) {... */\n    tag_88:\n        /* \"@openzeppelin/contracts/access/Ownable.sol\":1796:1958  function _checkOwner() internal view virtual {... */\n      jump\t// out\n        /* \"@openzeppelin/contracts/access/Ownable.sol\":2912:3099  function _transferOwnership(address newOwner) internal virtual {... */\n    tag_61:\n        /* \"@openzeppelin/contracts/access/Ownable.sol\":2985:3001  address oldOwner */\n      0x00\n        /* \"@openzeppelin/contracts/access/Ownable.sol\":3004:3010  _owner */\n      dup1\n      0x00\n      swap1\n      sload\n      swap1\n      0x0100\n      exp\n      swap1\n      div\n      0xffffffffffffffffffffffffffffffffffffffff\n      and\n        /* \"@openzeppelin/contracts/access/Ownable.sol\":2985:3010  address oldOwner = _owner */\n      swap1\n      pop\n        /* \"@openzeppelin/contracts/access/Ownable.sol\":3029:3037  newOwner */\n      dup2\n        /* \"@openzeppelin/contracts/access/Ownable.sol\":3020:3026  _owner */\n      0x00\n      dup1\n        /* \"@openzeppelin/contracts/access/Ownable.sol\":3020:3037  _owner = newOwner */\n      0x0100\n      exp\n      dup2\n      sload\n      dup2\n      0xffffffffffffffffffffffffffffffffffffffff\n      mul\n      not\n      and\n      swap1\n      dup4\n      0xffffffffffffffffffffffffffffffffffffffff\n      and\n      mul\n      or\n      swap1\n      sstore\n      pop\n        /* \"@openzeppelin/contracts/access/Ownable.sol\":3083:3091  newOwner */\n      dup2\n        /* \"@openzeppelin/contracts/access/Ownable.sol\":3052:3092  OwnershipTransferred(oldOwner, newOwner) */\n      0xffffffffffffffffffffffffffffffffffffffff\n      and\n        /* \"@openzeppelin/contracts/access/Ownable.sol\":3073:3081  oldOwner */\n      dup2\n        /* \"@openzeppelin/contracts/access/Ownable.sol\":3052:3092  OwnershipTransferred(oldOwner, newOwner) */\n      0xffffffffffffffffffffffffffffffffffffffff\n      and\n      0x8be0079c531659141344cd1fd0a4f28419497f9722a3daafe3b4186f6b6457e0\n      mload(0x40)\n      mload(0x40)\n      dup1\n      swap2\n      sub\n      swap1\n      log3\n        /* \"@openzeppelin/contracts/access/Ownable.sol\":2975:3099  {... */\n      pop\n        /* \"@openzeppelin/contracts/access/Ownable.sol\":2912:3099  function _transferOwnership(address newOwner) internal virtual {... */\n      pop\n      jump\t// out\n        /* \"@openzeppelin/contracts/utils/Context.sol\":656:752  function _msgSender() internal view virtual returns (address) {... */\n    tag_86:\n        /* \"@openzeppelin/contracts/utils/Context.sol\":709:716  address */\n      0x00\n        /* \"@openzeppelin/contracts/utils/Context.sol\":735:745  msg.sender */\n      caller\n        /* \"@openzeppelin/contracts/utils/Context.sol\":728:745  return msg.sender */\n      swap1\n      pop\n        /* \"@openzeppelin/contracts/utils/Context.sol\":656:752  function _msgSender() internal view virtual returns (address) {... */\n      swap1\n      jump\t// out\n        /* \"#utility.yul\":88:205   */\n    tag_94:\n        /* \"#utility.yul\":197:198   */\n      0x00\n        /* \"#utility.yul\":194:195   */\n      dup1\n        /* \"#utility.yul\":187:199   */\n      revert\n        /* \"#utility.yul\":334:460   */\n    tag_96:\n        /* \"#utility.yul\":371:378   */\n      0x00\n        /* \"#utility.yul\":411:453   */\n      0xffffffffffffffffffffffffffffffffffffffff\n        /* \"#utility.yul\":404:409   */\n      dup3\n        /* \"#utility.yul\":400:454   */\n      and\n        /* \"#utility.yul\":389:454   */\n      swap1\n      pop\n        /* \"#utility.yul\":334:460   */\n      swap2\n      swap1\n      pop\n      jump\t// out\n        /* \"#utility.yul\":466:562   */\n    tag_97:\n        /* \"#utility.yul\":503:510   */\n      0x00\n        /* \"#utility.yul\":532:556   */\n      tag_127\n        /* \"#utility.yul\":550:555   */\n      dup3\n        /* \"#utility.yul\":532:556   */\n      tag_96\n      jump\t// in\n    tag_127:\n        /* \"#utility.yul\":521:556   */\n      swap1\n      pop\n        /* \"#utility.yul\":466:562   */\n      swap2\n      swap1\n      pop\n      jump\t// out\n        /* \"#utility.yul\":568:690   */\n    tag_98:\n        /* \"#utility.yul\":641:665   */\n      tag_129\n        /* \"#utility.yul\":659:664   */\n      dup2\n        /* \"#utility.yul\":641:665   */\n      tag_97\n      jump\t// in\n    tag_129:\n        /* \"#utility.yul\":634:639   */\n      dup2\n        /* \"#utility.yul\":631:666   */\n      eq\n        /* \"#utility.yul\":621:684   */\n      tag_130\n      jumpi\n        /* \"#utility.yul\":680:681   */\n      0x00\n        /* \"#utility.yul\":677:678   */\n      dup1\n        /* \"#utility.yul\":670:682   */\n      revert\n        /* \"#utility.yul\":621:684   */\n    tag_130:\n        /* \"#utility.yul\":568:690   */\n      pop\n      jump\t// out\n        /* \"#utility.yul\":696:835   */\n    tag_99:\n        /* \"#utility.yul\":742:747   */\n      0x00\n        /* \"#utility.yul\":780:786   */\n      dup2\n        /* \"#utility.yul\":767:787   */\n      calldataload\n        /* \"#utility.yul\":758:787   */\n      swap1\n      pop\n        /* \"#utility.yul\":796:829   */\n      tag_132\n        /* \"#utility.yul\":823:828   */\n      dup2\n        /* \"#utility.yul\":796:829   */\n      tag_98\n      jump\t// in\n    tag_132:\n        /* \"#utility.yul\":696:835   */\n      swap3\n      swap2\n      pop\n      pop\n      jump\t// out\n        /* \"#utility.yul\":841:1170   */\n    tag_14:\n        /* \"#utility.yul\":900:906   */\n      0x00\n        /* \"#utility.yul\":949:951   */\n      0x20\n        /* \"#utility.yul\":937:946   */\n      dup3\n        /* \"#utility.yul\":928:935   */\n      dup5\n        /* \"#utility.yul\":924:947   */\n      sub\n        /* \"#utility.yul\":920:952   */\n      slt\n        /* \"#utility.yul\":917:1036   */\n      iszero\n      tag_134\n      jumpi\n        /* \"#utility.yul\":955:1034   */\n      tag_135\n      tag_94\n      jump\t// in\n    tag_135:\n        /* \"#utility.yul\":917:1036   */\n    tag_134:\n        /* \"#utility.yul\":1075:1076   */\n      0x00\n        /* \"#utility.yul\":1100:1153   */\n      tag_136\n        /* \"#utility.yul\":1145:1152   */\n      dup5\n        /* \"#utility.yul\":1136:1142   */\n      dup3\n        /* \"#utility.yul\":1125:1134   */\n      dup6\n        /* \"#utility.yul\":1121:1143   */\n      add\n        /* \"#utility.yul\":1100:1153   */\n      tag_99\n      jump\t// in\n    tag_136:\n        /* \"#utility.yul\":1090:1153   */\n      swap2\n      pop\n        /* \"#utility.yul\":1046:1163   */\n      pop\n        /* \"#utility.yul\":841:1170   */\n      swap3\n      swap2\n      pop\n      pop\n      jump\t// out\n        /* \"#utility.yul\":1176:1253   */\n    tag_100:\n        /* \"#utility.yul\":1213:1220   */\n      0x00\n        /* \"#utility.yul\":1242:1247   */\n      dup2\n        /* \"#utility.yul\":1231:1247   */\n      swap1\n      pop\n        /* \"#utility.yul\":1176:1253   */\n      swap2\n      swap1\n      pop\n      jump\t// out\n        /* \"#utility.yul\":1259:1377   */\n    tag_101:\n        /* \"#utility.yul\":1346:1370   */\n      tag_139\n        /* \"#utility.yul\":1364:1369   */\n      dup2\n        /* \"#utility.yul\":1346:1370   */\n      tag_100\n      jump\t// in\n    tag_139:\n        /* \"#utility.yul\":1341:1344   */\n      dup3\n        /* \"#utility.yul\":1334:1371   */\n      mstore\n        /* \"#utility.yul\":1259:1377   */\n      pop\n      pop\n      jump\t// out\n        /* \"#utility.yul\":1383:1715   */\n    tag_17:\n        /* \"#utility.yul\":1504:1508   */\n      0x00\n        /* \"#utility.yul\":1542:1544   */\n      0x40\n        /* \"#utility.yul\":1531:1540   */\n      dup3\n        /* \"#utility.yul\":1527:1545   */\n      add\n        /* \"#utility.yul\":1519:1545   */\n      swap1\n      pop\n        /* \"#utility.yul\":1555:1626   */\n      tag_141\n        /* \"#utility.yul\":1623:1624   */\n      0x00\n        /* \"#utility.yul\":1612:1621   */\n      dup4\n        /* \"#utility.yul\":1608:1625   */\n      add\n        /* \"#utility.yul\":1599:1605   */\n      dup6\n        /* \"#utility.yul\":1555:1626   */\n      tag_101\n      jump\t// in\n    tag_141:\n        /* \"#utility.yul\":1636:1708   */\n      tag_142\n        /* \"#utility.yul\":1704:1706   */\n      0x20\n        /* \"#utility.yul\":1693:1702   */\n      dup4\n        /* \"#utility.yul\":1689:1707   */\n      add\n        /* \"#utility.yul\":1680:1686   */\n      dup5\n        /* \"#utility.yul\":1636:1708   */\n      tag_101\n      jump\t// in\n    tag_142:\n        /* \"#utility.yul\":1383:1715   */\n      swap4\n      swap3\n      pop\n      pop\n      pop\n      jump\t// out\n        /* \"#utility.yul\":1721:1781   */\n    tag_102:\n        /* \"#utility.yul\":1749:1752   */\n      0x00\n        /* \"#utility.yul\":1770:1775   */\n      dup2\n        /* \"#utility.yul\":1763:1775   */\n      swap1\n      pop\n        /* \"#utility.yul\":1721:1781   */\n      swap2\n      swap1\n      pop\n      jump\t// out\n        /* \"#utility.yul\":1787:1929   */\n    tag_103:\n        /* \"#utility.yul\":1837:1846   */\n      0x00\n        /* \"#utility.yul\":1870:1923   */\n      tag_145\n        /* \"#utility.yul\":1888:1922   */\n      tag_146\n        /* \"#utility.yul\":1897:1921   */\n      tag_147\n        /* \"#utility.yul\":1915:1920   */\n      dup5\n        /* \"#utility.yul\":1897:1921   */\n      tag_96\n      jump\t// in\n    tag_147:\n        /* \"#utility.yul\":1888:1922   */\n      tag_102\n      jump\t// in\n    tag_146:\n        /* \"#utility.yul\":1870:1923   */\n      tag_96\n      jump\t// in\n    tag_145:\n        /* \"#utility.yul\":1857:1923   */\n      swap1\n      pop\n        /* \"#utility.yul\":1787:1929   */\n      swap2\n      swap1\n      pop\n      jump\t// out\n        /* \"#utility.yul\":1935:2061   */\n    tag_104:\n        /* \"#utility.yul\":1985:1994   */\n      0x00\n        /* \"#utility.yul\":2018:2055   */\n      tag_149\n        /* \"#utility.yul\":2049:2054   */\n      dup3\n        /* \"#utility.yul\":2018:2055   */\n      tag_103\n      jump\t// in\n    tag_149:\n        /* \"#utility.yul\":2005:2055   */\n      swap1\n      pop\n        /* \"#utility.yul\":1935:2061   */\n      swap2\n      swap1\n      pop\n      jump\t// out\n        /* \"#utility.yul\":2067:2207   */\n    tag_105:\n        /* \"#utility.yul\":2131:2140   */\n      0x00\n        /* \"#utility.yul\":2164:2201   */\n      tag_151\n        /* \"#utility.yul\":2195:2200   */\n      dup3\n        /* \"#utility.yul\":2164:2201   */\n      tag_104\n      jump\t// in\n    tag_151:\n        /* \"#utility.yul\":2151:2201   */\n      swap1\n      pop\n        /* \"#utility.yul\":2067:2207   */\n      swap2\n      swap1\n      pop\n      jump\t// out\n        /* \"#utility.yul\":2213:2372   */\n    tag_106:\n        /* \"#utility.yul\":2314:2365   */\n      tag_153\n        /* \"#utility.yul\":2359:2364   */\n      dup2\n        /* \"#utility.yul\":2314:2365   */\n      tag_105\n      jump\t// in\n    tag_153:\n        /* \"#utility.yul\":2309:2312   */\n      dup3\n        /* \"#utility.yul\":2302:2366   */\n      mstore\n        /* \"#utility.yul\":2213:2372   */\n      pop\n      pop\n      jump\t// out\n        /* \"#utility.yul\":2378:2628   */\n    tag_25:\n        /* \"#utility.yul\":2485:2489   */\n      0x00\n        /* \"#utility.yul\":2523:2525   */\n      0x20\n        /* \"#utility.yul\":2512:2521   */\n      dup3\n        /* \"#utility.yul\":2508:2526   */\n      add\n        /* \"#utility.yul\":2500:2526   */\n      swap1\n      pop\n        /* \"#utility.yul\":2536:2621   */\n      tag_155\n        /* \"#utility.yul\":2618:2619   */\n      0x00\n        /* \"#utility.yul\":2607:2616   */\n      dup4\n        /* \"#utility.yul\":2603:2620   */\n      add\n        /* \"#utility.yul\":2594:2600   */\n      dup5\n        /* \"#utility.yul\":2536:2621   */\n      tag_106\n      jump\t// in\n    tag_155:\n        /* \"#utility.yul\":2378:2628   */\n      swap3\n      swap2\n      pop\n      pop\n      jump\t// out\n        /* \"#utility.yul\":2634:2752   */\n    tag_107:\n        /* \"#utility.yul\":2721:2745   */\n      tag_157\n        /* \"#utility.yul\":2739:2744   */\n      dup2\n        /* \"#utility.yul\":2721:2745   */\n      tag_97\n      jump\t// in\n    tag_157:\n        /* \"#utility.yul\":2716:2719   */\n      dup3\n        /* \"#utility.yul\":2709:2746   */\n      mstore\n        /* \"#utility.yul\":2634:2752   */\n      pop\n      pop\n      jump\t// out\n        /* \"#utility.yul\":2758:2980   */\n    tag_29:\n        /* \"#utility.yul\":2851:2855   */\n      0x00\n        /* \"#utility.yul\":2889:2891   */\n      0x20\n        /* \"#utility.yul\":2878:2887   */\n      dup3\n        /* \"#utility.yul\":2874:2892   */\n      add\n        /* \"#utility.yul\":2866:2892   */\n      swap1\n      pop\n        /* \"#utility.yul\":2902:2973   */\n      tag_159\n        /* \"#utility.yul\":2970:2971   */\n      0x00\n        /* \"#utility.yul\":2959:2968   */\n      dup4\n        /* \"#utility.yul\":2955:2972   */\n      add\n        /* \"#utility.yul\":2946:2952   */\n      dup5\n        /* \"#utility.yul\":2902:2973   */\n      tag_107\n      jump\t// in\n    tag_159:\n        /* \"#utility.yul\":2758:2980   */\n      swap3\n      swap2\n      pop\n      pop\n      jump\t// out\n        /* \"#utility.yul\":2986:3108   */\n    tag_108:\n        /* \"#utility.yul\":3059:3083   */\n      tag_161\n        /* \"#utility.yul\":3077:3082   */\n      dup2\n        /* \"#utility.yul\":3059:3083   */\n      tag_100\n      jump\t// in\n    tag_161:\n        /* \"#utility.yul\":3052:3057   */\n      dup2\n        /* \"#utility.yul\":3049:3084   */\n      eq\n        /* \"#utility.yul\":3039:3102   */\n      tag_162\n      jumpi\n        /* \"#utility.yul\":3098:3099   */\n      0x00\n        /* \"#utility.yul\":3095:3096   */\n      dup1\n        /* \"#utility.yul\":3088:3100   */\n      revert\n        /* \"#utility.yul\":3039:3102   */\n    tag_162:\n        /* \"#utility.yul\":2986:3108   */\n      pop\n      jump\t// out\n        /* \"#utility.yul\":3114:3253   */\n    tag_109:\n        /* \"#utility.yul\":3160:3165   */\n      0x00\n        /* \"#utility.yul\":3198:3204   */\n      dup2\n        /* \"#utility.yul\":3185:3205   */\n      calldataload\n        /* \"#utility.yul\":3176:3205   */\n      swap1\n      pop\n        /* \"#utility.yul\":3214:3247   */\n      tag_164\n        /* \"#utility.yul\":3241:3246   */\n      dup2\n        /* \"#utility.yul\":3214:3247   */\n      tag_108\n      jump\t// in\n    tag_164:\n        /* \"#utility.yul\":3114:3253   */\n      swap3\n      swap2\n      pop\n      pop\n      jump\t// out\n        /* \"#utility.yul\":3259:3588   */\n    tag_32:\n        /* \"#utility.yul\":3318:3324   */\n      0x00\n        /* \"#utility.yul\":3367:3369   */\n      0x20\n        /* \"#utility.yul\":3355:3364   */\n      dup3\n        /* \"#utility.yul\":3346:3353   */\n      dup5\n        /* \"#utility.yul\":3342:3365   */\n      sub\n        /* \"#utility.yul\":3338:3370   */\n      slt\n        /* \"#utility.yul\":3335:3454   */\n      iszero\n      tag_166\n      jumpi\n        /* \"#utility.yul\":3373:3452   */\n      tag_167\n      tag_94\n      jump\t// in\n    tag_167:\n        /* \"#utility.yul\":3335:3454   */\n    tag_166:\n        /* \"#utility.yul\":3493:3494   */\n      0x00\n        /* \"#utility.yul\":3518:3571   */\n      tag_168\n        /* \"#utility.yul\":3563:3570   */\n      dup5\n        /* \"#utility.yul\":3554:3560   */\n      dup3\n        /* \"#utility.yul\":3543:3552   */\n      dup6\n        /* \"#utility.yul\":3539:3561   */\n      add\n        /* \"#utility.yul\":3518:3571   */\n      tag_109\n      jump\t// in\n    tag_168:\n        /* \"#utility.yul\":3508:3571   */\n      swap2\n      pop\n        /* \"#utility.yul\":3464:3581   */\n      pop\n        /* \"#utility.yul\":3259:3588   */\n      swap3\n      swap2\n      pop\n      pop\n      jump\t// out\n        /* \"#utility.yul\":3594:3763   */\n    tag_110:\n        /* \"#utility.yul\":3678:3689   */\n      0x00\n        /* \"#utility.yul\":3712:3718   */\n      dup3\n        /* \"#utility.yul\":3707:3710   */\n      dup3\n        /* \"#utility.yul\":3700:3719   */\n      mstore\n        /* \"#utility.yul\":3752:3756   */\n      0x20\n        /* \"#utility.yul\":3747:3750   */\n      dup3\n        /* \"#utility.yul\":3743:3757   */\n      add\n        /* \"#utility.yul\":3728:3757   */\n      swap1\n      pop\n        /* \"#utility.yul\":3594:3763   */\n      swap3\n      swap2\n      pop\n      pop\n      jump\t// out\n        /* \"#utility.yul\":3769:3939   */\n    tag_111:\n        /* \"#utility.yul\":3909:3931   */\n      0x4e6f20746f6b656e7320746f20756e7374616b65000000000000000000000000\n        /* \"#utility.yul\":3905:3906   */\n      0x00\n        /* \"#utility.yul\":3897:3903   */\n      dup3\n        /* \"#utility.yul\":3893:3907   */\n      add\n        /* \"#utility.yul\":3886:3932   */\n      mstore\n        /* \"#utility.yul\":3769:3939   */\n      pop\n      jump\t// out\n        /* \"#utility.yul\":3945:4311   */\n    tag_112:\n        /* \"#utility.yul\":4087:4090   */\n      0x00\n        /* \"#utility.yul\":4108:4175   */\n      tag_172\n        /* \"#utility.yul\":4172:4174   */\n      0x14\n        /* \"#utility.yul\":4167:4170   */\n      dup4\n        /* \"#utility.yul\":4108:4175   */\n      tag_110\n      jump\t// in\n    tag_172:\n        /* \"#utility.yul\":4101:4175   */\n      swap2\n      pop\n        /* \"#utility.yul\":4184:4277   */\n      tag_173\n        /* \"#utility.yul\":4273:4276   */\n      dup3\n        /* \"#utility.yul\":4184:4277   */\n      tag_111\n      jump\t// in\n    tag_173:\n        /* \"#utility.yul\":4302:4304   */\n      0x20\n        /* \"#utility.yul\":4297:4300   */\n      dup3\n        /* \"#utility.yul\":4293:4305   */\n      add\n        /* \"#utility.yul\":4286:4305   */\n      swap1\n      pop\n        /* \"#utility.yul\":3945:4311   */\n      swap2\n      swap1\n      pop\n      jump\t// out\n        /* \"#utility.yul\":4317:4736   */\n    tag_44:\n        /* \"#utility.yul\":4483:4487   */\n      0x00\n        /* \"#utility.yul\":4521:4523   */\n      0x20\n        /* \"#utility.yul\":4510:4519   */\n      dup3\n        /* \"#utility.yul\":4506:4524   */\n      add\n        /* \"#utility.yul\":4498:4524   */\n      swap1\n      pop\n        /* \"#utility.yul\":4570:4579   */\n      dup2\n        /* \"#utility.yul\":4564:4568   */\n      dup2\n        /* \"#utility.yul\":4560:4580   */\n      sub\n        /* \"#utility.yul\":4556:4557   */\n      0x00\n        /* \"#utility.yul\":4545:4554   */\n      dup4\n        /* \"#utility.yul\":4541:4558   */\n      add\n        /* \"#utility.yul\":4534:4581   */\n      mstore\n        /* \"#utility.yul\":4598:4729   */\n      tag_175\n        /* \"#utility.yul\":4724:4728   */\n      dup2\n        /* \"#utility.yul\":4598:4729   */\n      tag_112\n      jump\t// in\n    tag_175:\n        /* \"#utility.yul\":4590:4729   */\n      swap1\n      pop\n        /* \"#utility.yul\":4317:4736   */\n      swap2\n      swap1\n      pop\n      jump\t// out\n        /* \"#utility.yul\":4742:5074   */\n    tag_46:\n        /* \"#utility.yul\":4863:4867   */\n      0x00\n        /* \"#utility.yul\":4901:4903   */\n      0x40\n        /* \"#utility.yul\":4890:4899   */\n      dup3\n        /* \"#utility.yul\":4886:4904   */\n      add\n        /* \"#utility.yul\":4878:4904   */\n      swap1\n      pop\n        /* \"#utility.yul\":4914:4985   */\n      tag_177\n        /* \"#utility.yul\":4982:4983   */\n      0x00\n        /* \"#utility.yul\":4971:4980   */\n      dup4\n        /* \"#utility.yul\":4967:4984   */\n      add\n        /* \"#utility.yul\":4958:4964   */\n      dup6\n        /* \"#utility.yul\":4914:4985   */\n      tag_107\n      jump\t// in\n    tag_177:\n        /* \"#utility.yul\":4995:5067   */\n      tag_178\n        /* \"#utility.yul\":5063:5065   */\n      0x20\n        /* \"#utility.yul\":5052:5061   */\n      dup4\n        /* \"#utility.yul\":5048:5066   */\n      add\n        /* \"#utility.yul\":5039:5045   */\n      dup5\n        /* \"#utility.yul\":4995:5067   */\n      tag_101\n      jump\t// in\n    tag_178:\n        /* \"#utility.yul\":4742:5074   */\n      swap4\n      swap3\n      pop\n      pop\n      pop\n      jump\t// out\n        /* \"#utility.yul\":5080:5170   */\n    tag_113:\n        /* \"#utility.yul\":5114:5121   */\n      0x00\n        /* \"#utility.yul\":5157:5162   */\n      dup2\n        /* \"#utility.yul\":5150:5163   */\n      iszero\n        /* \"#utility.yul\":5143:5164   */\n      iszero\n        /* \"#utility.yul\":5132:5164   */\n      swap1\n      pop\n        /* \"#utility.yul\":5080:5170   */\n      swap2\n      swap1\n      pop\n      jump\t// out\n        /* \"#utility.yul\":5176:5292   */\n    tag_114:\n        /* \"#utility.yul\":5246:5267   */\n      tag_181\n        /* \"#utility.yul\":5261:5266   */\n      dup2\n        /* \"#utility.yul\":5246:5267   */\n      tag_113\n      jump\t// in\n    tag_181:\n        /* \"#utility.yul\":5239:5244   */\n      dup2\n        /* \"#utility.yul\":5236:5268   */\n      eq\n        /* \"#utility.yul\":5226:5286   */\n      tag_182\n      jumpi\n        /* \"#utility.yul\":5282:5283   */\n      0x00\n        /* \"#utility.yul\":5279:5280   */\n      dup1\n        /* \"#utility.yul\":5272:5284   */\n      revert\n        /* \"#utility.yul\":5226:5286   */\n    tag_182:\n        /* \"#utility.yul\":5176:5292   */\n      pop\n      jump\t// out\n        /* \"#utility.yul\":5298:5435   */\n    tag_115:\n        /* \"#utility.yul\":5352:5357   */\n      0x00\n        /* \"#utility.yul\":5383:5389   */\n      dup2\n        /* \"#utility.yul\":5377:5390   */\n      mload\n        /* \"#utility.yul\":5368:5390   */\n      swap1\n      pop\n        /* \"#utility.yul\":5399:5429   */\n      tag_184\n        /* \"#utility.yul\":5423:5428   */\n      dup2\n        /* \"#utility.yul\":5399:5429   */\n      tag_114\n      jump\t// in\n    tag_184:\n        /* \"#utility.yul\":5298:5435   */\n      swap3\n      swap2\n      pop\n      pop\n      jump\t// out\n        /* \"#utility.yul\":5441:5786   */\n    tag_50:\n        /* \"#utility.yul\":5508:5514   */\n      0x00\n        /* \"#utility.yul\":5557:5559   */\n      0x20\n        /* \"#utility.yul\":5545:5554   */\n      dup3\n        /* \"#utility.yul\":5536:5543   */\n      dup5\n        /* \"#utility.yul\":5532:5555   */\n      sub\n        /* \"#utility.yul\":5528:5560   */\n      slt\n        /* \"#utility.yul\":5525:5644   */\n      iszero\n      tag_186\n      jumpi\n        /* \"#utility.yul\":5563:5642   */\n      tag_187\n      tag_94\n      jump\t// in\n    tag_187:\n        /* \"#utility.yul\":5525:5644   */\n    tag_186:\n        /* \"#utility.yul\":5683:5684   */\n      0x00\n        /* \"#utility.yul\":5708:5769   */\n      tag_188\n        /* \"#utility.yul\":5761:5768   */\n      dup5\n        /* \"#utility.yul\":5752:5758   */\n      dup3\n        /* \"#utility.yul\":5741:5750   */\n      dup6\n        /* \"#utility.yul\":5737:5759   */\n      add\n        /* \"#utility.yul\":5708:5769   */\n      tag_115\n      jump\t// in\n    tag_188:\n        /* \"#utility.yul\":5698:5769   */\n      swap2\n      pop\n        /* \"#utility.yul\":5654:5779   */\n      pop\n        /* \"#utility.yul\":5441:5786   */\n      swap3\n      swap2\n      pop\n      pop\n      jump\t// out\n        /* \"#utility.yul\":5792:5963   */\n    tag_116:\n        /* \"#utility.yul\":5932:5955   */\n      0x546f6b656e207472616e73666572206661696c65640000000000000000000000\n        /* \"#utility.yul\":5928:5929   */\n      0x00\n        /* \"#utility.yul\":5920:5926   */\n      dup3\n        /* \"#utility.yul\":5916:5930   */\n      add\n        /* \"#utility.yul\":5909:5956   */\n      mstore\n        /* \"#utility.yul\":5792:5963   */\n      pop\n      jump\t// out\n        /* \"#utility.yul\":5969:6335   */\n    tag_117:\n        /* \"#utility.yul\":6111:6114   */\n      0x00\n        /* \"#utility.yul\":6132:6199   */\n      tag_191\n        /* \"#utility.yul\":6196:6198   */\n      0x15\n        /* \"#utility.yul\":6191:6194   */\n      dup4\n        /* \"#utility.yul\":6132:6199   */\n      tag_110\n      jump\t// in\n    tag_191:\n        /* \"#utility.yul\":6125:6199   */\n      swap2\n      pop\n        /* \"#utility.yul\":6208:6301   */\n      tag_192\n        /* \"#utility.yul\":6297:6300   */\n      dup3\n        /* \"#utility.yul\":6208:6301   */\n      tag_116\n      jump\t// in\n    tag_192:\n        /* \"#utility.yul\":6326:6328   */\n      0x20\n        /* \"#utility.yul\":6321:6324   */\n      dup3\n        /* \"#utility.yul\":6317:6329   */\n      add\n        /* \"#utility.yul\":6310:6329   */\n      swap1\n      pop\n        /* \"#utility.yul\":5969:6335   */\n      swap2\n      swap1\n      pop\n      jump\t// out\n        /* \"#utility.yul\":6341:6760   */\n    tag_53:\n        /* \"#utility.yul\":6507:6511   */\n      0x00\n        /* \"#utility.yul\":6545:6547   */\n      0x20\n        /* \"#utility.yul\":6534:6543   */\n      dup3\n        /* \"#utility.yul\":6530:6548   */\n      add\n        /* \"#utility.yul\":6522:6548   */\n      swap1\n      pop\n        /* \"#utility.yul\":6594:6603   */\n      dup2\n        /* \"#utility.yul\":6588:6592   */\n      dup2\n        /* \"#utility.yul\":6584:6604   */\n      sub\n        /* \"#utility.yul\":6580:6581   */\n      0x00\n        /* \"#utility.yul\":6569:6578   */\n      dup4\n        /* \"#utility.yul\":6565:6582   */\n      add\n        /* \"#utility.yul\":6558:6605   */\n      mstore\n        /* \"#utility.yul\":6622:6753   */\n      tag_194\n        /* \"#utility.yul\":6748:6752   */\n      dup2\n        /* \"#utility.yul\":6622:6753   */\n      tag_117\n      jump\t// in\n    tag_194:\n        /* \"#utility.yul\":6614:6753   */\n      swap1\n      pop\n        /* \"#utility.yul\":6341:6760   */\n      swap2\n      swap1\n      pop\n      jump\t// out\n        /* \"#utility.yul\":6766:6988   */\n    tag_55:\n        /* \"#utility.yul\":6859:6863   */\n      0x00\n        /* \"#utility.yul\":6897:6899   */\n      0x20\n        /* \"#utility.yul\":6886:6895   */\n      dup3\n        /* \"#utility.yul\":6882:6900   */\n      add\n        /* \"#utility.yul\":6874:6900   */\n      swap1\n      pop\n        /* \"#utility.yul\":6910:6981   */\n      tag_196\n        /* \"#utility.yul\":6978:6979   */\n      0x00\n        /* \"#utility.yul\":6967:6976   */\n      dup4\n        /* \"#utility.yul\":6963:6980   */\n      add\n        /* \"#utility.yul\":6954:6960   */\n      dup5\n        /* \"#utility.yul\":6910:6981   */\n      tag_101\n      jump\t// in\n    tag_196:\n        /* \"#utility.yul\":6766:6988   */\n      swap3\n      swap2\n      pop\n      pop\n      jump\t// out\n        /* \"#utility.yul\":6994:7173   */\n    tag_118:\n        /* \"#utility.yul\":7134:7165   */\n      0x416d6f756e74206d7573742062652067726561746572207468616e2030000000\n        /* \"#utility.yul\":7130:7131   */\n      0x00\n        /* \"#utility.yul\":7122:7128   */\n      dup3\n        /* \"#utility.yul\":7118:7132   */\n      add\n        /* \"#utility.yul\":7111:7166   */\n      mstore\n        /* \"#utility.yul\":6994:7173   */\n      pop\n      jump\t// out\n        /* \"#utility.yul\":7179:7545   */\n    tag_119:\n        /* \"#utility.yul\":7321:7324   */\n      0x00\n        /* \"#utility.yul\":7342:7409   */\n      tag_199\n        /* \"#utility.yul\":7406:7408   */\n      0x1d\n        /* \"#utility.yul\":7401:7404   */\n      dup4\n        /* \"#utility.yul\":7342:7409   */\n      tag_110\n      jump\t// in\n    tag_199:\n        /* \"#utility.yul\":7335:7409   */\n      swap2\n      pop\n        /* \"#utility.yul\":7418:7511   */\n      tag_200\n        /* \"#utility.yul\":7507:7510   */\n      dup3\n        /* \"#utility.yul\":7418:7511   */\n      tag_118\n      jump\t// in\n    tag_200:\n        /* \"#utility.yul\":7536:7538   */\n      0x20\n        /* \"#utility.yul\":7531:7534   */\n      dup3\n        /* \"#utility.yul\":7527:7539   */\n      add\n        /* \"#utility.yul\":7520:7539   */\n      swap1\n      pop\n        /* \"#utility.yul\":7179:7545   */\n      swap2\n      swap1\n      pop\n      jump\t// out\n        /* \"#utility.yul\":7551:7970   */\n    tag_66:\n        /* \"#utility.yul\":7717:7721   */\n      0x00\n        /* \"#utility.yul\":7755:7757   */\n      0x20\n        /* \"#utility.yul\":7744:7753   */\n      dup3\n        /* \"#utility.yul\":7740:7758   */\n      add\n        /* \"#utility.yul\":7732:7758   */\n      swap1\n      pop\n        /* \"#utility.yul\":7804:7813   */\n      dup2\n        /* \"#utility.yul\":7798:7802   */\n      dup2\n        /* \"#utility.yul\":7794:7814   */\n      sub\n        /* \"#utility.yul\":7790:7791   */\n      0x00\n        /* \"#utility.yul\":7779:7788   */\n      dup4\n        /* \"#utility.yul\":7775:7792   */\n      add\n        /* \"#utility.yul\":7768:7815   */\n      mstore\n        /* \"#utility.yul\":7832:7963   */\n      tag_202\n        /* \"#utility.yul\":7958:7962   */\n      dup2\n        /* \"#utility.yul\":7832:7963   */\n      tag_119\n      jump\t// in\n    tag_202:\n        /* \"#utility.yul\":7824:7963   */\n      swap1\n      pop\n        /* \"#utility.yul\":7551:7970   */\n      swap2\n      swap1\n      pop\n      jump\t// out\n        /* \"#utility.yul\":7976:8418   */\n    tag_68:\n        /* \"#utility.yul\":8125:8129   */\n      0x00\n        /* \"#utility.yul\":8163:8165   */\n      0x60\n        /* \"#utility.yul\":8152:8161   */\n      dup3\n        /* \"#utility.yul\":8148:8166   */\n      add\n        /* \"#utility.yul\":8140:8166   */\n      swap1\n      pop\n        /* \"#utility.yul\":8176:8247   */\n      tag_204\n        /* \"#utility.yul\":8244:8245   */\n      0x00\n        /* \"#utility.yul\":8233:8242   */\n      dup4\n        /* \"#utility.yul\":8229:8246   */\n      add\n        /* \"#utility.yul\":8220:8226   */\n      dup7\n        /* \"#utility.yul\":8176:8247   */\n      tag_107\n      jump\t// in\n    tag_204:\n        /* \"#utility.yul\":8257:8329   */\n      tag_205\n        /* \"#utility.yul\":8325:8327   */\n      0x20\n        /* \"#utility.yul\":8314:8323   */\n      dup4\n        /* \"#utility.yul\":8310:8328   */\n      add\n        /* \"#utility.yul\":8301:8307   */\n      dup6\n        /* \"#utility.yul\":8257:8329   */\n      tag_107\n      jump\t// in\n    tag_205:\n        /* \"#utility.yul\":8339:8411   */\n      tag_206\n        /* \"#utility.yul\":8407:8409   */\n      0x40\n        /* \"#utility.yul\":8396:8405   */\n      dup4\n        /* \"#utility.yul\":8392:8410   */\n      add\n        /* \"#utility.yul\":8383:8389   */\n      dup5\n        /* \"#utility.yul\":8339:8411   */\n      tag_101\n      jump\t// in\n    tag_206:\n        /* \"#utility.yul\":7976:8418   */\n      swap5\n      swap4\n      pop\n      pop\n      pop\n      pop\n      jump\t// out\n        /* \"#utility.yul\":8424:8604   */\n    tag_120:\n        /* \"#utility.yul\":8472:8549   */\n      0x4e487b7100000000000000000000000000000000000000000000000000000000\n        /* \"#utility.yul\":8469:8470   */\n      0x00\n        /* \"#utility.yul\":8462:8550   */\n      mstore\n        /* \"#utility.yul\":8569:8573   */\n      0x11\n        /* \"#utility.yul\":8566:8567   */\n      0x04\n        /* \"#utility.yul\":8559:8574   */\n      mstore\n        /* \"#utility.yul\":8593:8597   */\n      0x24\n        /* \"#utility.yul\":8590:8591   */\n      0x00\n        /* \"#utility.yul\":8583:8598   */\n      revert\n        /* \"#utility.yul\":8610:8801   */\n    tag_75:\n        /* \"#utility.yul\":8650:8653   */\n      0x00\n        /* \"#utility.yul\":8669:8689   */\n      tag_209\n        /* \"#utility.yul\":8687:8688   */\n      dup3\n        /* \"#utility.yul\":8669:8689   */\n      tag_100\n      jump\t// in\n    tag_209:\n        /* \"#utility.yul\":8664:8689   */\n      swap2\n      pop\n        /* \"#utility.yul\":8703:8723   */\n      tag_210\n        /* \"#utility.yul\":8721:8722   */\n      dup4\n        /* \"#utility.yul\":8703:8723   */\n      tag_100\n      jump\t// in\n    tag_210:\n        /* \"#utility.yul\":8698:8723   */\n      swap3\n      pop\n        /* \"#utility.yul\":8746:8747   */\n      dup3\n        /* \"#utility.yul\":8743:8744   */\n      dup3\n        /* \"#utility.yul\":8739:8748   */\n      add\n        /* \"#utility.yul\":8732:8748   */\n      swap1\n      pop\n        /* \"#utility.yul\":8767:8770   */\n      dup1\n        /* \"#utility.yul\":8764:8765   */\n      dup3\n        /* \"#utility.yul\":8761:8771   */\n      gt\n        /* \"#utility.yul\":8758:8794   */\n      iszero\n      tag_211\n      jumpi\n        /* \"#utility.yul\":8774:8792   */\n      tag_212\n      tag_120\n      jump\t// in\n    tag_212:\n        /* \"#utility.yul\":8758:8794   */\n    tag_211:\n        /* \"#utility.yul\":8610:8801   */\n      swap3\n      swap2\n      pop\n      pop\n      jump\t// out\n\n    auxdata: 0xa26469706673582212201749a415ce541b28fb12618e98337c6c6669562f23d25aed7ffcc21ede3bdc7064736f6c634300081c0033\n}\n",
				"bytecode": {
					"linkReferences": {},
					"object": "608060405234801561001057600080fd5b506040516110ea3803806110ea83398181016040528101906100329190610292565b30600073ffffffffffffffffffffffffffffffffffffffff168173ffffffffffffffffffffffffffffffffffffffff16036100a55760006040517f1e4fbdf700000000000000000000000000000000000000000000000000000000815260040161009c91906102ce565b60405180910390fd5b6100b48161016b60201b60201c565b50600073ffffffffffffffffffffffffffffffffffffffff168173ffffffffffffffffffffffffffffffffffffffff1603610124576040517f08c379a000000000000000000000000000000000000000000000000000000000815260040161011b90610346565b60405180910390fd5b80600160006101000a81548173ffffffffffffffffffffffffffffffffffffffff021916908373ffffffffffffffffffffffffffffffffffffffff16021790555050610366565b60008060009054906101000a900473ffffffffffffffffffffffffffffffffffffffff169050816000806101000a81548173ffffffffffffffffffffffffffffffffffffffff021916908373ffffffffffffffffffffffffffffffffffffffff1602179055508173ffffffffffffffffffffffffffffffffffffffff168173ffffffffffffffffffffffffffffffffffffffff167f8be0079c531659141344cd1fd0a4f28419497f9722a3daafe3b4186f6b6457e060405160405180910390a35050565b600080fd5b600073ffffffffffffffffffffffffffffffffffffffff82169050919050565b600061025f82610234565b9050919050565b61026f81610254565b811461027a57600080fd5b50565b60008151905061028c81610266565b92915050565b6000602082840312156102a8576102a761022f565b5b60006102b68482850161027d565b91505092915050565b6102c881610254565b82525050565b60006020820190506102e360008301846102bf565b92915050565b600082825260208201905092915050565b7f546f6b656e20616464726573732063616e6e6f74206265207a65726f00000000600082015250565b6000610330601c836102e9565b915061033b826102fa565b602082019050919050565b6000602082019050818103600083015261035f81610323565b9050919050565b610d75806103756000396000f3fe608060405234801561001057600080fd5b50600436106100885760003560e01c80638da5cb5b1161005b5780638da5cb5b146100f0578063a694fc3a1461010e578063f2fde38b1461012a578063f41322ac1461014657610088565b806316934fc41461008d5780632def6620146100be578063715018a6146100c857806372f702f3146100d2575b600080fd5b6100a760048036038101906100a2919061093b565b610177565b6040516100b5929190610981565b60405180910390f35b6100c661019b565b005b6100d061040e565b005b6100da610422565b6040516100e79190610a09565b60405180910390f35b6100f8610448565b6040516101059190610a33565b60405180910390f35b61012860048036038101906101239190610a7a565b610471565b005b610144600480360381019061013f919061093b565b610686565b005b610160600480360381019061015b919061093b565b61070c565b60405161016e929190610981565b60405180910390f35b60026020528060005260406000206000915090508060000154908060010154905082565b6000600260003373ffffffffffffffffffffffffffffffffffffffff1673ffffffffffffffffffffffffffffffffffffffff1681526020019081526020016000206040518060400160405290816000820154815260200160018201548152505090506000816000015111610244576040517f08c379a000000000000000000000000000000000000000000000000000000000815260040161023b90610b04565b60405180910390fd5b6000816000015190506000600260003373ffffffffffffffffffffffffffffffffffffffff1673ffffffffffffffffffffffffffffffffffffffff168152602001908152602001600020600001819055506000600260003373ffffffffffffffffffffffffffffffffffffffff1673ffffffffffffffffffffffffffffffffffffffff16815260200190815260200160002060010181905550600160009054906101000a900473ffffffffffffffffffffffffffffffffffffffff1673ffffffffffffffffffffffffffffffffffffffff1663a9059cbb33836040518363ffffffff1660e01b815260040161033a929190610b24565b6020604051808303816000875af1158015610359573d6000803e3d6000fd5b505050506040513d601f19601f8201168201806040525081019061037d9190610b85565b6103bc576040517f08c379a00000000000000000000000000000000000000000000000000000000081526004016103b390610bfe565b60405180910390fd5b3373ffffffffffffffffffffffffffffffffffffffff167f0f5bb82176feb1b5e747e28471aa92156a04d9f3ab9f45f28e2d704232b93f75826040516104029190610c1e565b60405180910390a25050565b610416610785565b610420600061080c565b565b600160009054906101000a900473ffffffffffffffffffffffffffffffffffffffff1681565b60008060009054906101000a900473ffffffffffffffffffffffffffffffffffffffff16905090565b600081116104b4576040517f08c379a00000000000000000000000000000000000000000000000000000000081526004016104ab90610c85565b60405180910390fd5b600160009054906101000a900473ffffffffffffffffffffffffffffffffffffffff1673ffffffffffffffffffffffffffffffffffffffff166323b872dd3330846040518463ffffffff1660e01b815260040161051393929190610ca5565b6020604051808303816000875af1158015610532573d6000803e3d6000fd5b505050506040513d601f19601f820116820180604052508101906105569190610b85565b610595576040517f08c379a000000000000000000000000000000000000000000000000000000000815260040161058c90610bfe565b60405180910390fd5b80600260003373ffffffffffffffffffffffffffffffffffffffff1673ffffffffffffffffffffffffffffffffffffffff16815260200190815260200160002060000160008282546105e79190610d0b565b9250508190555042600260003373ffffffffffffffffffffffffffffffffffffffff1673ffffffffffffffffffffffffffffffffffffffff168152602001908152602001600020600101819055503373ffffffffffffffffffffffffffffffffffffffff167f9e71bc8eea02a63969f509818f2dafb9254532904319f9dbda79b67bd34a5f3d8260405161067b9190610c1e565b60405180910390a250565b61068e610785565b600073ffffffffffffffffffffffffffffffffffffffff168173ffffffffffffffffffffffffffffffffffffffff16036107005760006040517f1e4fbdf70000000000000000000000000000000000000000000000000000000081526004016106f79190610a33565b60405180910390fd5b6107098161080c565b50565b6000806000600260008573ffffffffffffffffffffffffffffffffffffffff1673ffffffffffffffffffffffffffffffffffffffff168152602001908152602001600020604051806040016040529081600082015481526020016001820154815250509050806000015181602001519250925050915091565b61078d6108d0565b73ffffffffffffffffffffffffffffffffffffffff166107ab610448565b73ffffffffffffffffffffffffffffffffffffffff161461080a576107ce6108d0565b6040517f118cdaa70000000000000000000000000000000000000000000000000000000081526004016108019190610a33565b60405180910390fd5b565b60008060009054906101000a900473ffffffffffffffffffffffffffffffffffffffff169050816000806101000a81548173ffffffffffffffffffffffffffffffffffffffff021916908373ffffffffffffffffffffffffffffffffffffffff1602179055508173ffffffffffffffffffffffffffffffffffffffff168173ffffffffffffffffffffffffffffffffffffffff167f8be0079c531659141344cd1fd0a4f28419497f9722a3daafe3b4186f6b6457e060405160405180910390a35050565b600033905090565b600080fd5b600073ffffffffffffffffffffffffffffffffffffffff82169050919050565b6000610908826108dd565b9050919050565b610918816108fd565b811461092357600080fd5b50565b6000813590506109358161090f565b92915050565b600060208284031215610951576109506108d8565b5b600061095f84828501610926565b91505092915050565b6000819050919050565b61097b81610968565b82525050565b60006040820190506109966000830185610972565b6109a36020830184610972565b9392505050565b6000819050919050565b60006109cf6109ca6109c5846108dd565b6109aa565b6108dd565b9050919050565b60006109e1826109b4565b9050919050565b60006109f3826109d6565b9050919050565b610a03816109e8565b82525050565b6000602082019050610a1e60008301846109fa565b92915050565b610a2d816108fd565b82525050565b6000602082019050610a486000830184610a24565b92915050565b610a5781610968565b8114610a6257600080fd5b50565b600081359050610a7481610a4e565b92915050565b600060208284031215610a9057610a8f6108d8565b5b6000610a9e84828501610a65565b91505092915050565b600082825260208201905092915050565b7f4e6f20746f6b656e7320746f20756e7374616b65000000000000000000000000600082015250565b6000610aee601483610aa7565b9150610af982610ab8565b602082019050919050565b60006020820190508181036000830152610b1d81610ae1565b9050919050565b6000604082019050610b396000830185610a24565b610b466020830184610972565b9392505050565b60008115159050919050565b610b6281610b4d565b8114610b6d57600080fd5b50565b600081519050610b7f81610b59565b92915050565b600060208284031215610b9b57610b9a6108d8565b5b6000610ba984828501610b70565b91505092915050565b7f546f6b656e207472616e73666572206661696c65640000000000000000000000600082015250565b6000610be8601583610aa7565b9150610bf382610bb2565b602082019050919050565b60006020820190508181036000830152610c1781610bdb565b9050919050565b6000602082019050610c336000830184610972565b92915050565b7f416d6f756e74206d7573742062652067726561746572207468616e2030000000600082015250565b6000610c6f601d83610aa7565b9150610c7a82610c39565b602082019050919050565b60006020820190508181036000830152610c9e81610c62565b9050919050565b6000606082019050610cba6000830186610a24565b610cc76020830185610a24565b610cd46040830184610972565b949350505050565b7f4e487b7100000000000000000000000000000000000000000000000000000000600052601160045260246000fd5b6000610d1682610968565b9150610d2183610968565b9250828201905080821115610d3957610d38610cdc565b5b9291505056fea26469706673582212201749a415ce541b28fb12618e98337c6c6669562f23d25aed7ffcc21ede3bdc7064736f6c634300081c0033",
					"opcodes": "PUSH1 0x80 PUSH1 0x40 MSTORE CALLVALUE DUP1 ISZERO PUSH2 0x10 JUMPI PUSH1 0x0 DUP1 REVERT JUMPDEST POP PUSH1 0x40 MLOAD PUSH2 0x10EA CODESIZE SUB DUP1 PUSH2 0x10EA DUP4 CODECOPY DUP2 DUP2 ADD PUSH1 0x40 MSTORE DUP2 ADD SWAP1 PUSH2 0x32 SWAP2 SWAP1 PUSH2 0x292 JUMP JUMPDEST ADDRESS PUSH1 0x0 PUSH20 0xFFFFFFFFFFFFFFFFFFFFFFFFFFFFFFFFFFFFFFFF AND DUP2 PUSH20 0xFFFFFFFFFFFFFFFFFFFFFFFFFFFFFFFFFFFFFFFF AND SUB PUSH2 0xA5 JUMPI PUSH1 0x0 PUSH1 0x40 MLOAD PUSH32 0x1E4FBDF700000000000000000000000000000000000000000000000000000000 DUP2 MSTORE PUSH1 0x4 ADD PUSH2 0x9C SWAP2 SWAP1 PUSH2 0x2CE JUMP JUMPDEST PUSH1 0x40 MLOAD DUP1 SWAP2 SUB SWAP1 REVERT JUMPDEST PUSH2 0xB4 DUP2 PUSH2 0x16B PUSH1 0x20 SHL PUSH1 0x20 SHR JUMP JUMPDEST POP PUSH1 0x0 PUSH20 0xFFFFFFFFFFFFFFFFFFFFFFFFFFFFFFFFFFFFFFFF AND DUP2 PUSH20 0xFFFFFFFFFFFFFFFFFFFFFFFFFFFFFFFFFFFFFFFF AND SUB PUSH2 0x124 JUMPI PUSH1 0x40 MLOAD PUSH32 0x8C379A000000000000000000000000000000000000000000000000000000000 DUP2 MSTORE PUSH1 0x4 ADD PUSH2 0x11B SWAP1 PUSH2 0x346 JUMP JUMPDEST PUSH1 0x40 MLOAD DUP1 SWAP2 SUB SWAP1 REVERT JUMPDEST DUP1 PUSH1 0x1 PUSH1 0x0 PUSH2 0x100 EXP DUP2 SLOAD DUP2 PUSH20 0xFFFFFFFFFFFFFFFFFFFFFFFFFFFFFFFFFFFFFFFF MUL NOT AND SWAP1 DUP4 PUSH20 0xFFFFFFFFFFFFFFFFFFFFFFFFFFFFFFFFFFFFFFFF AND MUL OR SWAP1 SSTORE POP POP PUSH2 0x366 JUMP JUMPDEST PUSH1 0x0 DUP1 PUSH1 0x0 SWAP1 SLOAD SWAP1 PUSH2 0x100 EXP SWAP1 DIV PUSH20 0xFFFFFFFFFFFFFFFFFFFFFFFFFFFFFFFFFFFFFFFF AND SWAP1 POP DUP2 PUSH1 0x0 DUP1 PUSH2 0x100 EXP DUP2 SLOAD DUP2 PUSH20 0xFFFFFFFFFFFFFFFFFFFFFFFFFFFFFFFFFFFFFFFF MUL NOT AND SWAP1 DUP4 PUSH20 0xFFFFFFFFFFFFFFFFFFFFFFFFFFFFFFFFFFFFFFFF AND MUL OR SWAP1 SSTORE POP DUP2 PUSH20 0xFFFFFFFFFFFFFFFFFFFFFFFFFFFFFFFFFFFFFFFF AND DUP2 PUSH20 0xFFFFFFFFFFFFFFFFFFFFFFFFFFFFFFFFFFFFFFFF AND PUSH32 0x8BE0079C531659141344CD1FD0A4F28419497F9722A3DAAFE3B4186F6B6457E0 PUSH1 0x40 MLOAD PUSH1 0x40 MLOAD DUP1 SWAP2 SUB SWAP1 LOG3 POP POP JUMP JUMPDEST PUSH1 0x0 DUP1 REVERT JUMPDEST PUSH1 0x0 PUSH20 0xFFFFFFFFFFFFFFFFFFFFFFFFFFFFFFFFFFFFFFFF DUP3 AND SWAP1 POP SWAP2 SWAP1 POP JUMP JUMPDEST PUSH1 0x0 PUSH2 0x25F DUP3 PUSH2 0x234 JUMP JUMPDEST SWAP1 POP SWAP2 SWAP1 POP JUMP JUMPDEST PUSH2 0x26F DUP2 PUSH2 0x254 JUMP JUMPDEST DUP2 EQ PUSH2 0x27A JUMPI PUSH1 0x0 DUP1 REVERT JUMPDEST POP JUMP JUMPDEST PUSH1 0x0 DUP2 MLOAD SWAP1 POP PUSH2 0x28C DUP2 PUSH2 0x266 JUMP JUMPDEST SWAP3 SWAP2 POP POP JUMP JUMPDEST PUSH1 0x0 PUSH1 0x20 DUP3 DUP5 SUB SLT ISZERO PUSH2 0x2A8 JUMPI PUSH2 0x2A7 PUSH2 0x22F JUMP JUMPDEST JUMPDEST PUSH1 0x0 PUSH2 0x2B6 DUP5 DUP3 DUP6 ADD PUSH2 0x27D JUMP JUMPDEST SWAP2 POP POP SWAP3 SWAP2 POP POP JUMP JUMPDEST PUSH2 0x2C8 DUP2 PUSH2 0x254 JUMP JUMPDEST DUP3 MSTORE POP POP JUMP JUMPDEST PUSH1 0x0 PUSH1 0x20 DUP3 ADD SWAP1 POP PUSH2 0x2E3 PUSH1 0x0 DUP4 ADD DUP5 PUSH2 0x2BF JUMP JUMPDEST SWAP3 SWAP2 POP POP JUMP JUMPDEST PUSH1 0x0 DUP3 DUP3 MSTORE PUSH1 0x20 DUP3 ADD SWAP1 POP SWAP3 SWAP2 POP POP JUMP JUMPDEST PUSH32 0x546F6B656E20616464726573732063616E6E6F74206265207A65726F00000000 PUSH1 0x0 DUP3 ADD MSTORE POP JUMP JUMPDEST PUSH1 0x0 PUSH2 0x330 PUSH1 0x1C DUP4 PUSH2 0x2E9 JUMP JUMPDEST SWAP2 POP PUSH2 0x33B DUP3 PUSH2 0x2FA JUMP JUMPDEST PUSH1 0x20 DUP3 ADD SWAP1 POP SWAP2 SWAP1 POP JUMP JUMPDEST PUSH1 0x0 PUSH1 0x20 DUP3 ADD SWAP1 POP DUP2 DUP2 SUB PUSH1 0x0 DUP4 ADD MSTORE PUSH2 0x35F DUP2 PUSH2 0x323 JUMP JUMPDEST SWAP1 POP SWAP2 SWAP1 POP JUMP JUMPDEST PUSH2 0xD75 DUP1 PUSH2 0x375 PUSH1 0x0 CODECOPY PUSH1 0x0 RETURN INVALID PUSH1 0x80 PUSH1 0x40 MSTORE CALLVALUE DUP1 ISZERO PUSH2 0x10 JUMPI PUSH1 0x0 DUP1 REVERT JUMPDEST POP PUSH1 0x4 CALLDATASIZE LT PUSH2 0x88 JUMPI PUSH1 0x0 CALLDATALOAD PUSH1 0xE0 SHR DUP1 PUSH4 0x8DA5CB5B GT PUSH2 0x5B JUMPI DUP1 PUSH4 0x8DA5CB5B EQ PUSH2 0xF0 JUMPI DUP1 PUSH4 0xA694FC3A EQ PUSH2 0x10E JUMPI DUP1 PUSH4 0xF2FDE38B EQ PUSH2 0x12A JUMPI DUP1 PUSH4 0xF41322AC EQ PUSH2 0x146 JUMPI PUSH2 0x88 JUMP JUMPDEST DUP1 PUSH4 0x16934FC4 EQ PUSH2 0x8D JUMPI DUP1 PUSH4 0x2DEF6620 EQ PUSH2 0xBE JUMPI DUP1 PUSH4 0x715018A6 EQ PUSH2 0xC8 JUMPI DUP1 PUSH4 0x72F702F3 EQ PUSH2 0xD2 JUMPI JUMPDEST PUSH1 0x0 DUP1 REVERT JUMPDEST PUSH2 0xA7 PUSH1 0x4 DUP1 CALLDATASIZE SUB DUP2 ADD SWAP1 PUSH2 0xA2 SWAP2 SWAP1 PUSH2 0x93B JUMP JUMPDEST PUSH2 0x177 JUMP JUMPDEST PUSH1 0x40 MLOAD PUSH2 0xB5 SWAP3 SWAP2 SWAP1 PUSH2 0x981 JUMP JUMPDEST PUSH1 0x40 MLOAD DUP1 SWAP2 SUB SWAP1 RETURN JUMPDEST PUSH2 0xC6 PUSH2 0x19B JUMP JUMPDEST STOP JUMPDEST PUSH2 0xD0 PUSH2 0x40E JUMP JUMPDEST STOP JUMPDEST PUSH2 0xDA PUSH2 0x422 JUMP JUMPDEST PUSH1 0x40 MLOAD PUSH2 0xE7 SWAP2 SWAP1 PUSH2 0xA09 JUMP JUMPDEST PUSH1 0x40 MLOAD DUP1 SWAP2 SUB SWAP1 RETURN JUMPDEST PUSH2 0xF8 PUSH2 0x448 JUMP JUMPDEST PUSH1 0x40 MLOAD PUSH2 0x105 SWAP2 SWAP1 PUSH2 0xA33 JUMP JUMPDEST PUSH1 0x40 MLOAD DUP1 SWAP2 SUB SWAP1 RETURN JUMPDEST PUSH2 0x128 PUSH1 0x4 DUP1 CALLDATASIZE SUB DUP2 ADD SWAP1 PUSH2 0x123 SWAP2 SWAP1 PUSH2 0xA7A JUMP JUMPDEST PUSH2 0x471 JUMP JUMPDEST STOP JUMPDEST PUSH2 0x144 PUSH1 0x4 DUP1 CALLDATASIZE SUB DUP2 ADD SWAP1 PUSH2 0x13F SWAP2 SWAP1 PUSH2 0x93B JUMP JUMPDEST PUSH2 0x686 JUMP JUMPDEST STOP JUMPDEST PUSH2 0x160 PUSH1 0x4 DUP1 CALLDATASIZE SUB DUP2 ADD SWAP1 PUSH2 0x15B SWAP2 SWAP1 PUSH2 0x93B JUMP JUMPDEST PUSH2 0x70C JUMP JUMPDEST PUSH1 0x40 MLOAD PUSH2 0x16E SWAP3 SWAP2 SWAP1 PUSH2 0x981 JUMP JUMPDEST PUSH1 0x40 MLOAD DUP1 SWAP2 SUB SWAP1 RETURN JUMPDEST PUSH1 0x2 PUSH1 0x20 MSTORE DUP1 PUSH1 0x0 MSTORE PUSH1 0x40 PUSH1 0x0 KECCAK256 PUSH1 0x0 SWAP2 POP SWAP1 POP DUP1 PUSH1 0x0 ADD SLOAD SWAP1 DUP1 PUSH1 0x1 ADD SLOAD SWAP1 POP DUP3 JUMP JUMPDEST PUSH1 0x0 PUSH1 0x2 PUSH1 0x0 CALLER PUSH20 0xFFFFFFFFFFFFFFFFFFFFFFFFFFFFFFFFFFFFFFFF AND PUSH20 0xFFFFFFFFFFFFFFFFFFFFFFFFFFFFFFFFFFFFFFFF AND DUP2 MSTORE PUSH1 0x20 ADD SWAP1 DUP2 MSTORE PUSH1 0x20 ADD PUSH1 0x0 KECCAK256 PUSH1 0x40 MLOAD DUP1 PUSH1 0x40 ADD PUSH1 0x40 MSTORE SWAP1 DUP2 PUSH1 0x0 DUP3 ADD SLOAD DUP2 MSTORE PUSH1 0x20 ADD PUSH1 0x1 DUP3 ADD SLOAD DUP2 MSTORE POP POP SWAP1 POP PUSH1 0x0 DUP2 PUSH1 0x0 ADD MLOAD GT PUSH2 0x244 JUMPI PUSH1 0x40 MLOAD PUSH32 0x8C379A000000000000000000000000000000000000000000000000000000000 DUP2 MSTORE PUSH1 0x4 ADD PUSH2 0x23B SWAP1 PUSH2 0xB04 JUMP JUMPDEST PUSH1 0x40 MLOAD DUP1 SWAP2 SUB SWAP1 REVERT JUMPDEST PUSH1 0x0 DUP2 PUSH1 0x0 ADD MLOAD SWAP1 POP PUSH1 0x0 PUSH1 0x2 PUSH1 0x0 CALLER PUSH20 0xFFFFFFFFFFFFFFFFFFFFFFFFFFFFFFFFFFFFFFFF AND PUSH20 0xFFFFFFFFFFFFFFFFFFFFFFFFFFFFFFFFFFFFFFFF AND DUP2 MSTORE PUSH1 0x20 ADD SWAP1 DUP2 MSTORE PUSH1 0x20 ADD PUSH1 0x0 KECCAK256 PUSH1 0x0 ADD DUP2 SWAP1 SSTORE POP PUSH1 0x0 PUSH1 0x2 PUSH1 0x0 CALLER PUSH20 0xFFFFFFFFFFFFFFFFFFFFFFFFFFFFFFFFFFFFFFFF AND PUSH20 0xFFFFFFFFFFFFFFFFFFFFFFFFFFFFFFFFFFFFFFFF AND DUP2 MSTORE PUSH1 0x20 ADD SWAP1 DUP2 MSTORE PUSH1 0x20 ADD PUSH1 0x0 KECCAK256 PUSH1 0x1 ADD DUP2 SWAP1 SSTORE POP PUSH1 0x1 PUSH1 0x0 SWAP1 SLOAD SWAP1 PUSH2 0x100 EXP SWAP1 DIV PUSH20 0xFFFFFFFFFFFFFFFFFFFFFFFFFFFFFFFFFFFFFFFF AND PUSH20 0xFFFFFFFFFFFFFFFFFFFFFFFFFFFFFFFFFFFFFFFF AND PUSH4 0xA9059CBB CALLER DUP4 PUSH1 0x40 MLOAD DUP4 PUSH4 0xFFFFFFFF AND PUSH1 0xE0 SHL DUP2 MSTORE PUSH1 0x4 ADD PUSH2 0x33A SWAP3 SWAP2 SWAP1 PUSH2 0xB24 JUMP JUMPDEST PUSH1 0x20 PUSH1 0x40 MLOAD DUP1 DUP4 SUB DUP2 PUSH1 0x0 DUP8 GAS CALL ISZERO DUP1 ISZERO PUSH2 0x359 JUMPI RETURNDATASIZE PUSH1 0x0 DUP1 RETURNDATACOPY RETURNDATASIZE PUSH1 0x0 REVERT JUMPDEST POP POP POP POP PUSH1 0x40 MLOAD RETURNDATASIZE PUSH1 0x1F NOT PUSH1 0x1F DUP3 ADD AND DUP3 ADD DUP1 PUSH1 0x40 MSTORE POP DUP2 ADD SWAP1 PUSH2 0x37D SWAP2 SWAP1 PUSH2 0xB85 JUMP JUMPDEST PUSH2 0x3BC JUMPI PUSH1 0x40 MLOAD PUSH32 0x8C379A000000000000000000000000000000000000000000000000000000000 DUP2 MSTORE PUSH1 0x4 ADD PUSH2 0x3B3 SWAP1 PUSH2 0xBFE JUMP JUMPDEST PUSH1 0x40 MLOAD DUP1 SWAP2 SUB SWAP1 REVERT JUMPDEST CALLER PUSH20 0xFFFFFFFFFFFFFFFFFFFFFFFFFFFFFFFFFFFFFFFF AND PUSH32 0xF5BB82176FEB1B5E747E28471AA92156A04D9F3AB9F45F28E2D704232B93F75 DUP3 PUSH1 0x40 MLOAD PUSH2 0x402 SWAP2 SWAP1 PUSH2 0xC1E JUMP JUMPDEST PUSH1 0x40 MLOAD DUP1 SWAP2 SUB SWAP1 LOG2 POP POP JUMP JUMPDEST PUSH2 0x416 PUSH2 0x785 JUMP JUMPDEST PUSH2 0x420 PUSH1 0x0 PUSH2 0x80C JUMP JUMPDEST JUMP JUMPDEST PUSH1 0x1 PUSH1 0x0 SWAP1 SLOAD SWAP1 PUSH2 0x100 EXP SWAP1 DIV PUSH20 0xFFFFFFFFFFFFFFFFFFFFFFFFFFFFFFFFFFFFFFFF AND DUP2 JUMP JUMPDEST PUSH1 0x0 DUP1 PUSH1 0x0 SWAP1 SLOAD SWAP1 PUSH2 0x100 EXP SWAP1 DIV PUSH20 0xFFFFFFFFFFFFFFFFFFFFFFFFFFFFFFFFFFFFFFFF AND SWAP1 POP SWAP1 JUMP JUMPDEST PUSH1 0x0 DUP2 GT PUSH2 0x4B4 JUMPI PUSH1 0x40 MLOAD PUSH32 0x8C379A000000000000000000000000000000000000000000000000000000000 DUP2 MSTORE PUSH1 0x4 ADD PUSH2 0x4AB SWAP1 PUSH2 0xC85 JUMP JUMPDEST PUSH1 0x40 MLOAD DUP1 SWAP2 SUB SWAP1 REVERT JUMPDEST PUSH1 0x1 PUSH1 0x0 SWAP1 SLOAD SWAP1 PUSH2 0x100 EXP SWAP1 DIV PUSH20 0xFFFFFFFFFFFFFFFFFFFFFFFFFFFFFFFFFFFFFFFF AND PUSH20 0xFFFFFFFFFFFFFFFFFFFFFFFFFFFFFFFFFFFFFFFF AND PUSH4 0x23B872DD CALLER ADDRESS DUP5 PUSH1 0x40 MLOAD DUP5 PUSH4 0xFFFFFFFF AND PUSH1 0xE0 SHL DUP2 MSTORE PUSH1 0x4 ADD PUSH2 0x513 SWAP4 SWAP3 SWAP2 SWAP1 PUSH2 0xCA5 JUMP JUMPDEST PUSH1 0x20 PUSH1 0x40 MLOAD DUP1 DUP4 SUB DUP2 PUSH1 0x0 DUP8 GAS CALL ISZERO DUP1 ISZERO PUSH2 0x532 JUMPI RETURNDATASIZE PUSH1 0x0 DUP1 RETURNDATACOPY RETURNDATASIZE PUSH1 0x0 REVERT JUMPDEST POP POP POP POP PUSH1 0x40 MLOAD RETURNDATASIZE PUSH1 0x1F NOT PUSH1 0x1F DUP3 ADD AND DUP3 ADD DUP1 PUSH1 0x40 MSTORE POP DUP2 ADD SWAP1 PUSH2 0x556 SWAP2 SWAP1 PUSH2 0xB85 JUMP JUMPDEST PUSH2 0x595 JUMPI PUSH1 0x40 MLOAD PUSH32 0x8C379A000000000000000000000000000000000000000000000000000000000 DUP2 MSTORE PUSH1 0x4 ADD PUSH2 0x58C SWAP1 PUSH2 0xBFE JUMP JUMPDEST PUSH1 0x40 MLOAD DUP1 SWAP2 SUB SWAP1 REVERT JUMPDEST DUP1 PUSH1 0x2 PUSH1 0x0 CALLER PUSH20 0xFFFFFFFFFFFFFFFFFFFFFFFFFFFFFFFFFFFFFFFF AND PUSH20 0xFFFFFFFFFFFFFFFFFFFFFFFFFFFFFFFFFFFFFFFF AND DUP2 MSTORE PUSH1 0x20 ADD SWAP1 DUP2 MSTORE PUSH1 0x20 ADD PUSH1 0x0 KECCAK256 PUSH1 0x0 ADD PUSH1 0x0 DUP3 DUP3 SLOAD PUSH2 0x5E7 SWAP2 SWAP1 PUSH2 0xD0B JUMP JUMPDEST SWAP3 POP POP DUP2 SWAP1 SSTORE POP TIMESTAMP PUSH1 0x2 PUSH1 0x0 CALLER PUSH20 0xFFFFFFFFFFFFFFFFFFFFFFFFFFFFFFFFFFFFFFFF AND PUSH20 0xFFFFFFFFFFFFFFFFFFFFFFFFFFFFFFFFFFFFFFFF AND DUP2 MSTORE PUSH1 0x20 ADD SWAP1 DUP2 MSTORE PUSH1 0x20 ADD PUSH1 0x0 KECCAK256 PUSH1 0x1 ADD DUP2 SWAP1 SSTORE POP CALLER PUSH20 0xFFFFFFFFFFFFFFFFFFFFFFFFFFFFFFFFFFFFFFFF AND PUSH32 0x9E71BC8EEA02A63969F509818F2DAFB9254532904319F9DBDA79B67BD34A5F3D DUP3 PUSH1 0x40 MLOAD PUSH2 0x67B SWAP2 SWAP1 PUSH2 0xC1E JUMP JUMPDEST PUSH1 0x40 MLOAD DUP1 SWAP2 SUB SWAP1 LOG2 POP JUMP JUMPDEST PUSH2 0x68E PUSH2 0x785 JUMP JUMPDEST PUSH1 0x0 PUSH20 0xFFFFFFFFFFFFFFFFFFFFFFFFFFFFFFFFFFFFFFFF AND DUP2 PUSH20 0xFFFFFFFFFFFFFFFFFFFFFFFFFFFFFFFFFFFFFFFF AND SUB PUSH2 0x700 JUMPI PUSH1 0x0 PUSH1 0x40 MLOAD PUSH32 0x1E4FBDF700000000000000000000000000000000000000000000000000000000 DUP2 MSTORE PUSH1 0x4 ADD PUSH2 0x6F7 SWAP2 SWAP1 PUSH2 0xA33 JUMP JUMPDEST PUSH1 0x40 MLOAD DUP1 SWAP2 SUB SWAP1 REVERT JUMPDEST PUSH2 0x709 DUP2 PUSH2 0x80C JUMP JUMPDEST POP JUMP JUMPDEST PUSH1 0x0 DUP1 PUSH1 0x0 PUSH1 0x2 PUSH1 0x0 DUP6 PUSH20 0xFFFFFFFFFFFFFFFFFFFFFFFFFFFFFFFFFFFFFFFF AND PUSH20 0xFFFFFFFFFFFFFFFFFFFFFFFFFFFFFFFFFFFFFFFF AND DUP2 MSTORE PUSH1 0x20 ADD SWAP1 DUP2 MSTORE PUSH1 0x20 ADD PUSH1 0x0 KECCAK256 PUSH1 0x40 MLOAD DUP1 PUSH1 0x40 ADD PUSH1 0x40 MSTORE SWAP1 DUP2 PUSH1 0x0 DUP3 ADD SLOAD DUP2 MSTORE PUSH1 0x20 ADD PUSH1 0x1 DUP3 ADD SLOAD DUP2 MSTORE POP POP SWAP1 POP DUP1 PUSH1 0x0 ADD MLOAD DUP2 PUSH1 0x20 ADD MLOAD SWAP3 POP SWAP3 POP POP SWAP2 POP SWAP2 JUMP JUMPDEST PUSH2 0x78D PUSH2 0x8D0 JUMP JUMPDEST PUSH20 0xFFFFFFFFFFFFFFFFFFFFFFFFFFFFFFFFFFFFFFFF AND PUSH2 0x7AB PUSH2 0x448 JUMP JUMPDEST PUSH20 0xFFFFFFFFFFFFFFFFFFFFFFFFFFFFFFFFFFFFFFFF AND EQ PUSH2 0x80A JUMPI PUSH2 0x7CE PUSH2 0x8D0 JUMP JUMPDEST PUSH1 0x40 MLOAD PUSH32 0x118CDAA700000000000000000000000000000000000000000000000000000000 DUP2 MSTORE PUSH1 0x4 ADD PUSH2 0x801 SWAP2 SWAP1 PUSH2 0xA33 JUMP JUMPDEST PUSH1 0x40 MLOAD DUP1 SWAP2 SUB SWAP1 REVERT JUMPDEST JUMP JUMPDEST PUSH1 0x0 DUP1 PUSH1 0x0 SWAP1 SLOAD SWAP1 PUSH2 0x100 EXP SWAP1 DIV PUSH20 0xFFFFFFFFFFFFFFFFFFFFFFFFFFFFFFFFFFFFFFFF AND SWAP1 POP DUP2 PUSH1 0x0 DUP1 PUSH2 0x100 EXP DUP2 SLOAD DUP2 PUSH20 0xFFFFFFFFFFFFFFFFFFFFFFFFFFFFFFFFFFFFFFFF MUL NOT AND SWAP1 DUP4 PUSH20 0xFFFFFFFFFFFFFFFFFFFFFFFFFFFFFFFFFFFFFFFF AND MUL OR SWAP1 SSTORE POP DUP2 PUSH20 0xFFFFFFFFFFFFFFFFFFFFFFFFFFFFFFFFFFFFFFFF AND DUP2 PUSH20 0xFFFFFFFFFFFFFFFFFFFFFFFFFFFFFFFFFFFFFFFF AND PUSH32 0x8BE0079C531659141344CD1FD0A4F28419497F9722A3DAAFE3B4186F6B6457E0 PUSH1 0x40 MLOAD PUSH1 0x40 MLOAD DUP1 SWAP2 SUB SWAP1 LOG3 POP POP JUMP JUMPDEST PUSH1 0x0 CALLER SWAP1 POP SWAP1 JUMP JUMPDEST PUSH1 0x0 DUP1 REVERT JUMPDEST PUSH1 0x0 PUSH20 0xFFFFFFFFFFFFFFFFFFFFFFFFFFFFFFFFFFFFFFFF DUP3 AND SWAP1 POP SWAP2 SWAP1 POP JUMP JUMPDEST PUSH1 0x0 PUSH2 0x908 DUP3 PUSH2 0x8DD JUMP JUMPDEST SWAP1 POP SWAP2 SWAP1 POP JUMP JUMPDEST PUSH2 0x918 DUP2 PUSH2 0x8FD JUMP JUMPDEST DUP2 EQ PUSH2 0x923 JUMPI PUSH1 0x0 DUP1 REVERT JUMPDEST POP JUMP JUMPDEST PUSH1 0x0 DUP2 CALLDATALOAD SWAP1 POP PUSH2 0x935 DUP2 PUSH2 0x90F JUMP JUMPDEST SWAP3 SWAP2 POP POP JUMP JUMPDEST PUSH1 0x0 PUSH1 0x20 DUP3 DUP5 SUB SLT ISZERO PUSH2 0x951 JUMPI PUSH2 0x950 PUSH2 0x8D8 JUMP JUMPDEST JUMPDEST PUSH1 0x0 PUSH2 0x95F DUP5 DUP3 DUP6 ADD PUSH2 0x926 JUMP JUMPDEST SWAP2 POP POP SWAP3 SWAP2 POP POP JUMP JUMPDEST PUSH1 0x0 DUP2 SWAP1 POP SWAP2 SWAP1 POP JUMP JUMPDEST PUSH2 0x97B DUP2 PUSH2 0x968 JUMP JUMPDEST DUP3 MSTORE POP POP JUMP JUMPDEST PUSH1 0x0 PUSH1 0x40 DUP3 ADD SWAP1 POP PUSH2 0x996 PUSH1 0x0 DUP4 ADD DUP6 PUSH2 0x972 JUMP JUMPDEST PUSH2 0x9A3 PUSH1 0x20 DUP4 ADD DUP5 PUSH2 0x972 JUMP JUMPDEST SWAP4 SWAP3 POP POP POP JUMP JUMPDEST PUSH1 0x0 DUP2 SWAP1 POP SWAP2 SWAP1 POP JUMP JUMPDEST PUSH1 0x0 PUSH2 0x9CF PUSH2 0x9CA PUSH2 0x9C5 DUP5 PUSH2 0x8DD JUMP JUMPDEST PUSH2 0x9AA JUMP JUMPDEST PUSH2 0x8DD JUMP JUMPDEST SWAP1 POP SWAP2 SWAP1 POP JUMP JUMPDEST PUSH1 0x0 PUSH2 0x9E1 DUP3 PUSH2 0x9B4 JUMP JUMPDEST SWAP1 POP SWAP2 SWAP1 POP JUMP JUMPDEST PUSH1 0x0 PUSH2 0x9F3 DUP3 PUSH2 0x9D6 JUMP JUMPDEST SWAP1 POP SWAP2 SWAP1 POP JUMP JUMPDEST PUSH2 0xA03 DUP2 PUSH2 0x9E8 JUMP JUMPDEST DUP3 MSTORE POP POP JUMP JUMPDEST PUSH1 0x0 PUSH1 0x20 DUP3 ADD SWAP1 POP PUSH2 0xA1E PUSH1 0x0 DUP4 ADD DUP5 PUSH2 0x9FA JUMP JUMPDEST SWAP3 SWAP2 POP POP JUMP JUMPDEST PUSH2 0xA2D DUP2 PUSH2 0x8FD JUMP JUMPDEST DUP3 MSTORE POP POP JUMP JUMPDEST PUSH1 0x0 PUSH1 0x20 DUP3 ADD SWAP1 POP PUSH2 0xA48 PUSH1 0x0 DUP4 ADD DUP5 PUSH2 0xA24 JUMP JUMPDEST SWAP3 SWAP2 POP POP JUMP JUMPDEST PUSH2 0xA57 DUP2 PUSH2 0x968 JUMP JUMPDEST DUP2 EQ PUSH2 0xA62 JUMPI PUSH1 0x0 DUP1 REVERT JUMPDEST POP JUMP JUMPDEST PUSH1 0x0 DUP2 CALLDATALOAD SWAP1 POP PUSH2 0xA74 DUP2 PUSH2 0xA4E JUMP JUMPDEST SWAP3 SWAP2 POP POP JUMP JUMPDEST PUSH1 0x0 PUSH1 0x20 DUP3 DUP5 SUB SLT ISZERO PUSH2 0xA90 JUMPI PUSH2 0xA8F PUSH2 0x8D8 JUMP JUMPDEST JUMPDEST PUSH1 0x0 PUSH2 0xA9E DUP5 DUP3 DUP6 ADD PUSH2 0xA65 JUMP JUMPDEST SWAP2 POP POP SWAP3 SWAP2 POP POP JUMP JUMPDEST PUSH1 0x0 DUP3 DUP3 MSTORE PUSH1 0x20 DUP3 ADD SWAP1 POP SWAP3 SWAP2 POP POP JUMP JUMPDEST PUSH32 0x4E6F20746F6B656E7320746F20756E7374616B65000000000000000000000000 PUSH1 0x0 DUP3 ADD MSTORE POP JUMP JUMPDEST PUSH1 0x0 PUSH2 0xAEE PUSH1 0x14 DUP4 PUSH2 0xAA7 JUMP JUMPDEST SWAP2 POP PUSH2 0xAF9 DUP3 PUSH2 0xAB8 JUMP JUMPDEST PUSH1 0x20 DUP3 ADD SWAP1 POP SWAP2 SWAP1 POP JUMP JUMPDEST PUSH1 0x0 PUSH1 0x20 DUP3 ADD SWAP1 POP DUP2 DUP2 SUB PUSH1 0x0 DUP4 ADD MSTORE PUSH2 0xB1D DUP2 PUSH2 0xAE1 JUMP JUMPDEST SWAP1 POP SWAP2 SWAP1 POP JUMP JUMPDEST PUSH1 0x0 PUSH1 0x40 DUP3 ADD SWAP1 POP PUSH2 0xB39 PUSH1 0x0 DUP4 ADD DUP6 PUSH2 0xA24 JUMP JUMPDEST PUSH2 0xB46 PUSH1 0x20 DUP4 ADD DUP5 PUSH2 0x972 JUMP JUMPDEST SWAP4 SWAP3 POP POP POP JUMP JUMPDEST PUSH1 0x0 DUP2 ISZERO ISZERO SWAP1 POP SWAP2 SWAP1 POP JUMP JUMPDEST PUSH2 0xB62 DUP2 PUSH2 0xB4D JUMP JUMPDEST DUP2 EQ PUSH2 0xB6D JUMPI PUSH1 0x0 DUP1 REVERT JUMPDEST POP JUMP JUMPDEST PUSH1 0x0 DUP2 MLOAD SWAP1 POP PUSH2 0xB7F DUP2 PUSH2 0xB59 JUMP JUMPDEST SWAP3 SWAP2 POP POP JUMP JUMPDEST PUSH1 0x0 PUSH1 0x20 DUP3 DUP5 SUB SLT ISZERO PUSH2 0xB9B JUMPI PUSH2 0xB9A PUSH2 0x8D8 JUMP JUMPDEST JUMPDEST PUSH1 0x0 PUSH2 0xBA9 DUP5 DUP3 DUP6 ADD PUSH2 0xB70 JUMP JUMPDEST SWAP2 POP POP SWAP3 SWAP2 POP POP JUMP JUMPDEST PUSH32 0x546F6B656E207472616E73666572206661696C65640000000000000000000000 PUSH1 0x0 DUP3 ADD MSTORE POP JUMP JUMPDEST PUSH1 0x0 PUSH2 0xBE8 PUSH1 0x15 DUP4 PUSH2 0xAA7 JUMP JUMPDEST SWAP2 POP PUSH2 0xBF3 DUP3 PUSH2 0xBB2 JUMP JUMPDEST PUSH1 0x20 DUP3 ADD SWAP1 POP SWAP2 SWAP1 POP JUMP JUMPDEST PUSH1 0x0 PUSH1 0x20 DUP3 ADD SWAP1 POP DUP2 DUP2 SUB PUSH1 0x0 DUP4 ADD MSTORE PUSH2 0xC17 DUP2 PUSH2 0xBDB JUMP JUMPDEST SWAP1 POP SWAP2 SWAP1 POP JUMP JUMPDEST PUSH1 0x0 PUSH1 0x20 DUP3 ADD SWAP1 POP PUSH2 0xC33 PUSH1 0x0 DUP4 ADD DUP5 PUSH2 0x972 JUMP JUMPDEST SWAP3 SWAP2 POP POP JUMP JUMPDEST PUSH32 0x416D6F756E74206D7573742062652067726561746572207468616E2030000000 PUSH1 0x0 DUP3 ADD MSTORE POP JUMP JUMPDEST PUSH1 0x0 PUSH2 0xC6F PUSH1 0x1D DUP4 PUSH2 0xAA7 JUMP JUMPDEST SWAP2 POP PUSH2 0xC7A DUP3 PUSH2 0xC39 JUMP JUMPDEST PUSH1 0x20 DUP3 ADD SWAP1 POP SWAP2 SWAP1 POP JUMP JUMPDEST PUSH1 0x0 PUSH1 0x20 DUP3 ADD SWAP1 POP DUP2 DUP2 SUB PUSH1 0x0 DUP4 ADD MSTORE PUSH2 0xC9E DUP2 PUSH2 0xC62 JUMP JUMPDEST SWAP1 POP SWAP2 SWAP1 POP JUMP JUMPDEST PUSH1 0x0 PUSH1 0x60 DUP3 ADD SWAP1 POP PUSH2 0xCBA PUSH1 0x0 DUP4 ADD DUP7 PUSH2 0xA24 JUMP JUMPDEST PUSH2 0xCC7 PUSH1 0x20 DUP4 ADD DUP6 PUSH2 0xA24 JUMP JUMPDEST PUSH2 0xCD4 PUSH1 0x40 DUP4 ADD DUP5 PUSH2 0x972 JUMP JUMPDEST SWAP5 SWAP4 POP POP POP POP JUMP JUMPDEST PUSH32 0x4E487B7100000000000000000000000000000000000000000000000000000000 PUSH1 0x0 MSTORE PUSH1 0x11 PUSH1 0x4 MSTORE PUSH1 0x24 PUSH1 0x0 REVERT JUMPDEST PUSH1 0x0 PUSH2 0xD16 DUP3 PUSH2 0x968 JUMP JUMPDEST SWAP2 POP PUSH2 0xD21 DUP4 PUSH2 0x968 JUMP JUMPDEST SWAP3 POP DUP3 DUP3 ADD SWAP1 POP DUP1 DUP3 GT ISZERO PUSH2 0xD39 JUMPI PUSH2 0xD38 PUSH2 0xCDC JUMP JUMPDEST JUMPDEST SWAP3 SWAP2 POP POP JUMP INVALID LOG2 PUSH5 0x6970667358 0x22 SLT KECCAK256 OR BLOBHASH LOG4 ISZERO 0xCE SLOAD SHL 0x28 0xFB SLT PUSH2 0x8E98 CALLER PUSH29 0x6C6669562F23D25AED7FFCC21EDE3BDC7064736F6C634300081C003300 "
				},
				"gasEstimates": {
					"creation": {
						"codeDepositCost": "689000",
						"executionCost": "infinite",
						"totalCost": "infinite"
					},
					"external": {
						"getStakeDetails(address)": "infinite",
						"owner()": "2522",
						"renounceOwnership()": "infinite",
						"stake(uint256)": "infinite",
						"stakes(address)": "infinite",
						"stakingToken()": "infinite",
						"transferOwnership(address)": "infinite",
						"unstake()": "infinite"
					}
				},
				"methodIdentifiers": {
					"getStakeDetails(address)": "f41322ac",
					"owner()": "8da5cb5b",
					"renounceOwnership()": "715018a6",
					"stake(uint256)": "a694fc3a",
					"stakes(address)": "16934fc4",
					"stakingToken()": "72f702f3",
					"transferOwnership(address)": "f2fde38b",
					"unstake()": "2def6620"
				}
			},
			"storageLayout": {
				"storage": [
					{
						"astId": 8,
						"contract": "Contrat_de_Stacking.sol:GenericStaking",
						"label": "_owner",
						"offset": 0,
						"slot": "0",
						"type": "t_address"
					},
					{
						"astId": 268,
						"contract": "Contrat_de_Stacking.sol:GenericStaking",
						"label": "stakingToken",
						"offset": 0,
						"slot": "1",
						"type": "t_contract(IERC20)225"
					},
					{
						"astId": 278,
						"contract": "Contrat_de_Stacking.sol:GenericStaking",
						"label": "stakes",
						"offset": 0,
						"slot": "2",
						"type": "t_mapping(t_address,t_struct(Stake)273_storage)"
					}
				],
				"types": {
					"t_address": {
						"encoding": "inplace",
						"label": "address",
						"numberOfBytes": "20"
					},
					"t_contract(IERC20)225": {
						"encoding": "inplace",
						"label": "contract IERC20",
						"numberOfBytes": "20"
					},
					"t_mapping(t_address,t_struct(Stake)273_storage)": {
						"encoding": "mapping",
						"key": "t_address",
						"label": "mapping(address => struct GenericStaking.Stake)",
						"numberOfBytes": "32",
						"value": "t_struct(Stake)273_storage"
					},
					"t_struct(Stake)273_storage": {
						"encoding": "inplace",
						"label": "struct GenericStaking.Stake",
						"members": [
							{
								"astId": 270,
								"contract": "Contrat_de_Stacking.sol:GenericStaking",
								"label": "amount",
								"offset": 0,
								"slot": "0",
								"type": "t_uint256"
							},
							{
								"astId": 272,
								"contract": "Contrat_de_Stacking.sol:GenericStaking",
								"label": "timestamp",
								"offset": 0,
								"slot": "1",
								"type": "t_uint256"
							}
						],
						"numberOfBytes": "64"
					},
					"t_uint256": {
						"encoding": "inplace",
						"label": "uint256",
						"numberOfBytes": "32"
					}
				}
			},
			"userdoc": {
				"kind": "user",
				"methods": {
					"constructor": {
						"notice": "Set the token to be used for staking"
					},
					"getStakeDetails(address)": {
						"notice": "Get the stake details for a user"
					},
					"stake(uint256)": {
						"notice": "Stake a specific amount of tokens"
					},
					"unstake()": {
						"notice": "Unstake all tokens that the user has staked"
					}
				},
				"version": 1
			}
		}
	}
}