{
	"TOKEN SWAP/Test.sol": {
		"SimpleTokenSwap": {
			"abi": [
				{
					"inputs": [
						{
							"internalType": "address",
							"name": "_swapRouter",
							"type": "address"
						},
						{
							"internalType": "address",
							"name": "_WETH",
							"type": "address"
						}
					],
					"stateMutability": "nonpayable",
					"type": "constructor"
				},
				{
					"inputs": [],
					"name": "WETH",
					"outputs": [
						{
							"internalType": "address",
							"name": "",
							"type": "address"
						}
					],
					"stateMutability": "view",
					"type": "function"
				},
				{
					"inputs": [
						{
							"internalType": "address",
							"name": "tokenIn",
							"type": "address"
						},
						{
							"internalType": "address",
							"name": "tokenOut",
							"type": "address"
						},
						{
							"internalType": "uint256",
							"name": "amountIn",
							"type": "uint256"
						},
						{
							"internalType": "uint256",
							"name": "amountOutMinimum",
							"type": "uint256"
						},
						{
							"internalType": "address",
							"name": "recipient",
							"type": "address"
						}
					],
					"name": "swap",
					"outputs": [],
					"stateMutability": "nonpayable",
					"type": "function"
				},
				{
					"inputs": [],
					"name": "swapRouter",
					"outputs": [
						{
							"internalType": "contract ISwapRouter",
							"name": "",
							"type": "address"
						}
					],
					"stateMutability": "view",
					"type": "function"
				}
			],
			"devdoc": {
				"kind": "dev",
				"methods": {},
				"version": 1
			},
			"evm": {
				"assembly": "    /* \"TOKEN SWAP/Test.sol\":7146:8825  contract SimpleTokenSwap {... */\n  mstore(0x40, 0x80)\n    /* \"TOKEN SWAP/Test.sol\":7322:7449  constructor(address _swapRouter, address _WETH) {... */\n  callvalue\n  dup1\n  iszero\n  tag_1\n  jumpi\n  0x00\n  dup1\n  revert\ntag_1:\n  pop\n  mload(0x40)\n  sub(codesize, bytecodeSize)\n  dup1\n  bytecodeSize\n  dup4\n  codecopy\n  dup2\n  dup2\n  add\n  0x40\n  mstore\n  dup2\n  add\n  swap1\n  tag_2\n  swap2\n  swap1\n  tag_3\n  jump\t// in\ntag_2:\n    /* \"TOKEN SWAP/Test.sol\":7406:7417  _swapRouter */\n  dup2\n    /* \"TOKEN SWAP/Test.sol\":7381:7391  swapRouter */\n  0x00\n  dup1\n    /* \"TOKEN SWAP/Test.sol\":7381:7418  swapRouter = ISwapRouter(_swapRouter) */\n  0x0100\n  exp\n  dup2\n  sload\n  dup2\n  0xffffffffffffffffffffffffffffffffffffffff\n  mul\n  not\n  and\n  swap1\n  dup4\n  0xffffffffffffffffffffffffffffffffffffffff\n  and\n  mul\n  or\n  swap1\n  sstore\n  pop\n    /* \"TOKEN SWAP/Test.sol\":7436:7441  _WETH */\n  dup1\n    /* \"TOKEN SWAP/Test.sol\":7429:7433  WETH */\n  0x01\n  0x00\n    /* \"TOKEN SWAP/Test.sol\":7429:7441  WETH = _WETH */\n  0x0100\n  exp\n  dup2\n  sload\n  dup2\n  0xffffffffffffffffffffffffffffffffffffffff\n  mul\n  not\n  and\n  swap1\n  dup4\n  0xffffffffffffffffffffffffffffffffffffffff\n  and\n  mul\n  or\n  swap1\n  sstore\n  pop\n    /* \"TOKEN SWAP/Test.sol\":7322:7449  constructor(address _swapRouter, address _WETH) {... */\n  pop\n  pop\n    /* \"TOKEN SWAP/Test.sol\":7146:8825  contract SimpleTokenSwap {... */\n  jump(tag_6)\n    /* \"#utility.yul\":88:205   */\ntag_8:\n    /* \"#utility.yul\":197:198   */\n  0x00\n    /* \"#utility.yul\":194:195   */\n  dup1\n    /* \"#utility.yul\":187:199   */\n  revert\n    /* \"#utility.yul\":334:460   */\ntag_10:\n    /* \"#utility.yul\":371:378   */\n  0x00\n    /* \"#utility.yul\":411:453   */\n  0xffffffffffffffffffffffffffffffffffffffff\n    /* \"#utility.yul\":404:409   */\n  dup3\n    /* \"#utility.yul\":400:454   */\n  and\n    /* \"#utility.yul\":389:454   */\n  swap1\n  pop\n    /* \"#utility.yul\":334:460   */\n  swap2\n  swap1\n  pop\n  jump\t// out\n    /* \"#utility.yul\":466:562   */\ntag_11:\n    /* \"#utility.yul\":503:510   */\n  0x00\n    /* \"#utility.yul\":532:556   */\n  tag_20\n    /* \"#utility.yul\":550:555   */\n  dup3\n    /* \"#utility.yul\":532:556   */\n  tag_10\n  jump\t// in\ntag_20:\n    /* \"#utility.yul\":521:556   */\n  swap1\n  pop\n    /* \"#utility.yul\":466:562   */\n  swap2\n  swap1\n  pop\n  jump\t// out\n    /* \"#utility.yul\":568:690   */\ntag_12:\n    /* \"#utility.yul\":641:665   */\n  tag_22\n    /* \"#utility.yul\":659:664   */\n  dup2\n    /* \"#utility.yul\":641:665   */\n  tag_11\n  jump\t// in\ntag_22:\n    /* \"#utility.yul\":634:639   */\n  dup2\n    /* \"#utility.yul\":631:666   */\n  eq\n    /* \"#utility.yul\":621:684   */\n  tag_23\n  jumpi\n    /* \"#utility.yul\":680:681   */\n  0x00\n    /* \"#utility.yul\":677:678   */\n  dup1\n    /* \"#utility.yul\":670:682   */\n  revert\n    /* \"#utility.yul\":621:684   */\ntag_23:\n    /* \"#utility.yul\":568:690   */\n  pop\n  jump\t// out\n    /* \"#utility.yul\":696:839   */\ntag_13:\n    /* \"#utility.yul\":753:758   */\n  0x00\n    /* \"#utility.yul\":784:790   */\n  dup2\n    /* \"#utility.yul\":778:791   */\n  mload\n    /* \"#utility.yul\":769:791   */\n  swap1\n  pop\n    /* \"#utility.yul\":800:833   */\n  tag_25\n    /* \"#utility.yul\":827:832   */\n  dup2\n    /* \"#utility.yul\":800:833   */\n  tag_12\n  jump\t// in\ntag_25:\n    /* \"#utility.yul\":696:839   */\n  swap3\n  swap2\n  pop\n  pop\n  jump\t// out\n    /* \"#utility.yul\":845:1352   */\ntag_3:\n    /* \"#utility.yul\":924:930   */\n  0x00\n    /* \"#utility.yul\":932:938   */\n  dup1\n    /* \"#utility.yul\":981:983   */\n  0x40\n    /* \"#utility.yul\":969:978   */\n  dup4\n    /* \"#utility.yul\":960:967   */\n  dup6\n    /* \"#utility.yul\":956:979   */\n  sub\n    /* \"#utility.yul\":952:984   */\n  slt\n    /* \"#utility.yul\":949:1068   */\n  iszero\n  tag_27\n  jumpi\n    /* \"#utility.yul\":987:1066   */\n  tag_28\n  tag_8\n  jump\t// in\ntag_28:\n    /* \"#utility.yul\":949:1068   */\ntag_27:\n    /* \"#utility.yul\":1107:1108   */\n  0x00\n    /* \"#utility.yul\":1132:1196   */\n  tag_29\n    /* \"#utility.yul\":1188:1195   */\n  dup6\n    /* \"#utility.yul\":1179:1185   */\n  dup3\n    /* \"#utility.yul\":1168:1177   */\n  dup7\n    /* \"#utility.yul\":1164:1186   */\n  add\n    /* \"#utility.yul\":1132:1196   */\n  tag_13\n  jump\t// in\ntag_29:\n    /* \"#utility.yul\":1122:1196   */\n  swap3\n  pop\n    /* \"#utility.yul\":1078:1206   */\n  pop\n    /* \"#utility.yul\":1245:1247   */\n  0x20\n    /* \"#utility.yul\":1271:1335   */\n  tag_30\n    /* \"#utility.yul\":1327:1334   */\n  dup6\n    /* \"#utility.yul\":1318:1324   */\n  dup3\n    /* \"#utility.yul\":1307:1316   */\n  dup7\n    /* \"#utility.yul\":1303:1325   */\n  add\n    /* \"#utility.yul\":1271:1335   */\n  tag_13\n  jump\t// in\ntag_30:\n    /* \"#utility.yul\":1261:1335   */\n  swap2\n  pop\n    /* \"#utility.yul\":1216:1345   */\n  pop\n    /* \"#utility.yul\":845:1352   */\n  swap3\n  pop\n  swap3\n  swap1\n  pop\n  jump\t// out\n    /* \"TOKEN SWAP/Test.sol\":7146:8825  contract SimpleTokenSwap {... */\ntag_6:\n  dataSize(sub_0)\n  dup1\n  dataOffset(sub_0)\n  0x00\n  codecopy\n  0x00\n  return\nstop\n\nsub_0: assembly {\n        /* \"TOKEN SWAP/Test.sol\":7146:8825  contract SimpleTokenSwap {... */\n      mstore(0x40, 0x80)\n      callvalue\n      dup1\n      iszero\n      tag_1\n      jumpi\n      0x00\n      dup1\n      revert\n    tag_1:\n      pop\n      jumpi(tag_2, lt(calldatasize, 0x04))\n      shr(0xe0, calldataload(0x00))\n      dup1\n      0xad5c4648\n      eq\n      tag_3\n      jumpi\n      dup1\n      0xc31c9c07\n      eq\n      tag_4\n      jumpi\n      dup1\n      0xd5bcb9b5\n      eq\n      tag_5\n      jumpi\n    tag_2:\n      0x00\n      dup1\n      revert\n        /* \"TOKEN SWAP/Test.sol\":7214:7233  address public WETH */\n    tag_3:\n      tag_6\n      tag_7\n      jump\t// in\n    tag_6:\n      mload(0x40)\n      tag_8\n      swap2\n      swap1\n      tag_9\n      jump\t// in\n    tag_8:\n      mload(0x40)\n      dup1\n      swap2\n      sub\n      swap1\n      return\n        /* \"TOKEN SWAP/Test.sol\":7178:7207  ISwapRouter public swapRouter */\n    tag_4:\n      tag_10\n      tag_11\n      jump\t// in\n    tag_10:\n      mload(0x40)\n      tag_12\n      swap2\n      swap1\n      tag_13\n      jump\t// in\n    tag_12:\n      mload(0x40)\n      dup1\n      swap2\n      sub\n      swap1\n      return\n        /* \"TOKEN SWAP/Test.sol\":7615:8822  function swap(... */\n    tag_5:\n      tag_14\n      0x04\n      dup1\n      calldatasize\n      sub\n      dup2\n      add\n      swap1\n      tag_15\n      swap2\n      swap1\n      tag_16\n      jump\t// in\n    tag_15:\n      tag_17\n      jump\t// in\n    tag_14:\n      stop\n        /* \"TOKEN SWAP/Test.sol\":7214:7233  address public WETH */\n    tag_7:\n      0x01\n      0x00\n      swap1\n      sload\n      swap1\n      0x0100\n      exp\n      swap1\n      div\n      0xffffffffffffffffffffffffffffffffffffffff\n      and\n      dup2\n      jump\t// out\n        /* \"TOKEN SWAP/Test.sol\":7178:7207  ISwapRouter public swapRouter */\n    tag_11:\n      0x00\n      dup1\n      sload\n      swap1\n      0x0100\n      exp\n      swap1\n      div\n      0xffffffffffffffffffffffffffffffffffffffff\n      and\n      dup2\n      jump\t// out\n        /* \"TOKEN SWAP/Test.sol\":7615:8822  function swap(... */\n    tag_17:\n        /* \"TOKEN SWAP/Test.sol\":7884:7891  tokenIn */\n      dup5\n        /* \"TOKEN SWAP/Test.sol\":7877:7905  IERC20(tokenIn).transferFrom */\n      0xffffffffffffffffffffffffffffffffffffffff\n      and\n      0x23b872dd\n        /* \"TOKEN SWAP/Test.sol\":7906:7916  msg.sender */\n      caller\n        /* \"TOKEN SWAP/Test.sol\":7926:7930  this */\n      address\n        /* \"TOKEN SWAP/Test.sol\":7933:7941  amountIn */\n      dup7\n        /* \"TOKEN SWAP/Test.sol\":7877:7942  IERC20(tokenIn).transferFrom(msg.sender, address(this), amountIn) */\n      mload(0x40)\n      dup5\n      0xffffffff\n      and\n      0xe0\n      shl\n      dup2\n      mstore\n      0x04\n      add\n      tag_19\n      swap4\n      swap3\n      swap2\n      swap1\n      tag_20\n      jump\t// in\n    tag_19:\n      0x20\n      mload(0x40)\n      dup1\n      dup4\n      sub\n      dup2\n      0x00\n      dup8\n      gas\n      call\n      iszero\n      dup1\n      iszero\n      tag_22\n      jumpi\n      returndatasize\n      0x00\n      dup1\n      returndatacopy\n      revert(0x00, returndatasize)\n    tag_22:\n      pop\n      pop\n      pop\n      pop\n      mload(0x40)\n      returndatasize\n      not(0x1f)\n      0x1f\n      dup3\n      add\n      and\n      dup3\n      add\n      dup1\n      0x40\n      mstore\n      pop\n      dup2\n      add\n      swap1\n      tag_23\n      swap2\n      swap1\n      tag_24\n      jump\t// in\n    tag_23:\n        /* \"TOKEN SWAP/Test.sol\":7869:7962  require(IERC20(tokenIn).transferFrom(msg.sender, address(this), amountIn), \"Transfer failed\") */\n      tag_25\n      jumpi\n      mload(0x40)\n      0x08c379a000000000000000000000000000000000000000000000000000000000\n      dup2\n      mstore\n      0x04\n      add\n      tag_26\n      swap1\n      tag_27\n      jump\t// in\n    tag_26:\n      mload(0x40)\n      dup1\n      swap2\n      sub\n      swap1\n      revert\n    tag_25:\n        /* \"TOKEN SWAP/Test.sol\":8056:8063  tokenIn */\n      dup5\n        /* \"TOKEN SWAP/Test.sol\":8049:8072  IERC20(tokenIn).approve */\n      0xffffffffffffffffffffffffffffffffffffffff\n      and\n      0x095ea7b3\n        /* \"TOKEN SWAP/Test.sol\":8081:8091  swapRouter */\n      0x00\n      dup1\n      sload\n      swap1\n      0x0100\n      exp\n      swap1\n      div\n      0xffffffffffffffffffffffffffffffffffffffff\n      and\n        /* \"TOKEN SWAP/Test.sol\":8094:8102  amountIn */\n      dup6\n        /* \"TOKEN SWAP/Test.sol\":8049:8103  IERC20(tokenIn).approve(address(swapRouter), amountIn) */\n      mload(0x40)\n      dup4\n      0xffffffff\n      and\n      0xe0\n      shl\n      dup2\n      mstore\n      0x04\n      add\n      tag_28\n      swap3\n      swap2\n      swap1\n      tag_29\n      jump\t// in\n    tag_28:\n      0x20\n      mload(0x40)\n      dup1\n      dup4\n      sub\n      dup2\n      0x00\n      dup8\n      gas\n      call\n      iszero\n      dup1\n      iszero\n      tag_31\n      jumpi\n      returndatasize\n      0x00\n      dup1\n      returndatacopy\n      revert(0x00, returndatasize)\n    tag_31:\n      pop\n      pop\n      pop\n      pop\n      mload(0x40)\n      returndatasize\n      not(0x1f)\n      0x1f\n      dup3\n      add\n      and\n      dup3\n      add\n      dup1\n      0x40\n      mstore\n      pop\n      dup2\n      add\n      swap1\n      tag_32\n      swap2\n      swap1\n      tag_24\n      jump\t// in\n    tag_32:\n        /* \"TOKEN SWAP/Test.sol\":8041:8123  require(IERC20(tokenIn).approve(address(swapRouter), amountIn), \"Approval failed\") */\n      tag_33\n      jumpi\n      mload(0x40)\n      0x08c379a000000000000000000000000000000000000000000000000000000000\n      dup2\n      mstore\n      0x04\n      add\n      tag_34\n      swap1\n      tag_35\n      jump\t// in\n    tag_34:\n      mload(0x40)\n      dup1\n      swap2\n      sub\n      swap1\n      revert\n    tag_33:\n        /* \"TOKEN SWAP/Test.sol\":8176:8224  ISwapRouter.ExactInputSingleParams memory params */\n      0x00\n        /* \"TOKEN SWAP/Test.sol\":8227:8579  ISwapRouter.ExactInputSingleParams({... */\n      mload(0x40)\n      dup1\n      0x0100\n      add\n      0x40\n      mstore\n      dup1\n        /* \"TOKEN SWAP/Test.sol\":8286:8293  tokenIn */\n      dup8\n        /* \"TOKEN SWAP/Test.sol\":8227:8579  ISwapRouter.ExactInputSingleParams({... */\n      0xffffffffffffffffffffffffffffffffffffffff\n      and\n      dup2\n      mstore\n      0x20\n      add\n        /* \"TOKEN SWAP/Test.sol\":8318:8326  tokenOut */\n      dup7\n        /* \"TOKEN SWAP/Test.sol\":8227:8579  ISwapRouter.ExactInputSingleParams({... */\n      0xffffffffffffffffffffffffffffffffffffffff\n      and\n      dup2\n      mstore\n      0x20\n      add\n        /* \"TOKEN SWAP/Test.sol\":8346:8350  3000 */\n      0x0bb8\n        /* \"TOKEN SWAP/Test.sol\":8227:8579  ISwapRouter.ExactInputSingleParams({... */\n      0xffffff\n      and\n      dup2\n      mstore\n      0x20\n      add\n        /* \"TOKEN SWAP/Test.sol\":8401:8410  recipient */\n      dup4\n        /* \"TOKEN SWAP/Test.sol\":8227:8579  ISwapRouter.ExactInputSingleParams({... */\n      0xffffffffffffffffffffffffffffffffffffffff\n      and\n      dup2\n      mstore\n      0x20\n      add\n        /* \"TOKEN SWAP/Test.sol\":8435:8450  block.timestamp */\n      timestamp\n        /* \"TOKEN SWAP/Test.sol\":8227:8579  ISwapRouter.ExactInputSingleParams({... */\n      dup2\n      mstore\n      0x20\n      add\n        /* \"TOKEN SWAP/Test.sol\":8475:8483  amountIn */\n      dup6\n        /* \"TOKEN SWAP/Test.sol\":8227:8579  ISwapRouter.ExactInputSingleParams({... */\n      dup2\n      mstore\n      0x20\n      add\n        /* \"TOKEN SWAP/Test.sol\":8516:8532  amountOutMinimum */\n      dup5\n        /* \"TOKEN SWAP/Test.sol\":8227:8579  ISwapRouter.ExactInputSingleParams({... */\n      dup2\n      mstore\n      0x20\n      add\n        /* \"TOKEN SWAP/Test.sol\":8566:8567  0 */\n      0x00\n        /* \"TOKEN SWAP/Test.sol\":8227:8579  ISwapRouter.ExactInputSingleParams({... */\n      0xffffffffffffffffffffffffffffffffffffffff\n      and\n      dup2\n      mstore\n      pop\n        /* \"TOKEN SWAP/Test.sol\":8176:8579  ISwapRouter.ExactInputSingleParams memory params = ISwapRouter.ExactInputSingleParams({... */\n      swap1\n      pop\n        /* \"TOKEN SWAP/Test.sol\":8677:8694  uint256 amountOut */\n      0x00\n        /* \"TOKEN SWAP/Test.sol\":8697:8707  swapRouter */\n      dup1\n      0x00\n      swap1\n      sload\n      swap1\n      0x0100\n      exp\n      swap1\n      div\n      0xffffffffffffffffffffffffffffffffffffffff\n      and\n        /* \"TOKEN SWAP/Test.sol\":8697:8724  swapRouter.exactInputSingle */\n      0xffffffffffffffffffffffffffffffffffffffff\n      and\n      0x414bf389\n        /* \"TOKEN SWAP/Test.sol\":8725:8731  params */\n      dup4\n        /* \"TOKEN SWAP/Test.sol\":8697:8732  swapRouter.exactInputSingle(params) */\n      mload(0x40)\n      dup3\n      0xffffffff\n      and\n      0xe0\n      shl\n      dup2\n      mstore\n      0x04\n      add\n      tag_36\n      swap2\n      swap1\n      tag_37\n      jump\t// in\n    tag_36:\n      0x20\n      mload(0x40)\n      dup1\n      dup4\n      sub\n      dup2\n      0x00\n      dup8\n      gas\n      call\n      iszero\n      dup1\n      iszero\n      tag_39\n      jumpi\n      returndatasize\n      0x00\n      dup1\n      returndatacopy\n      revert(0x00, returndatasize)\n    tag_39:\n      pop\n      pop\n      pop\n      pop\n      mload(0x40)\n      returndatasize\n      not(0x1f)\n      0x1f\n      dup3\n      add\n      and\n      dup3\n      add\n      dup1\n      0x40\n      mstore\n      pop\n      dup2\n      add\n      swap1\n      tag_40\n      swap2\n      swap1\n      tag_41\n      jump\t// in\n    tag_40:\n        /* \"TOKEN SWAP/Test.sol\":8677:8732  uint256 amountOut = swapRouter.exactInputSingle(params) */\n      swap1\n      pop\n        /* \"TOKEN SWAP/Test.sol\":8767:8783  amountOutMinimum */\n      dup4\n        /* \"TOKEN SWAP/Test.sol\":8754:8763  amountOut */\n      dup2\n        /* \"TOKEN SWAP/Test.sol\":8754:8783  amountOut >= amountOutMinimum */\n      lt\n      iszero\n        /* \"TOKEN SWAP/Test.sol\":8746:8814  require(amountOut >= amountOutMinimum, \"Insufficient output amount\") */\n      tag_42\n      jumpi\n      mload(0x40)\n      0x08c379a000000000000000000000000000000000000000000000000000000000\n      dup2\n      mstore\n      0x04\n      add\n      tag_43\n      swap1\n      tag_44\n      jump\t// in\n    tag_43:\n      mload(0x40)\n      dup1\n      swap2\n      sub\n      swap1\n      revert\n    tag_42:\n        /* \"TOKEN SWAP/Test.sol\":7788:8822  {... */\n      pop\n      pop\n        /* \"TOKEN SWAP/Test.sol\":7615:8822  function swap(... */\n      pop\n      pop\n      pop\n      pop\n      pop\n      jump\t// out\n        /* \"#utility.yul\":7:133   */\n    tag_45:\n        /* \"#utility.yul\":44:51   */\n      0x00\n        /* \"#utility.yul\":84:126   */\n      0xffffffffffffffffffffffffffffffffffffffff\n        /* \"#utility.yul\":77:82   */\n      dup3\n        /* \"#utility.yul\":73:127   */\n      and\n        /* \"#utility.yul\":62:127   */\n      swap1\n      pop\n        /* \"#utility.yul\":7:133   */\n      swap2\n      swap1\n      pop\n      jump\t// out\n        /* \"#utility.yul\":139:235   */\n    tag_46:\n        /* \"#utility.yul\":176:183   */\n      0x00\n        /* \"#utility.yul\":205:229   */\n      tag_82\n        /* \"#utility.yul\":223:228   */\n      dup3\n        /* \"#utility.yul\":205:229   */\n      tag_45\n      jump\t// in\n    tag_82:\n        /* \"#utility.yul\":194:229   */\n      swap1\n      pop\n        /* \"#utility.yul\":139:235   */\n      swap2\n      swap1\n      pop\n      jump\t// out\n        /* \"#utility.yul\":241:359   */\n    tag_47:\n        /* \"#utility.yul\":328:352   */\n      tag_84\n        /* \"#utility.yul\":346:351   */\n      dup2\n        /* \"#utility.yul\":328:352   */\n      tag_46\n      jump\t// in\n    tag_84:\n        /* \"#utility.yul\":323:326   */\n      dup3\n        /* \"#utility.yul\":316:353   */\n      mstore\n        /* \"#utility.yul\":241:359   */\n      pop\n      pop\n      jump\t// out\n        /* \"#utility.yul\":365:587   */\n    tag_9:\n        /* \"#utility.yul\":458:462   */\n      0x00\n        /* \"#utility.yul\":496:498   */\n      0x20\n        /* \"#utility.yul\":485:494   */\n      dup3\n        /* \"#utility.yul\":481:499   */\n      add\n        /* \"#utility.yul\":473:499   */\n      swap1\n      pop\n        /* \"#utility.yul\":509:580   */\n      tag_86\n        /* \"#utility.yul\":577:578   */\n      0x00\n        /* \"#utility.yul\":566:575   */\n      dup4\n        /* \"#utility.yul\":562:579   */\n      add\n        /* \"#utility.yul\":553:559   */\n      dup5\n        /* \"#utility.yul\":509:580   */\n      tag_47\n      jump\t// in\n    tag_86:\n        /* \"#utility.yul\":365:587   */\n      swap3\n      swap2\n      pop\n      pop\n      jump\t// out\n        /* \"#utility.yul\":593:653   */\n    tag_48:\n        /* \"#utility.yul\":621:624   */\n      0x00\n        /* \"#utility.yul\":642:647   */\n      dup2\n        /* \"#utility.yul\":635:647   */\n      swap1\n      pop\n        /* \"#utility.yul\":593:653   */\n      swap2\n      swap1\n      pop\n      jump\t// out\n        /* \"#utility.yul\":659:801   */\n    tag_49:\n        /* \"#utility.yul\":709:718   */\n      0x00\n        /* \"#utility.yul\":742:795   */\n      tag_89\n        /* \"#utility.yul\":760:794   */\n      tag_90\n        /* \"#utility.yul\":769:793   */\n      tag_91\n        /* \"#utility.yul\":787:792   */\n      dup5\n        /* \"#utility.yul\":769:793   */\n      tag_45\n      jump\t// in\n    tag_91:\n        /* \"#utility.yul\":760:794   */\n      tag_48\n      jump\t// in\n    tag_90:\n        /* \"#utility.yul\":742:795   */\n      tag_45\n      jump\t// in\n    tag_89:\n        /* \"#utility.yul\":729:795   */\n      swap1\n      pop\n        /* \"#utility.yul\":659:801   */\n      swap2\n      swap1\n      pop\n      jump\t// out\n        /* \"#utility.yul\":807:933   */\n    tag_50:\n        /* \"#utility.yul\":857:866   */\n      0x00\n        /* \"#utility.yul\":890:927   */\n      tag_93\n        /* \"#utility.yul\":921:926   */\n      dup3\n        /* \"#utility.yul\":890:927   */\n      tag_49\n      jump\t// in\n    tag_93:\n        /* \"#utility.yul\":877:927   */\n      swap1\n      pop\n        /* \"#utility.yul\":807:933   */\n      swap2\n      swap1\n      pop\n      jump\t// out\n        /* \"#utility.yul\":939:1084   */\n    tag_51:\n        /* \"#utility.yul\":1008:1017   */\n      0x00\n        /* \"#utility.yul\":1041:1078   */\n      tag_95\n        /* \"#utility.yul\":1072:1077   */\n      dup3\n        /* \"#utility.yul\":1041:1078   */\n      tag_50\n      jump\t// in\n    tag_95:\n        /* \"#utility.yul\":1028:1078   */\n      swap1\n      pop\n        /* \"#utility.yul\":939:1084   */\n      swap2\n      swap1\n      pop\n      jump\t// out\n        /* \"#utility.yul\":1090:1259   */\n    tag_52:\n        /* \"#utility.yul\":1196:1252   */\n      tag_97\n        /* \"#utility.yul\":1246:1251   */\n      dup2\n        /* \"#utility.yul\":1196:1252   */\n      tag_51\n      jump\t// in\n    tag_97:\n        /* \"#utility.yul\":1191:1194   */\n      dup3\n        /* \"#utility.yul\":1184:1253   */\n      mstore\n        /* \"#utility.yul\":1090:1259   */\n      pop\n      pop\n      jump\t// out\n        /* \"#utility.yul\":1265:1525   */\n    tag_13:\n        /* \"#utility.yul\":1377:1381   */\n      0x00\n        /* \"#utility.yul\":1415:1417   */\n      0x20\n        /* \"#utility.yul\":1404:1413   */\n      dup3\n        /* \"#utility.yul\":1400:1418   */\n      add\n        /* \"#utility.yul\":1392:1418   */\n      swap1\n      pop\n        /* \"#utility.yul\":1428:1518   */\n      tag_99\n        /* \"#utility.yul\":1515:1516   */\n      0x00\n        /* \"#utility.yul\":1504:1513   */\n      dup4\n        /* \"#utility.yul\":1500:1517   */\n      add\n        /* \"#utility.yul\":1491:1497   */\n      dup5\n        /* \"#utility.yul\":1428:1518   */\n      tag_52\n      jump\t// in\n    tag_99:\n        /* \"#utility.yul\":1265:1525   */\n      swap3\n      swap2\n      pop\n      pop\n      jump\t// out\n        /* \"#utility.yul\":1612:1729   */\n    tag_54:\n        /* \"#utility.yul\":1721:1722   */\n      0x00\n        /* \"#utility.yul\":1718:1719   */\n      dup1\n        /* \"#utility.yul\":1711:1723   */\n      revert\n        /* \"#utility.yul\":1858:1980   */\n    tag_56:\n        /* \"#utility.yul\":1931:1955   */\n      tag_104\n        /* \"#utility.yul\":1949:1954   */\n      dup2\n        /* \"#utility.yul\":1931:1955   */\n      tag_46\n      jump\t// in\n    tag_104:\n        /* \"#utility.yul\":1924:1929   */\n      dup2\n        /* \"#utility.yul\":1921:1956   */\n      eq\n        /* \"#utility.yul\":1911:1974   */\n      tag_105\n      jumpi\n        /* \"#utility.yul\":1970:1971   */\n      0x00\n        /* \"#utility.yul\":1967:1968   */\n      dup1\n        /* \"#utility.yul\":1960:1972   */\n      revert\n        /* \"#utility.yul\":1911:1974   */\n    tag_105:\n        /* \"#utility.yul\":1858:1980   */\n      pop\n      jump\t// out\n        /* \"#utility.yul\":1986:2125   */\n    tag_57:\n        /* \"#utility.yul\":2032:2037   */\n      0x00\n        /* \"#utility.yul\":2070:2076   */\n      dup2\n        /* \"#utility.yul\":2057:2077   */\n      calldataload\n        /* \"#utility.yul\":2048:2077   */\n      swap1\n      pop\n        /* \"#utility.yul\":2086:2119   */\n      tag_107\n        /* \"#utility.yul\":2113:2118   */\n      dup2\n        /* \"#utility.yul\":2086:2119   */\n      tag_56\n      jump\t// in\n    tag_107:\n        /* \"#utility.yul\":1986:2125   */\n      swap3\n      swap2\n      pop\n      pop\n      jump\t// out\n        /* \"#utility.yul\":2131:2208   */\n    tag_58:\n        /* \"#utility.yul\":2168:2175   */\n      0x00\n        /* \"#utility.yul\":2197:2202   */\n      dup2\n        /* \"#utility.yul\":2186:2202   */\n      swap1\n      pop\n        /* \"#utility.yul\":2131:2208   */\n      swap2\n      swap1\n      pop\n      jump\t// out\n        /* \"#utility.yul\":2214:2336   */\n    tag_59:\n        /* \"#utility.yul\":2287:2311   */\n      tag_110\n        /* \"#utility.yul\":2305:2310   */\n      dup2\n        /* \"#utility.yul\":2287:2311   */\n      tag_58\n      jump\t// in\n    tag_110:\n        /* \"#utility.yul\":2280:2285   */\n      dup2\n        /* \"#utility.yul\":2277:2312   */\n      eq\n        /* \"#utility.yul\":2267:2330   */\n      tag_111\n      jumpi\n        /* \"#utility.yul\":2326:2327   */\n      0x00\n        /* \"#utility.yul\":2323:2324   */\n      dup1\n        /* \"#utility.yul\":2316:2328   */\n      revert\n        /* \"#utility.yul\":2267:2330   */\n    tag_111:\n        /* \"#utility.yul\":2214:2336   */\n      pop\n      jump\t// out\n        /* \"#utility.yul\":2342:2481   */\n    tag_60:\n        /* \"#utility.yul\":2388:2393   */\n      0x00\n        /* \"#utility.yul\":2426:2432   */\n      dup2\n        /* \"#utility.yul\":2413:2433   */\n      calldataload\n        /* \"#utility.yul\":2404:2433   */\n      swap1\n      pop\n        /* \"#utility.yul\":2442:2475   */\n      tag_113\n        /* \"#utility.yul\":2469:2474   */\n      dup2\n        /* \"#utility.yul\":2442:2475   */\n      tag_59\n      jump\t// in\n    tag_113:\n        /* \"#utility.yul\":2342:2481   */\n      swap3\n      swap2\n      pop\n      pop\n      jump\t// out\n        /* \"#utility.yul\":2487:3398   */\n    tag_16:\n        /* \"#utility.yul\":2582:2588   */\n      0x00\n        /* \"#utility.yul\":2590:2596   */\n      dup1\n        /* \"#utility.yul\":2598:2604   */\n      0x00\n        /* \"#utility.yul\":2606:2612   */\n      dup1\n        /* \"#utility.yul\":2614:2620   */\n      0x00\n        /* \"#utility.yul\":2663:2666   */\n      0xa0\n        /* \"#utility.yul\":2651:2660   */\n      dup7\n        /* \"#utility.yul\":2642:2649   */\n      dup9\n        /* \"#utility.yul\":2638:2661   */\n      sub\n        /* \"#utility.yul\":2634:2667   */\n      slt\n        /* \"#utility.yul\":2631:2751   */\n      iszero\n      tag_115\n      jumpi\n        /* \"#utility.yul\":2670:2749   */\n      tag_116\n      tag_54\n      jump\t// in\n    tag_116:\n        /* \"#utility.yul\":2631:2751   */\n    tag_115:\n        /* \"#utility.yul\":2790:2791   */\n      0x00\n        /* \"#utility.yul\":2815:2868   */\n      tag_117\n        /* \"#utility.yul\":2860:2867   */\n      dup9\n        /* \"#utility.yul\":2851:2857   */\n      dup3\n        /* \"#utility.yul\":2840:2849   */\n      dup10\n        /* \"#utility.yul\":2836:2858   */\n      add\n        /* \"#utility.yul\":2815:2868   */\n      tag_57\n      jump\t// in\n    tag_117:\n        /* \"#utility.yul\":2805:2868   */\n      swap6\n      pop\n        /* \"#utility.yul\":2761:2878   */\n      pop\n        /* \"#utility.yul\":2917:2919   */\n      0x20\n        /* \"#utility.yul\":2943:2996   */\n      tag_118\n        /* \"#utility.yul\":2988:2995   */\n      dup9\n        /* \"#utility.yul\":2979:2985   */\n      dup3\n        /* \"#utility.yul\":2968:2977   */\n      dup10\n        /* \"#utility.yul\":2964:2986   */\n      add\n        /* \"#utility.yul\":2943:2996   */\n      tag_57\n      jump\t// in\n    tag_118:\n        /* \"#utility.yul\":2933:2996   */\n      swap5\n      pop\n        /* \"#utility.yul\":2888:3006   */\n      pop\n        /* \"#utility.yul\":3045:3047   */\n      0x40\n        /* \"#utility.yul\":3071:3124   */\n      tag_119\n        /* \"#utility.yul\":3116:3123   */\n      dup9\n        /* \"#utility.yul\":3107:3113   */\n      dup3\n        /* \"#utility.yul\":3096:3105   */\n      dup10\n        /* \"#utility.yul\":3092:3114   */\n      add\n        /* \"#utility.yul\":3071:3124   */\n      tag_60\n      jump\t// in\n    tag_119:\n        /* \"#utility.yul\":3061:3124   */\n      swap4\n      pop\n        /* \"#utility.yul\":3016:3134   */\n      pop\n        /* \"#utility.yul\":3173:3175   */\n      0x60\n        /* \"#utility.yul\":3199:3252   */\n      tag_120\n        /* \"#utility.yul\":3244:3251   */\n      dup9\n        /* \"#utility.yul\":3235:3241   */\n      dup3\n        /* \"#utility.yul\":3224:3233   */\n      dup10\n        /* \"#utility.yul\":3220:3242   */\n      add\n        /* \"#utility.yul\":3199:3252   */\n      tag_60\n      jump\t// in\n    tag_120:\n        /* \"#utility.yul\":3189:3252   */\n      swap3\n      pop\n        /* \"#utility.yul\":3144:3262   */\n      pop\n        /* \"#utility.yul\":3301:3304   */\n      0x80\n        /* \"#utility.yul\":3328:3381   */\n      tag_121\n        /* \"#utility.yul\":3373:3380   */\n      dup9\n        /* \"#utility.yul\":3364:3370   */\n      dup3\n        /* \"#utility.yul\":3353:3362   */\n      dup10\n        /* \"#utility.yul\":3349:3371   */\n      add\n        /* \"#utility.yul\":3328:3381   */\n      tag_57\n      jump\t// in\n    tag_121:\n        /* \"#utility.yul\":3318:3381   */\n      swap2\n      pop\n        /* \"#utility.yul\":3272:3391   */\n      pop\n        /* \"#utility.yul\":2487:3398   */\n      swap3\n      swap6\n      pop\n      swap3\n      swap6\n      swap1\n      swap4\n      pop\n      jump\t// out\n        /* \"#utility.yul\":3404:3522   */\n    tag_61:\n        /* \"#utility.yul\":3491:3515   */\n      tag_123\n        /* \"#utility.yul\":3509:3514   */\n      dup2\n        /* \"#utility.yul\":3491:3515   */\n      tag_58\n      jump\t// in\n    tag_123:\n        /* \"#utility.yul\":3486:3489   */\n      dup3\n        /* \"#utility.yul\":3479:3516   */\n      mstore\n        /* \"#utility.yul\":3404:3522   */\n      pop\n      pop\n      jump\t// out\n        /* \"#utility.yul\":3528:3970   */\n    tag_20:\n        /* \"#utility.yul\":3677:3681   */\n      0x00\n        /* \"#utility.yul\":3715:3717   */\n      0x60\n        /* \"#utility.yul\":3704:3713   */\n      dup3\n        /* \"#utility.yul\":3700:3718   */\n      add\n        /* \"#utility.yul\":3692:3718   */\n      swap1\n      pop\n        /* \"#utility.yul\":3728:3799   */\n      tag_125\n        /* \"#utility.yul\":3796:3797   */\n      0x00\n        /* \"#utility.yul\":3785:3794   */\n      dup4\n        /* \"#utility.yul\":3781:3798   */\n      add\n        /* \"#utility.yul\":3772:3778   */\n      dup7\n        /* \"#utility.yul\":3728:3799   */\n      tag_47\n      jump\t// in\n    tag_125:\n        /* \"#utility.yul\":3809:3881   */\n      tag_126\n        /* \"#utility.yul\":3877:3879   */\n      0x20\n        /* \"#utility.yul\":3866:3875   */\n      dup4\n        /* \"#utility.yul\":3862:3880   */\n      add\n        /* \"#utility.yul\":3853:3859   */\n      dup6\n        /* \"#utility.yul\":3809:3881   */\n      tag_47\n      jump\t// in\n    tag_126:\n        /* \"#utility.yul\":3891:3963   */\n      tag_127\n        /* \"#utility.yul\":3959:3961   */\n      0x40\n        /* \"#utility.yul\":3948:3957   */\n      dup4\n        /* \"#utility.yul\":3944:3962   */\n      add\n        /* \"#utility.yul\":3935:3941   */\n      dup5\n        /* \"#utility.yul\":3891:3963   */\n      tag_61\n      jump\t// in\n    tag_127:\n        /* \"#utility.yul\":3528:3970   */\n      swap5\n      swap4\n      pop\n      pop\n      pop\n      pop\n      jump\t// out\n        /* \"#utility.yul\":3976:4066   */\n    tag_62:\n        /* \"#utility.yul\":4010:4017   */\n      0x00\n        /* \"#utility.yul\":4053:4058   */\n      dup2\n        /* \"#utility.yul\":4046:4059   */\n      iszero\n        /* \"#utility.yul\":4039:4060   */\n      iszero\n        /* \"#utility.yul\":4028:4060   */\n      swap1\n      pop\n        /* \"#utility.yul\":3976:4066   */\n      swap2\n      swap1\n      pop\n      jump\t// out\n        /* \"#utility.yul\":4072:4188   */\n    tag_63:\n        /* \"#utility.yul\":4142:4163   */\n      tag_130\n        /* \"#utility.yul\":4157:4162   */\n      dup2\n        /* \"#utility.yul\":4142:4163   */\n      tag_62\n      jump\t// in\n    tag_130:\n        /* \"#utility.yul\":4135:4140   */\n      dup2\n        /* \"#utility.yul\":4132:4164   */\n      eq\n        /* \"#utility.yul\":4122:4182   */\n      tag_131\n      jumpi\n        /* \"#utility.yul\":4178:4179   */\n      0x00\n        /* \"#utility.yul\":4175:4176   */\n      dup1\n        /* \"#utility.yul\":4168:4180   */\n      revert\n        /* \"#utility.yul\":4122:4182   */\n    tag_131:\n        /* \"#utility.yul\":4072:4188   */\n      pop\n      jump\t// out\n        /* \"#utility.yul\":4194:4331   */\n    tag_64:\n        /* \"#utility.yul\":4248:4253   */\n      0x00\n        /* \"#utility.yul\":4279:4285   */\n      dup2\n        /* \"#utility.yul\":4273:4286   */\n      mload\n        /* \"#utility.yul\":4264:4286   */\n      swap1\n      pop\n        /* \"#utility.yul\":4295:4325   */\n      tag_133\n        /* \"#utility.yul\":4319:4324   */\n      dup2\n        /* \"#utility.yul\":4295:4325   */\n      tag_63\n      jump\t// in\n    tag_133:\n        /* \"#utility.yul\":4194:4331   */\n      swap3\n      swap2\n      pop\n      pop\n      jump\t// out\n        /* \"#utility.yul\":4337:4682   */\n    tag_24:\n        /* \"#utility.yul\":4404:4410   */\n      0x00\n        /* \"#utility.yul\":4453:4455   */\n      0x20\n        /* \"#utility.yul\":4441:4450   */\n      dup3\n        /* \"#utility.yul\":4432:4439   */\n      dup5\n        /* \"#utility.yul\":4428:4451   */\n      sub\n        /* \"#utility.yul\":4424:4456   */\n      slt\n        /* \"#utility.yul\":4421:4540   */\n      iszero\n      tag_135\n      jumpi\n        /* \"#utility.yul\":4459:4538   */\n      tag_136\n      tag_54\n      jump\t// in\n    tag_136:\n        /* \"#utility.yul\":4421:4540   */\n    tag_135:\n        /* \"#utility.yul\":4579:4580   */\n      0x00\n        /* \"#utility.yul\":4604:4665   */\n      tag_137\n        /* \"#utility.yul\":4657:4664   */\n      dup5\n        /* \"#utility.yul\":4648:4654   */\n      dup3\n        /* \"#utility.yul\":4637:4646   */\n      dup6\n        /* \"#utility.yul\":4633:4655   */\n      add\n        /* \"#utility.yul\":4604:4665   */\n      tag_64\n      jump\t// in\n    tag_137:\n        /* \"#utility.yul\":4594:4665   */\n      swap2\n      pop\n        /* \"#utility.yul\":4550:4675   */\n      pop\n        /* \"#utility.yul\":4337:4682   */\n      swap3\n      swap2\n      pop\n      pop\n      jump\t// out\n        /* \"#utility.yul\":4688:4857   */\n    tag_65:\n        /* \"#utility.yul\":4772:4783   */\n      0x00\n        /* \"#utility.yul\":4806:4812   */\n      dup3\n        /* \"#utility.yul\":4801:4804   */\n      dup3\n        /* \"#utility.yul\":4794:4813   */\n      mstore\n        /* \"#utility.yul\":4846:4850   */\n      0x20\n        /* \"#utility.yul\":4841:4844   */\n      dup3\n        /* \"#utility.yul\":4837:4851   */\n      add\n        /* \"#utility.yul\":4822:4851   */\n      swap1\n      pop\n        /* \"#utility.yul\":4688:4857   */\n      swap3\n      swap2\n      pop\n      pop\n      jump\t// out\n        /* \"#utility.yul\":4863:5028   */\n    tag_66:\n        /* \"#utility.yul\":5003:5020   */\n      0x5472616e73666572206661696c65640000000000000000000000000000000000\n        /* \"#utility.yul\":4999:5000   */\n      0x00\n        /* \"#utility.yul\":4991:4997   */\n      dup3\n        /* \"#utility.yul\":4987:5001   */\n      add\n        /* \"#utility.yul\":4980:5021   */\n      mstore\n        /* \"#utility.yul\":4863:5028   */\n      pop\n      jump\t// out\n        /* \"#utility.yul\":5034:5400   */\n    tag_67:\n        /* \"#utility.yul\":5176:5179   */\n      0x00\n        /* \"#utility.yul\":5197:5264   */\n      tag_141\n        /* \"#utility.yul\":5261:5263   */\n      0x0f\n        /* \"#utility.yul\":5256:5259   */\n      dup4\n        /* \"#utility.yul\":5197:5264   */\n      tag_65\n      jump\t// in\n    tag_141:\n        /* \"#utility.yul\":5190:5264   */\n      swap2\n      pop\n        /* \"#utility.yul\":5273:5366   */\n      tag_142\n        /* \"#utility.yul\":5362:5365   */\n      dup3\n        /* \"#utility.yul\":5273:5366   */\n      tag_66\n      jump\t// in\n    tag_142:\n        /* \"#utility.yul\":5391:5393   */\n      0x20\n        /* \"#utility.yul\":5386:5389   */\n      dup3\n        /* \"#utility.yul\":5382:5394   */\n      add\n        /* \"#utility.yul\":5375:5394   */\n      swap1\n      pop\n        /* \"#utility.yul\":5034:5400   */\n      swap2\n      swap1\n      pop\n      jump\t// out\n        /* \"#utility.yul\":5406:5825   */\n    tag_27:\n        /* \"#utility.yul\":5572:5576   */\n      0x00\n        /* \"#utility.yul\":5610:5612   */\n      0x20\n        /* \"#utility.yul\":5599:5608   */\n      dup3\n        /* \"#utility.yul\":5595:5613   */\n      add\n        /* \"#utility.yul\":5587:5613   */\n      swap1\n      pop\n        /* \"#utility.yul\":5659:5668   */\n      dup2\n        /* \"#utility.yul\":5653:5657   */\n      dup2\n        /* \"#utility.yul\":5649:5669   */\n      sub\n        /* \"#utility.yul\":5645:5646   */\n      0x00\n        /* \"#utility.yul\":5634:5643   */\n      dup4\n        /* \"#utility.yul\":5630:5647   */\n      add\n        /* \"#utility.yul\":5623:5670   */\n      mstore\n        /* \"#utility.yul\":5687:5818   */\n      tag_144\n        /* \"#utility.yul\":5813:5817   */\n      dup2\n        /* \"#utility.yul\":5687:5818   */\n      tag_67\n      jump\t// in\n    tag_144:\n        /* \"#utility.yul\":5679:5818   */\n      swap1\n      pop\n        /* \"#utility.yul\":5406:5825   */\n      swap2\n      swap1\n      pop\n      jump\t// out\n        /* \"#utility.yul\":5831:6163   */\n    tag_29:\n        /* \"#utility.yul\":5952:5956   */\n      0x00\n        /* \"#utility.yul\":5990:5992   */\n      0x40\n        /* \"#utility.yul\":5979:5988   */\n      dup3\n        /* \"#utility.yul\":5975:5993   */\n      add\n        /* \"#utility.yul\":5967:5993   */\n      swap1\n      pop\n        /* \"#utility.yul\":6003:6074   */\n      tag_146\n        /* \"#utility.yul\":6071:6072   */\n      0x00\n        /* \"#utility.yul\":6060:6069   */\n      dup4\n        /* \"#utility.yul\":6056:6073   */\n      add\n        /* \"#utility.yul\":6047:6053   */\n      dup6\n        /* \"#utility.yul\":6003:6074   */\n      tag_47\n      jump\t// in\n    tag_146:\n        /* \"#utility.yul\":6084:6156   */\n      tag_147\n        /* \"#utility.yul\":6152:6154   */\n      0x20\n        /* \"#utility.yul\":6141:6150   */\n      dup4\n        /* \"#utility.yul\":6137:6155   */\n      add\n        /* \"#utility.yul\":6128:6134   */\n      dup5\n        /* \"#utility.yul\":6084:6156   */\n      tag_61\n      jump\t// in\n    tag_147:\n        /* \"#utility.yul\":5831:6163   */\n      swap4\n      swap3\n      pop\n      pop\n      pop\n      jump\t// out\n        /* \"#utility.yul\":6169:6334   */\n    tag_68:\n        /* \"#utility.yul\":6309:6326   */\n      0x417070726f76616c206661696c65640000000000000000000000000000000000\n        /* \"#utility.yul\":6305:6306   */\n      0x00\n        /* \"#utility.yul\":6297:6303   */\n      dup3\n        /* \"#utility.yul\":6293:6307   */\n      add\n        /* \"#utility.yul\":6286:6327   */\n      mstore\n        /* \"#utility.yul\":6169:6334   */\n      pop\n      jump\t// out\n        /* \"#utility.yul\":6340:6706   */\n    tag_69:\n        /* \"#utility.yul\":6482:6485   */\n      0x00\n        /* \"#utility.yul\":6503:6570   */\n      tag_150\n        /* \"#utility.yul\":6567:6569   */\n      0x0f\n        /* \"#utility.yul\":6562:6565   */\n      dup4\n        /* \"#utility.yul\":6503:6570   */\n      tag_65\n      jump\t// in\n    tag_150:\n        /* \"#utility.yul\":6496:6570   */\n      swap2\n      pop\n        /* \"#utility.yul\":6579:6672   */\n      tag_151\n        /* \"#utility.yul\":6668:6671   */\n      dup3\n        /* \"#utility.yul\":6579:6672   */\n      tag_68\n      jump\t// in\n    tag_151:\n        /* \"#utility.yul\":6697:6699   */\n      0x20\n        /* \"#utility.yul\":6692:6695   */\n      dup3\n        /* \"#utility.yul\":6688:6700   */\n      add\n        /* \"#utility.yul\":6681:6700   */\n      swap1\n      pop\n        /* \"#utility.yul\":6340:6706   */\n      swap2\n      swap1\n      pop\n      jump\t// out\n        /* \"#utility.yul\":6712:7131   */\n    tag_35:\n        /* \"#utility.yul\":6878:6882   */\n      0x00\n        /* \"#utility.yul\":6916:6918   */\n      0x20\n        /* \"#utility.yul\":6905:6914   */\n      dup3\n        /* \"#utility.yul\":6901:6919   */\n      add\n        /* \"#utility.yul\":6893:6919   */\n      swap1\n      pop\n        /* \"#utility.yul\":6965:6974   */\n      dup2\n        /* \"#utility.yul\":6959:6963   */\n      dup2\n        /* \"#utility.yul\":6955:6975   */\n      sub\n        /* \"#utility.yul\":6951:6952   */\n      0x00\n        /* \"#utility.yul\":6940:6949   */\n      dup4\n        /* \"#utility.yul\":6936:6953   */\n      add\n        /* \"#utility.yul\":6929:6976   */\n      mstore\n        /* \"#utility.yul\":6993:7124   */\n      tag_153\n        /* \"#utility.yul\":7119:7123   */\n      dup2\n        /* \"#utility.yul\":6993:7124   */\n      tag_69\n      jump\t// in\n    tag_153:\n        /* \"#utility.yul\":6985:7124   */\n      swap1\n      pop\n        /* \"#utility.yul\":6712:7131   */\n      swap2\n      swap1\n      pop\n      jump\t// out\n        /* \"#utility.yul\":7137:7245   */\n    tag_70:\n        /* \"#utility.yul\":7214:7238   */\n      tag_155\n        /* \"#utility.yul\":7232:7237   */\n      dup2\n        /* \"#utility.yul\":7214:7238   */\n      tag_46\n      jump\t// in\n    tag_155:\n        /* \"#utility.yul\":7209:7212   */\n      dup3\n        /* \"#utility.yul\":7202:7239   */\n      mstore\n        /* \"#utility.yul\":7137:7245   */\n      pop\n      pop\n      jump\t// out\n        /* \"#utility.yul\":7251:7342   */\n    tag_71:\n        /* \"#utility.yul\":7287:7294   */\n      0x00\n        /* \"#utility.yul\":7327:7335   */\n      0xffffff\n        /* \"#utility.yul\":7320:7325   */\n      dup3\n        /* \"#utility.yul\":7316:7336   */\n      and\n        /* \"#utility.yul\":7305:7336   */\n      swap1\n      pop\n        /* \"#utility.yul\":7251:7342   */\n      swap2\n      swap1\n      pop\n      jump\t// out\n        /* \"#utility.yul\":7348:7453   */\n    tag_72:\n        /* \"#utility.yul\":7423:7446   */\n      tag_158\n        /* \"#utility.yul\":7440:7445   */\n      dup2\n        /* \"#utility.yul\":7423:7446   */\n      tag_71\n      jump\t// in\n    tag_158:\n        /* \"#utility.yul\":7418:7421   */\n      dup3\n        /* \"#utility.yul\":7411:7447   */\n      mstore\n        /* \"#utility.yul\":7348:7453   */\n      pop\n      pop\n      jump\t// out\n        /* \"#utility.yul\":7459:7567   */\n    tag_73:\n        /* \"#utility.yul\":7536:7560   */\n      tag_160\n        /* \"#utility.yul\":7554:7559   */\n      dup2\n        /* \"#utility.yul\":7536:7560   */\n      tag_58\n      jump\t// in\n    tag_160:\n        /* \"#utility.yul\":7531:7534   */\n      dup3\n        /* \"#utility.yul\":7524:7561   */\n      mstore\n        /* \"#utility.yul\":7459:7567   */\n      pop\n      pop\n      jump\t// out\n        /* \"#utility.yul\":7573:7681   */\n    tag_74:\n        /* \"#utility.yul\":7650:7674   */\n      tag_162\n        /* \"#utility.yul\":7668:7673   */\n      dup2\n        /* \"#utility.yul\":7650:7674   */\n      tag_45\n      jump\t// in\n    tag_162:\n        /* \"#utility.yul\":7645:7648   */\n      dup3\n        /* \"#utility.yul\":7638:7675   */\n      mstore\n        /* \"#utility.yul\":7573:7681   */\n      pop\n      pop\n      jump\t// out\n        /* \"#utility.yul\":7781:9402   */\n    tag_75:\n        /* \"#utility.yul\":7954:7960   */\n      0x0100\n        /* \"#utility.yul\":7949:7952   */\n      dup3\n        /* \"#utility.yul\":7945:7961   */\n      add\n        /* \"#utility.yul\":8046:8050   */\n      0x00\n        /* \"#utility.yul\":8039:8044   */\n      dup3\n        /* \"#utility.yul\":8035:8051   */\n      add\n        /* \"#utility.yul\":8029:8052   */\n      mload\n        /* \"#utility.yul\":8065:8128   */\n      tag_164\n        /* \"#utility.yul\":8122:8126   */\n      0x00\n        /* \"#utility.yul\":8117:8120   */\n      dup6\n        /* \"#utility.yul\":8113:8127   */\n      add\n        /* \"#utility.yul\":8099:8111   */\n      dup3\n        /* \"#utility.yul\":8065:8128   */\n      tag_70\n      jump\t// in\n    tag_164:\n        /* \"#utility.yul\":7971:8138   */\n      pop\n        /* \"#utility.yul\":8224:8228   */\n      0x20\n        /* \"#utility.yul\":8217:8222   */\n      dup3\n        /* \"#utility.yul\":8213:8229   */\n      add\n        /* \"#utility.yul\":8207:8230   */\n      mload\n        /* \"#utility.yul\":8243:8306   */\n      tag_165\n        /* \"#utility.yul\":8300:8304   */\n      0x20\n        /* \"#utility.yul\":8295:8298   */\n      dup6\n        /* \"#utility.yul\":8291:8305   */\n      add\n        /* \"#utility.yul\":8277:8289   */\n      dup3\n        /* \"#utility.yul\":8243:8306   */\n      tag_70\n      jump\t// in\n    tag_165:\n        /* \"#utility.yul\":8148:8316   */\n      pop\n        /* \"#utility.yul\":8397:8401   */\n      0x40\n        /* \"#utility.yul\":8390:8395   */\n      dup3\n        /* \"#utility.yul\":8386:8402   */\n      add\n        /* \"#utility.yul\":8380:8403   */\n      mload\n        /* \"#utility.yul\":8416:8477   */\n      tag_166\n        /* \"#utility.yul\":8471:8475   */\n      0x40\n        /* \"#utility.yul\":8466:8469   */\n      dup6\n        /* \"#utility.yul\":8462:8476   */\n      add\n        /* \"#utility.yul\":8448:8460   */\n      dup3\n        /* \"#utility.yul\":8416:8477   */\n      tag_72\n      jump\t// in\n    tag_166:\n        /* \"#utility.yul\":8326:8487   */\n      pop\n        /* \"#utility.yul\":8574:8578   */\n      0x60\n        /* \"#utility.yul\":8567:8572   */\n      dup3\n        /* \"#utility.yul\":8563:8579   */\n      add\n        /* \"#utility.yul\":8557:8580   */\n      mload\n        /* \"#utility.yul\":8593:8656   */\n      tag_167\n        /* \"#utility.yul\":8650:8654   */\n      0x60\n        /* \"#utility.yul\":8645:8648   */\n      dup6\n        /* \"#utility.yul\":8641:8655   */\n      add\n        /* \"#utility.yul\":8627:8639   */\n      dup3\n        /* \"#utility.yul\":8593:8656   */\n      tag_70\n      jump\t// in\n    tag_167:\n        /* \"#utility.yul\":8497:8666   */\n      pop\n        /* \"#utility.yul\":8752:8756   */\n      0x80\n        /* \"#utility.yul\":8745:8750   */\n      dup3\n        /* \"#utility.yul\":8741:8757   */\n      add\n        /* \"#utility.yul\":8735:8758   */\n      mload\n        /* \"#utility.yul\":8771:8834   */\n      tag_168\n        /* \"#utility.yul\":8828:8832   */\n      0x80\n        /* \"#utility.yul\":8823:8826   */\n      dup6\n        /* \"#utility.yul\":8819:8833   */\n      add\n        /* \"#utility.yul\":8805:8817   */\n      dup3\n        /* \"#utility.yul\":8771:8834   */\n      tag_73\n      jump\t// in\n    tag_168:\n        /* \"#utility.yul\":8676:8844   */\n      pop\n        /* \"#utility.yul\":8930:8934   */\n      0xa0\n        /* \"#utility.yul\":8923:8928   */\n      dup3\n        /* \"#utility.yul\":8919:8935   */\n      add\n        /* \"#utility.yul\":8913:8936   */\n      mload\n        /* \"#utility.yul\":8949:9012   */\n      tag_169\n        /* \"#utility.yul\":9006:9010   */\n      0xa0\n        /* \"#utility.yul\":9001:9004   */\n      dup6\n        /* \"#utility.yul\":8997:9011   */\n      add\n        /* \"#utility.yul\":8983:8995   */\n      dup3\n        /* \"#utility.yul\":8949:9012   */\n      tag_73\n      jump\t// in\n    tag_169:\n        /* \"#utility.yul\":8854:9022   */\n      pop\n        /* \"#utility.yul\":9116:9120   */\n      0xc0\n        /* \"#utility.yul\":9109:9114   */\n      dup3\n        /* \"#utility.yul\":9105:9121   */\n      add\n        /* \"#utility.yul\":9099:9122   */\n      mload\n        /* \"#utility.yul\":9135:9198   */\n      tag_170\n        /* \"#utility.yul\":9192:9196   */\n      0xc0\n        /* \"#utility.yul\":9187:9190   */\n      dup6\n        /* \"#utility.yul\":9183:9197   */\n      add\n        /* \"#utility.yul\":9169:9181   */\n      dup3\n        /* \"#utility.yul\":9135:9198   */\n      tag_73\n      jump\t// in\n    tag_170:\n        /* \"#utility.yul\":9032:9208   */\n      pop\n        /* \"#utility.yul\":9303:9307   */\n      0xe0\n        /* \"#utility.yul\":9296:9301   */\n      dup3\n        /* \"#utility.yul\":9292:9308   */\n      add\n        /* \"#utility.yul\":9286:9309   */\n      mload\n        /* \"#utility.yul\":9322:9385   */\n      tag_171\n        /* \"#utility.yul\":9379:9383   */\n      0xe0\n        /* \"#utility.yul\":9374:9377   */\n      dup6\n        /* \"#utility.yul\":9370:9384   */\n      add\n        /* \"#utility.yul\":9356:9368   */\n      dup3\n        /* \"#utility.yul\":9322:9385   */\n      tag_74\n      jump\t// in\n    tag_171:\n        /* \"#utility.yul\":9218:9395   */\n      pop\n        /* \"#utility.yul\":7923:9402   */\n      pop\n        /* \"#utility.yul\":7781:9402   */\n      pop\n      pop\n      jump\t// out\n        /* \"#utility.yul\":9408:9783   */\n    tag_37:\n        /* \"#utility.yul\":9577:9581   */\n      0x00\n        /* \"#utility.yul\":9615:9618   */\n      0x0100\n        /* \"#utility.yul\":9604:9613   */\n      dup3\n        /* \"#utility.yul\":9600:9619   */\n      add\n        /* \"#utility.yul\":9592:9619   */\n      swap1\n      pop\n        /* \"#utility.yul\":9629:9776   */\n      tag_173\n        /* \"#utility.yul\":9773:9774   */\n      0x00\n        /* \"#utility.yul\":9762:9771   */\n      dup4\n        /* \"#utility.yul\":9758:9775   */\n      add\n        /* \"#utility.yul\":9749:9755   */\n      dup5\n        /* \"#utility.yul\":9629:9776   */\n      tag_75\n      jump\t// in\n    tag_173:\n        /* \"#utility.yul\":9408:9783   */\n      swap3\n      swap2\n      pop\n      pop\n      jump\t// out\n        /* \"#utility.yul\":9789:9932   */\n    tag_76:\n        /* \"#utility.yul\":9846:9851   */\n      0x00\n        /* \"#utility.yul\":9877:9883   */\n      dup2\n        /* \"#utility.yul\":9871:9884   */\n      mload\n        /* \"#utility.yul\":9862:9884   */\n      swap1\n      pop\n        /* \"#utility.yul\":9893:9926   */\n      tag_175\n        /* \"#utility.yul\":9920:9925   */\n      dup2\n        /* \"#utility.yul\":9893:9926   */\n      tag_59\n      jump\t// in\n    tag_175:\n        /* \"#utility.yul\":9789:9932   */\n      swap3\n      swap2\n      pop\n      pop\n      jump\t// out\n        /* \"#utility.yul\":9938:10289   */\n    tag_41:\n        /* \"#utility.yul\":10008:10014   */\n      0x00\n        /* \"#utility.yul\":10057:10059   */\n      0x20\n        /* \"#utility.yul\":10045:10054   */\n      dup3\n        /* \"#utility.yul\":10036:10043   */\n      dup5\n        /* \"#utility.yul\":10032:10055   */\n      sub\n        /* \"#utility.yul\":10028:10060   */\n      slt\n        /* \"#utility.yul\":10025:10144   */\n      iszero\n      tag_177\n      jumpi\n        /* \"#utility.yul\":10063:10142   */\n      tag_178\n      tag_54\n      jump\t// in\n    tag_178:\n        /* \"#utility.yul\":10025:10144   */\n    tag_177:\n        /* \"#utility.yul\":10183:10184   */\n      0x00\n        /* \"#utility.yul\":10208:10272   */\n      tag_179\n        /* \"#utility.yul\":10264:10271   */\n      dup5\n        /* \"#utility.yul\":10255:10261   */\n      dup3\n        /* \"#utility.yul\":10244:10253   */\n      dup6\n        /* \"#utility.yul\":10240:10262   */\n      add\n        /* \"#utility.yul\":10208:10272   */\n      tag_76\n      jump\t// in\n    tag_179:\n        /* \"#utility.yul\":10198:10272   */\n      swap2\n      pop\n        /* \"#utility.yul\":10154:10282   */\n      pop\n        /* \"#utility.yul\":9938:10289   */\n      swap3\n      swap2\n      pop\n      pop\n      jump\t// out\n        /* \"#utility.yul\":10295:10471   */\n    tag_77:\n        /* \"#utility.yul\":10435:10463   */\n      0x496e73756666696369656e74206f757470757420616d6f756e74000000000000\n        /* \"#utility.yul\":10431:10432   */\n      0x00\n        /* \"#utility.yul\":10423:10429   */\n      dup3\n        /* \"#utility.yul\":10419:10433   */\n      add\n        /* \"#utility.yul\":10412:10464   */\n      mstore\n        /* \"#utility.yul\":10295:10471   */\n      pop\n      jump\t// out\n        /* \"#utility.yul\":10477:10843   */\n    tag_78:\n        /* \"#utility.yul\":10619:10622   */\n      0x00\n        /* \"#utility.yul\":10640:10707   */\n      tag_182\n        /* \"#utility.yul\":10704:10706   */\n      0x1a\n        /* \"#utility.yul\":10699:10702   */\n      dup4\n        /* \"#utility.yul\":10640:10707   */\n      tag_65\n      jump\t// in\n    tag_182:\n        /* \"#utility.yul\":10633:10707   */\n      swap2\n      pop\n        /* \"#utility.yul\":10716:10809   */\n      tag_183\n        /* \"#utility.yul\":10805:10808   */\n      dup3\n        /* \"#utility.yul\":10716:10809   */\n      tag_77\n      jump\t// in\n    tag_183:\n        /* \"#utility.yul\":10834:10836   */\n      0x20\n        /* \"#utility.yul\":10829:10832   */\n      dup3\n        /* \"#utility.yul\":10825:10837   */\n      add\n        /* \"#utility.yul\":10818:10837   */\n      swap1\n      pop\n        /* \"#utility.yul\":10477:10843   */\n      swap2\n      swap1\n      pop\n      jump\t// out\n        /* \"#utility.yul\":10849:11268   */\n    tag_44:\n        /* \"#utility.yul\":11015:11019   */\n      0x00\n        /* \"#utility.yul\":11053:11055   */\n      0x20\n        /* \"#utility.yul\":11042:11051   */\n      dup3\n        /* \"#utility.yul\":11038:11056   */\n      add\n        /* \"#utility.yul\":11030:11056   */\n      swap1\n      pop\n        /* \"#utility.yul\":11102:11111   */\n      dup2\n        /* \"#utility.yul\":11096:11100   */\n      dup2\n        /* \"#utility.yul\":11092:11112   */\n      sub\n        /* \"#utility.yul\":11088:11089   */\n      0x00\n        /* \"#utility.yul\":11077:11086   */\n      dup4\n        /* \"#utility.yul\":11073:11090   */\n      add\n        /* \"#utility.yul\":11066:11113   */\n      mstore\n        /* \"#utility.yul\":11130:11261   */\n      tag_185\n        /* \"#utility.yul\":11256:11260   */\n      dup2\n        /* \"#utility.yul\":11130:11261   */\n      tag_78\n      jump\t// in\n    tag_185:\n        /* \"#utility.yul\":11122:11261   */\n      swap1\n      pop\n        /* \"#utility.yul\":10849:11268   */\n      swap2\n      swap1\n      pop\n      jump\t// out\n\n    auxdata: 0xa26469706673582212204e160841c94019cf4687df97f698f75355a4f64a5657bb80dfd271fe01353d5164736f6c634300081a0033\n}\n",
				"bytecode": {
					"linkReferences": {},
					"object": "608060405234801561000f575f80fd5b50604051610a8c380380610a8c83398181016040528101906100319190610115565b815f806101000a81548173ffffffffffffffffffffffffffffffffffffffff021916908373ffffffffffffffffffffffffffffffffffffffff1602179055508060015f6101000a81548173ffffffffffffffffffffffffffffffffffffffff021916908373ffffffffffffffffffffffffffffffffffffffff1602179055505050610153565b5f80fd5b5f73ffffffffffffffffffffffffffffffffffffffff82169050919050565b5f6100e4826100bb565b9050919050565b6100f4816100da565b81146100fe575f80fd5b50565b5f8151905061010f816100eb565b92915050565b5f806040838503121561012b5761012a6100b7565b5b5f61013885828601610101565b925050602061014985828601610101565b9150509250929050565b61092c806101605f395ff3fe608060405234801561000f575f80fd5b506004361061003f575f3560e01c8063ad5c464814610043578063c31c9c0714610061578063d5bcb9b51461007f575b5f80fd5b61004b61009b565b604051610058919061043b565b60405180910390f35b6100696100c0565b60405161007691906104af565b60405180910390f35b61009960048036038101906100949190610529565b6100e3565b005b60015f9054906101000a900473ffffffffffffffffffffffffffffffffffffffff1681565b5f8054906101000a900473ffffffffffffffffffffffffffffffffffffffff1681565b8473ffffffffffffffffffffffffffffffffffffffff166323b872dd3330866040518463ffffffff1660e01b8152600401610120939291906105af565b6020604051808303815f875af115801561013c573d5f803e3d5ffd5b505050506040513d601f19601f820116820180604052508101906101609190610619565b61019f576040517f08c379a00000000000000000000000000000000000000000000000000000000081526004016101969061069e565b60405180910390fd5b8473ffffffffffffffffffffffffffffffffffffffff1663095ea7b35f8054906101000a900473ffffffffffffffffffffffffffffffffffffffff16856040518363ffffffff1660e01b81526004016101f99291906106bc565b6020604051808303815f875af1158015610215573d5f803e3d5ffd5b505050506040513d601f19601f820116820180604052508101906102399190610619565b610278576040517f08c379a000000000000000000000000000000000000000000000000000000000815260040161026f9061072d565b60405180910390fd5b5f6040518061010001604052808773ffffffffffffffffffffffffffffffffffffffff1681526020018673ffffffffffffffffffffffffffffffffffffffff168152602001610bb862ffffff1681526020018373ffffffffffffffffffffffffffffffffffffffff1681526020014281526020018581526020018481526020015f73ffffffffffffffffffffffffffffffffffffffff1681525090505f805f9054906101000a900473ffffffffffffffffffffffffffffffffffffffff1673ffffffffffffffffffffffffffffffffffffffff1663414bf389836040518263ffffffff1660e01b815260040161036e9190610835565b6020604051808303815f875af115801561038a573d5f803e3d5ffd5b505050506040513d601f19601f820116820180604052508101906103ae9190610863565b9050838110156103f3576040517f08c379a00000000000000000000000000000000000000000000000000000000081526004016103ea906108d8565b60405180910390fd5b50505050505050565b5f73ffffffffffffffffffffffffffffffffffffffff82169050919050565b5f610425826103fc565b9050919050565b6104358161041b565b82525050565b5f60208201905061044e5f83018461042c565b92915050565b5f819050919050565b5f61047761047261046d846103fc565b610454565b6103fc565b9050919050565b5f6104888261045d565b9050919050565b5f6104998261047e565b9050919050565b6104a98161048f565b82525050565b5f6020820190506104c25f8301846104a0565b92915050565b5f80fd5b6104d58161041b565b81146104df575f80fd5b50565b5f813590506104f0816104cc565b92915050565b5f819050919050565b610508816104f6565b8114610512575f80fd5b50565b5f81359050610523816104ff565b92915050565b5f805f805f60a08688031215610542576105416104c8565b5b5f61054f888289016104e2565b9550506020610560888289016104e2565b945050604061057188828901610515565b935050606061058288828901610515565b9250506080610593888289016104e2565b9150509295509295909350565b6105a9816104f6565b82525050565b5f6060820190506105c25f83018661042c565b6105cf602083018561042c565b6105dc60408301846105a0565b949350505050565b5f8115159050919050565b6105f8816105e4565b8114610602575f80fd5b50565b5f81519050610613816105ef565b92915050565b5f6020828403121561062e5761062d6104c8565b5b5f61063b84828501610605565b91505092915050565b5f82825260208201905092915050565b7f5472616e73666572206661696c656400000000000000000000000000000000005f82015250565b5f610688600f83610644565b915061069382610654565b602082019050919050565b5f6020820190508181035f8301526106b58161067c565b9050919050565b5f6040820190506106cf5f83018561042c565b6106dc60208301846105a0565b9392505050565b7f417070726f76616c206661696c656400000000000000000000000000000000005f82015250565b5f610717600f83610644565b9150610722826106e3565b602082019050919050565b5f6020820190508181035f8301526107448161070b565b9050919050565b6107548161041b565b82525050565b5f62ffffff82169050919050565b6107718161075a565b82525050565b610780816104f6565b82525050565b61078f816103fc565b82525050565b61010082015f8201516107aa5f85018261074b565b5060208201516107bd602085018261074b565b5060408201516107d06040850182610768565b5060608201516107e3606085018261074b565b5060808201516107f66080850182610777565b5060a082015161080960a0850182610777565b5060c082015161081c60c0850182610777565b5060e082015161082f60e0850182610786565b50505050565b5f610100820190506108495f830184610795565b92915050565b5f8151905061085d816104ff565b92915050565b5f60208284031215610878576108776104c8565b5b5f6108858482850161084f565b91505092915050565b7f496e73756666696369656e74206f757470757420616d6f756e740000000000005f82015250565b5f6108c2601a83610644565b91506108cd8261088e565b602082019050919050565b5f6020820190508181035f8301526108ef816108b6565b905091905056fea26469706673582212204e160841c94019cf4687df97f698f75355a4f64a5657bb80dfd271fe01353d5164736f6c634300081a0033",
					"opcodes": "PUSH1 0x80 PUSH1 0x40 MSTORE CALLVALUE DUP1 ISZERO PUSH2 0xF JUMPI PUSH0 DUP1 REVERT JUMPDEST POP PUSH1 0x40 MLOAD PUSH2 0xA8C CODESIZE SUB DUP1 PUSH2 0xA8C DUP4 CODECOPY DUP2 DUP2 ADD PUSH1 0x40 MSTORE DUP2 ADD SWAP1 PUSH2 0x31 SWAP2 SWAP1 PUSH2 0x115 JUMP JUMPDEST DUP2 PUSH0 DUP1 PUSH2 0x100 EXP DUP2 SLOAD DUP2 PUSH20 0xFFFFFFFFFFFFFFFFFFFFFFFFFFFFFFFFFFFFFFFF MUL NOT AND SWAP1 DUP4 PUSH20 0xFFFFFFFFFFFFFFFFFFFFFFFFFFFFFFFFFFFFFFFF AND MUL OR SWAP1 SSTORE POP DUP1 PUSH1 0x1 PUSH0 PUSH2 0x100 EXP DUP2 SLOAD DUP2 PUSH20 0xFFFFFFFFFFFFFFFFFFFFFFFFFFFFFFFFFFFFFFFF MUL NOT AND SWAP1 DUP4 PUSH20 0xFFFFFFFFFFFFFFFFFFFFFFFFFFFFFFFFFFFFFFFF AND MUL OR SWAP1 SSTORE POP POP POP PUSH2 0x153 JUMP JUMPDEST PUSH0 DUP1 REVERT JUMPDEST PUSH0 PUSH20 0xFFFFFFFFFFFFFFFFFFFFFFFFFFFFFFFFFFFFFFFF DUP3 AND SWAP1 POP SWAP2 SWAP1 POP JUMP JUMPDEST PUSH0 PUSH2 0xE4 DUP3 PUSH2 0xBB JUMP JUMPDEST SWAP1 POP SWAP2 SWAP1 POP JUMP JUMPDEST PUSH2 0xF4 DUP2 PUSH2 0xDA JUMP JUMPDEST DUP2 EQ PUSH2 0xFE JUMPI PUSH0 DUP1 REVERT JUMPDEST POP JUMP JUMPDEST PUSH0 DUP2 MLOAD SWAP1 POP PUSH2 0x10F DUP2 PUSH2 0xEB JUMP JUMPDEST SWAP3 SWAP2 POP POP JUMP JUMPDEST PUSH0 DUP1 PUSH1 0x40 DUP4 DUP6 SUB SLT ISZERO PUSH2 0x12B JUMPI PUSH2 0x12A PUSH2 0xB7 JUMP JUMPDEST JUMPDEST PUSH0 PUSH2 0x138 DUP6 DUP3 DUP7 ADD PUSH2 0x101 JUMP JUMPDEST SWAP3 POP POP PUSH1 0x20 PUSH2 0x149 DUP6 DUP3 DUP7 ADD PUSH2 0x101 JUMP JUMPDEST SWAP2 POP POP SWAP3 POP SWAP3 SWAP1 POP JUMP JUMPDEST PUSH2 0x92C DUP1 PUSH2 0x160 PUSH0 CODECOPY PUSH0 RETURN INVALID PUSH1 0x80 PUSH1 0x40 MSTORE CALLVALUE DUP1 ISZERO PUSH2 0xF JUMPI PUSH0 DUP1 REVERT JUMPDEST POP PUSH1 0x4 CALLDATASIZE LT PUSH2 0x3F JUMPI PUSH0 CALLDATALOAD PUSH1 0xE0 SHR DUP1 PUSH4 0xAD5C4648 EQ PUSH2 0x43 JUMPI DUP1 PUSH4 0xC31C9C07 EQ PUSH2 0x61 JUMPI DUP1 PUSH4 0xD5BCB9B5 EQ PUSH2 0x7F JUMPI JUMPDEST PUSH0 DUP1 REVERT JUMPDEST PUSH2 0x4B PUSH2 0x9B JUMP JUMPDEST PUSH1 0x40 MLOAD PUSH2 0x58 SWAP2 SWAP1 PUSH2 0x43B JUMP JUMPDEST PUSH1 0x40 MLOAD DUP1 SWAP2 SUB SWAP1 RETURN JUMPDEST PUSH2 0x69 PUSH2 0xC0 JUMP JUMPDEST PUSH1 0x40 MLOAD PUSH2 0x76 SWAP2 SWAP1 PUSH2 0x4AF JUMP JUMPDEST PUSH1 0x40 MLOAD DUP1 SWAP2 SUB SWAP1 RETURN JUMPDEST PUSH2 0x99 PUSH1 0x4 DUP1 CALLDATASIZE SUB DUP2 ADD SWAP1 PUSH2 0x94 SWAP2 SWAP1 PUSH2 0x529 JUMP JUMPDEST PUSH2 0xE3 JUMP JUMPDEST STOP JUMPDEST PUSH1 0x1 PUSH0 SWAP1 SLOAD SWAP1 PUSH2 0x100 EXP SWAP1 DIV PUSH20 0xFFFFFFFFFFFFFFFFFFFFFFFFFFFFFFFFFFFFFFFF AND DUP2 JUMP JUMPDEST PUSH0 DUP1 SLOAD SWAP1 PUSH2 0x100 EXP SWAP1 DIV PUSH20 0xFFFFFFFFFFFFFFFFFFFFFFFFFFFFFFFFFFFFFFFF AND DUP2 JUMP JUMPDEST DUP5 PUSH20 0xFFFFFFFFFFFFFFFFFFFFFFFFFFFFFFFFFFFFFFFF AND PUSH4 0x23B872DD CALLER ADDRESS DUP7 PUSH1 0x40 MLOAD DUP5 PUSH4 0xFFFFFFFF AND PUSH1 0xE0 SHL DUP2 MSTORE PUSH1 0x4 ADD PUSH2 0x120 SWAP4 SWAP3 SWAP2 SWAP1 PUSH2 0x5AF JUMP JUMPDEST PUSH1 0x20 PUSH1 0x40 MLOAD DUP1 DUP4 SUB DUP2 PUSH0 DUP8 GAS CALL ISZERO DUP1 ISZERO PUSH2 0x13C JUMPI RETURNDATASIZE PUSH0 DUP1 RETURNDATACOPY RETURNDATASIZE PUSH0 REVERT JUMPDEST POP POP POP POP PUSH1 0x40 MLOAD RETURNDATASIZE PUSH1 0x1F NOT PUSH1 0x1F DUP3 ADD AND DUP3 ADD DUP1 PUSH1 0x40 MSTORE POP DUP2 ADD SWAP1 PUSH2 0x160 SWAP2 SWAP1 PUSH2 0x619 JUMP JUMPDEST PUSH2 0x19F JUMPI PUSH1 0x40 MLOAD PUSH32 0x8C379A000000000000000000000000000000000000000000000000000000000 DUP2 MSTORE PUSH1 0x4 ADD PUSH2 0x196 SWAP1 PUSH2 0x69E JUMP JUMPDEST PUSH1 0x40 MLOAD DUP1 SWAP2 SUB SWAP1 REVERT JUMPDEST DUP5 PUSH20 0xFFFFFFFFFFFFFFFFFFFFFFFFFFFFFFFFFFFFFFFF AND PUSH4 0x95EA7B3 PUSH0 DUP1 SLOAD SWAP1 PUSH2 0x100 EXP SWAP1 DIV PUSH20 0xFFFFFFFFFFFFFFFFFFFFFFFFFFFFFFFFFFFFFFFF AND DUP6 PUSH1 0x40 MLOAD DUP4 PUSH4 0xFFFFFFFF AND PUSH1 0xE0 SHL DUP2 MSTORE PUSH1 0x4 ADD PUSH2 0x1F9 SWAP3 SWAP2 SWAP1 PUSH2 0x6BC JUMP JUMPDEST PUSH1 0x20 PUSH1 0x40 MLOAD DUP1 DUP4 SUB DUP2 PUSH0 DUP8 GAS CALL ISZERO DUP1 ISZERO PUSH2 0x215 JUMPI RETURNDATASIZE PUSH0 DUP1 RETURNDATACOPY RETURNDATASIZE PUSH0 REVERT JUMPDEST POP POP POP POP PUSH1 0x40 MLOAD RETURNDATASIZE PUSH1 0x1F NOT PUSH1 0x1F DUP3 ADD AND DUP3 ADD DUP1 PUSH1 0x40 MSTORE POP DUP2 ADD SWAP1 PUSH2 0x239 SWAP2 SWAP1 PUSH2 0x619 JUMP JUMPDEST PUSH2 0x278 JUMPI PUSH1 0x40 MLOAD PUSH32 0x8C379A000000000000000000000000000000000000000000000000000000000 DUP2 MSTORE PUSH1 0x4 ADD PUSH2 0x26F SWAP1 PUSH2 0x72D JUMP JUMPDEST PUSH1 0x40 MLOAD DUP1 SWAP2 SUB SWAP1 REVERT JUMPDEST PUSH0 PUSH1 0x40 MLOAD DUP1 PUSH2 0x100 ADD PUSH1 0x40 MSTORE DUP1 DUP8 PUSH20 0xFFFFFFFFFFFFFFFFFFFFFFFFFFFFFFFFFFFFFFFF AND DUP2 MSTORE PUSH1 0x20 ADD DUP7 PUSH20 0xFFFFFFFFFFFFFFFFFFFFFFFFFFFFFFFFFFFFFFFF AND DUP2 MSTORE PUSH1 0x20 ADD PUSH2 0xBB8 PUSH3 0xFFFFFF AND DUP2 MSTORE PUSH1 0x20 ADD DUP4 PUSH20 0xFFFFFFFFFFFFFFFFFFFFFFFFFFFFFFFFFFFFFFFF AND DUP2 MSTORE PUSH1 0x20 ADD TIMESTAMP DUP2 MSTORE PUSH1 0x20 ADD DUP6 DUP2 MSTORE PUSH1 0x20 ADD DUP5 DUP2 MSTORE PUSH1 0x20 ADD PUSH0 PUSH20 0xFFFFFFFFFFFFFFFFFFFFFFFFFFFFFFFFFFFFFFFF AND DUP2 MSTORE POP SWAP1 POP PUSH0 DUP1 PUSH0 SWAP1 SLOAD SWAP1 PUSH2 0x100 EXP SWAP1 DIV PUSH20 0xFFFFFFFFFFFFFFFFFFFFFFFFFFFFFFFFFFFFFFFF AND PUSH20 0xFFFFFFFFFFFFFFFFFFFFFFFFFFFFFFFFFFFFFFFF AND PUSH4 0x414BF389 DUP4 PUSH1 0x40 MLOAD DUP3 PUSH4 0xFFFFFFFF AND PUSH1 0xE0 SHL DUP2 MSTORE PUSH1 0x4 ADD PUSH2 0x36E SWAP2 SWAP1 PUSH2 0x835 JUMP JUMPDEST PUSH1 0x20 PUSH1 0x40 MLOAD DUP1 DUP4 SUB DUP2 PUSH0 DUP8 GAS CALL ISZERO DUP1 ISZERO PUSH2 0x38A JUMPI RETURNDATASIZE PUSH0 DUP1 RETURNDATACOPY RETURNDATASIZE PUSH0 REVERT JUMPDEST POP POP POP POP PUSH1 0x40 MLOAD RETURNDATASIZE PUSH1 0x1F NOT PUSH1 0x1F DUP3 ADD AND DUP3 ADD DUP1 PUSH1 0x40 MSTORE POP DUP2 ADD SWAP1 PUSH2 0x3AE SWAP2 SWAP1 PUSH2 0x863 JUMP JUMPDEST SWAP1 POP DUP4 DUP2 LT ISZERO PUSH2 0x3F3 JUMPI PUSH1 0x40 MLOAD PUSH32 0x8C379A000000000000000000000000000000000000000000000000000000000 DUP2 MSTORE PUSH1 0x4 ADD PUSH2 0x3EA SWAP1 PUSH2 0x8D8 JUMP JUMPDEST PUSH1 0x40 MLOAD DUP1 SWAP2 SUB SWAP1 REVERT JUMPDEST POP POP POP POP POP POP POP JUMP JUMPDEST PUSH0 PUSH20 0xFFFFFFFFFFFFFFFFFFFFFFFFFFFFFFFFFFFFFFFF DUP3 AND SWAP1 POP SWAP2 SWAP1 POP JUMP JUMPDEST PUSH0 PUSH2 0x425 DUP3 PUSH2 0x3FC JUMP JUMPDEST SWAP1 POP SWAP2 SWAP1 POP JUMP JUMPDEST PUSH2 0x435 DUP2 PUSH2 0x41B JUMP JUMPDEST DUP3 MSTORE POP POP JUMP JUMPDEST PUSH0 PUSH1 0x20 DUP3 ADD SWAP1 POP PUSH2 0x44E PUSH0 DUP4 ADD DUP5 PUSH2 0x42C JUMP JUMPDEST SWAP3 SWAP2 POP POP JUMP JUMPDEST PUSH0 DUP2 SWAP1 POP SWAP2 SWAP1 POP JUMP JUMPDEST PUSH0 PUSH2 0x477 PUSH2 0x472 PUSH2 0x46D DUP5 PUSH2 0x3FC JUMP JUMPDEST PUSH2 0x454 JUMP JUMPDEST PUSH2 0x3FC JUMP JUMPDEST SWAP1 POP SWAP2 SWAP1 POP JUMP JUMPDEST PUSH0 PUSH2 0x488 DUP3 PUSH2 0x45D JUMP JUMPDEST SWAP1 POP SWAP2 SWAP1 POP JUMP JUMPDEST PUSH0 PUSH2 0x499 DUP3 PUSH2 0x47E JUMP JUMPDEST SWAP1 POP SWAP2 SWAP1 POP JUMP JUMPDEST PUSH2 0x4A9 DUP2 PUSH2 0x48F JUMP JUMPDEST DUP3 MSTORE POP POP JUMP JUMPDEST PUSH0 PUSH1 0x20 DUP3 ADD SWAP1 POP PUSH2 0x4C2 PUSH0 DUP4 ADD DUP5 PUSH2 0x4A0 JUMP JUMPDEST SWAP3 SWAP2 POP POP JUMP JUMPDEST PUSH0 DUP1 REVERT JUMPDEST PUSH2 0x4D5 DUP2 PUSH2 0x41B JUMP JUMPDEST DUP2 EQ PUSH2 0x4DF JUMPI PUSH0 DUP1 REVERT JUMPDEST POP JUMP JUMPDEST PUSH0 DUP2 CALLDATALOAD SWAP1 POP PUSH2 0x4F0 DUP2 PUSH2 0x4CC JUMP JUMPDEST SWAP3 SWAP2 POP POP JUMP JUMPDEST PUSH0 DUP2 SWAP1 POP SWAP2 SWAP1 POP JUMP JUMPDEST PUSH2 0x508 DUP2 PUSH2 0x4F6 JUMP JUMPDEST DUP2 EQ PUSH2 0x512 JUMPI PUSH0 DUP1 REVERT JUMPDEST POP JUMP JUMPDEST PUSH0 DUP2 CALLDATALOAD SWAP1 POP PUSH2 0x523 DUP2 PUSH2 0x4FF JUMP JUMPDEST SWAP3 SWAP2 POP POP JUMP JUMPDEST PUSH0 DUP1 PUSH0 DUP1 PUSH0 PUSH1 0xA0 DUP7 DUP9 SUB SLT ISZERO PUSH2 0x542 JUMPI PUSH2 0x541 PUSH2 0x4C8 JUMP JUMPDEST JUMPDEST PUSH0 PUSH2 0x54F DUP9 DUP3 DUP10 ADD PUSH2 0x4E2 JUMP JUMPDEST SWAP6 POP POP PUSH1 0x20 PUSH2 0x560 DUP9 DUP3 DUP10 ADD PUSH2 0x4E2 JUMP JUMPDEST SWAP5 POP POP PUSH1 0x40 PUSH2 0x571 DUP9 DUP3 DUP10 ADD PUSH2 0x515 JUMP JUMPDEST SWAP4 POP POP PUSH1 0x60 PUSH2 0x582 DUP9 DUP3 DUP10 ADD PUSH2 0x515 JUMP JUMPDEST SWAP3 POP POP PUSH1 0x80 PUSH2 0x593 DUP9 DUP3 DUP10 ADD PUSH2 0x4E2 JUMP JUMPDEST SWAP2 POP POP SWAP3 SWAP6 POP SWAP3 SWAP6 SWAP1 SWAP4 POP JUMP JUMPDEST PUSH2 0x5A9 DUP2 PUSH2 0x4F6 JUMP JUMPDEST DUP3 MSTORE POP POP JUMP JUMPDEST PUSH0 PUSH1 0x60 DUP3 ADD SWAP1 POP PUSH2 0x5C2 PUSH0 DUP4 ADD DUP7 PUSH2 0x42C JUMP JUMPDEST PUSH2 0x5CF PUSH1 0x20 DUP4 ADD DUP6 PUSH2 0x42C JUMP JUMPDEST PUSH2 0x5DC PUSH1 0x40 DUP4 ADD DUP5 PUSH2 0x5A0 JUMP JUMPDEST SWAP5 SWAP4 POP POP POP POP JUMP JUMPDEST PUSH0 DUP2 ISZERO ISZERO SWAP1 POP SWAP2 SWAP1 POP JUMP JUMPDEST PUSH2 0x5F8 DUP2 PUSH2 0x5E4 JUMP JUMPDEST DUP2 EQ PUSH2 0x602 JUMPI PUSH0 DUP1 REVERT JUMPDEST POP JUMP JUMPDEST PUSH0 DUP2 MLOAD SWAP1 POP PUSH2 0x613 DUP2 PUSH2 0x5EF JUMP JUMPDEST SWAP3 SWAP2 POP POP JUMP JUMPDEST PUSH0 PUSH1 0x20 DUP3 DUP5 SUB SLT ISZERO PUSH2 0x62E JUMPI PUSH2 0x62D PUSH2 0x4C8 JUMP JUMPDEST JUMPDEST PUSH0 PUSH2 0x63B DUP5 DUP3 DUP6 ADD PUSH2 0x605 JUMP JUMPDEST SWAP2 POP POP SWAP3 SWAP2 POP POP JUMP JUMPDEST PUSH0 DUP3 DUP3 MSTORE PUSH1 0x20 DUP3 ADD SWAP1 POP SWAP3 SWAP2 POP POP JUMP JUMPDEST PUSH32 0x5472616E73666572206661696C65640000000000000000000000000000000000 PUSH0 DUP3 ADD MSTORE POP JUMP JUMPDEST PUSH0 PUSH2 0x688 PUSH1 0xF DUP4 PUSH2 0x644 JUMP JUMPDEST SWAP2 POP PUSH2 0x693 DUP3 PUSH2 0x654 JUMP JUMPDEST PUSH1 0x20 DUP3 ADD SWAP1 POP SWAP2 SWAP1 POP JUMP JUMPDEST PUSH0 PUSH1 0x20 DUP3 ADD SWAP1 POP DUP2 DUP2 SUB PUSH0 DUP4 ADD MSTORE PUSH2 0x6B5 DUP2 PUSH2 0x67C JUMP JUMPDEST SWAP1 POP SWAP2 SWAP1 POP JUMP JUMPDEST PUSH0 PUSH1 0x40 DUP3 ADD SWAP1 POP PUSH2 0x6CF PUSH0 DUP4 ADD DUP6 PUSH2 0x42C JUMP JUMPDEST PUSH2 0x6DC PUSH1 0x20 DUP4 ADD DUP5 PUSH2 0x5A0 JUMP JUMPDEST SWAP4 SWAP3 POP POP POP JUMP JUMPDEST PUSH32 0x417070726F76616C206661696C65640000000000000000000000000000000000 PUSH0 DUP3 ADD MSTORE POP JUMP JUMPDEST PUSH0 PUSH2 0x717 PUSH1 0xF DUP4 PUSH2 0x644 JUMP JUMPDEST SWAP2 POP PUSH2 0x722 DUP3 PUSH2 0x6E3 JUMP JUMPDEST PUSH1 0x20 DUP3 ADD SWAP1 POP SWAP2 SWAP1 POP JUMP JUMPDEST PUSH0 PUSH1 0x20 DUP3 ADD SWAP1 POP DUP2 DUP2 SUB PUSH0 DUP4 ADD MSTORE PUSH2 0x744 DUP2 PUSH2 0x70B JUMP JUMPDEST SWAP1 POP SWAP2 SWAP1 POP JUMP JUMPDEST PUSH2 0x754 DUP2 PUSH2 0x41B JUMP JUMPDEST DUP3 MSTORE POP POP JUMP JUMPDEST PUSH0 PUSH3 0xFFFFFF DUP3 AND SWAP1 POP SWAP2 SWAP1 POP JUMP JUMPDEST PUSH2 0x771 DUP2 PUSH2 0x75A JUMP JUMPDEST DUP3 MSTORE POP POP JUMP JUMPDEST PUSH2 0x780 DUP2 PUSH2 0x4F6 JUMP JUMPDEST DUP3 MSTORE POP POP JUMP JUMPDEST PUSH2 0x78F DUP2 PUSH2 0x3FC JUMP JUMPDEST DUP3 MSTORE POP POP JUMP JUMPDEST PUSH2 0x100 DUP3 ADD PUSH0 DUP3 ADD MLOAD PUSH2 0x7AA PUSH0 DUP6 ADD DUP3 PUSH2 0x74B JUMP JUMPDEST POP PUSH1 0x20 DUP3 ADD MLOAD PUSH2 0x7BD PUSH1 0x20 DUP6 ADD DUP3 PUSH2 0x74B JUMP JUMPDEST POP PUSH1 0x40 DUP3 ADD MLOAD PUSH2 0x7D0 PUSH1 0x40 DUP6 ADD DUP3 PUSH2 0x768 JUMP JUMPDEST POP PUSH1 0x60 DUP3 ADD MLOAD PUSH2 0x7E3 PUSH1 0x60 DUP6 ADD DUP3 PUSH2 0x74B JUMP JUMPDEST POP PUSH1 0x80 DUP3 ADD MLOAD PUSH2 0x7F6 PUSH1 0x80 DUP6 ADD DUP3 PUSH2 0x777 JUMP JUMPDEST POP PUSH1 0xA0 DUP3 ADD MLOAD PUSH2 0x809 PUSH1 0xA0 DUP6 ADD DUP3 PUSH2 0x777 JUMP JUMPDEST POP PUSH1 0xC0 DUP3 ADD MLOAD PUSH2 0x81C PUSH1 0xC0 DUP6 ADD DUP3 PUSH2 0x777 JUMP JUMPDEST POP PUSH1 0xE0 DUP3 ADD MLOAD PUSH2 0x82F PUSH1 0xE0 DUP6 ADD DUP3 PUSH2 0x786 JUMP JUMPDEST POP POP POP POP JUMP JUMPDEST PUSH0 PUSH2 0x100 DUP3 ADD SWAP1 POP PUSH2 0x849 PUSH0 DUP4 ADD DUP5 PUSH2 0x795 JUMP JUMPDEST SWAP3 SWAP2 POP POP JUMP JUMPDEST PUSH0 DUP2 MLOAD SWAP1 POP PUSH2 0x85D DUP2 PUSH2 0x4FF JUMP JUMPDEST SWAP3 SWAP2 POP POP JUMP JUMPDEST PUSH0 PUSH1 0x20 DUP3 DUP5 SUB SLT ISZERO PUSH2 0x878 JUMPI PUSH2 0x877 PUSH2 0x4C8 JUMP JUMPDEST JUMPDEST PUSH0 PUSH2 0x885 DUP5 DUP3 DUP6 ADD PUSH2 0x84F JUMP JUMPDEST SWAP2 POP POP SWAP3 SWAP2 POP POP JUMP JUMPDEST PUSH32 0x496E73756666696369656E74206F757470757420616D6F756E74000000000000 PUSH0 DUP3 ADD MSTORE POP JUMP JUMPDEST PUSH0 PUSH2 0x8C2 PUSH1 0x1A DUP4 PUSH2 0x644 JUMP JUMPDEST SWAP2 POP PUSH2 0x8CD DUP3 PUSH2 0x88E JUMP JUMPDEST PUSH1 0x20 DUP3 ADD SWAP1 POP SWAP2 SWAP1 POP JUMP JUMPDEST PUSH0 PUSH1 0x20 DUP3 ADD SWAP1 POP DUP2 DUP2 SUB PUSH0 DUP4 ADD MSTORE PUSH2 0x8EF DUP2 PUSH2 0x8B6 JUMP JUMPDEST SWAP1 POP SWAP2 SWAP1 POP JUMP INVALID LOG2 PUSH5 0x6970667358 0x22 SLT KECCAK256 0x4E AND ADDMOD COINBASE 0xC9 BLOCKHASH NOT 0xCF CHAINID DUP8 0xDF SWAP8 0xF6 SWAP9 0xF7 MSTORE8 SSTORE LOG4 0xF6 BLOBBASEFEE JUMP JUMPI 0xBB DUP1 0xDF 0xD2 PUSH18 0xFE01353D5164736F6C634300081A00330000 "
				},
				"gasEstimates": {
					"creation": {
						"codeDepositCost": "469600",
						"executionCost": "infinite",
						"totalCost": "infinite"
					},
					"external": {
						"WETH()": "2486",
						"swap(address,address,uint256,uint256,address)": "infinite",
						"swapRouter()": "infinite"
					}
				},
				"methodIdentifiers": {
					"WETH()": "ad5c4648",
					"swap(address,address,uint256,uint256,address)": "d5bcb9b5",
					"swapRouter()": "c31c9c07"
				}
			},
			"storageLayout": {
				"storage": [
					{
						"astId": 192,
						"contract": "TOKEN SWAP/Test.sol:SimpleTokenSwap",
						"label": "swapRouter",
						"offset": 0,
						"slot": "0",
						"type": "t_contract(ISwapRouter)111"
					},
					{
						"astId": 194,
						"contract": "TOKEN SWAP/Test.sol:SimpleTokenSwap",
						"label": "WETH",
						"offset": 0,
						"slot": "1",
						"type": "t_address"
					}
				],
				"types": {
					"t_address": {
						"encoding": "inplace",
						"label": "address",
						"numberOfBytes": "20"
					},
					"t_contract(ISwapRouter)111": {
						"encoding": "inplace",
						"label": "contract ISwapRouter",
						"numberOfBytes": "20"
					}
				}
			},
			"userdoc": {
				"kind": "user",
				"methods": {},
				"version": 1
			}
		}
	}
}